:100000000C944E020C94BE0A0C9495020C9495022A
:100010000C9495020C9495020C9495020C94950204
:100020000C9495020C9495020C94811F0C9455200D
:100030000C940C170C9495020C9495020C94950258
:100040000C9495020C9495020C9495020C949502D4
:100050000C9495020C9457170C9495020C949502ED
:100060000C9495020C9495020C9495020C949502B4
:100070000C9495020C9495020C9495020C949502A4
:100080000C9495020C9495020C9495020C94950294
:100090000C9495020C9495020C9495020C94950284
:1000A0000C9495020C9495020C9495024B4C3A20BA
:1000B0006B633A2025752C20636F6C3A2025752CD4
:1000C00020726F773A2025752C20707265737365E6
:1000D000643A2025750A0014001A0008001500175C
:1000E0000004001600070009000A001D001B00069E
:1000F00000190005000000E30001512B00E100138E
:100100000012000C0018001C0033000F000E000D40
:10011000000B003800370036001000110000002CE2
:100120000002512A0039001E001F00200021002279
:100130000029612B62E200F468F56139001B0806B2
:100140000819081D0800002A4401002A434A002714
:1001500000260025002400230034002D002E00512D
:1001600000500028004F0051005200500000002CA9
:100170004428642C414D001E021F0220022102224D
:10018000022B00F200F100F400F5002F00300026F1
:1001900002270224020000010001000100010030DA
:1001A000002F0025022402230234027F00BB0081BD
:1001B0000080002E02F300F100F000F200000001C8
:1001C000000100010001001E021F02200221022284
:1001D0000236022F0026022F0224023702300027A7
:1001E000023002240200002A4401002A434A00256A
:1001F00002260025002400230227002300220021DC
:10020000002E002E0220001F001E00350000002CD2
:100210004428642C414D000100080852004B012B7A
:10022000062903500051004F004B0301003D04011B
:10023000004902005C0000010001002A434A000F4F
:1002400008010001004E012B044C050100E30028C9
:10025000004E030100010001000100010000000147
:100260000001002C414D0044454255473A20646945
:100270007361626C65642E0A0044454255473A201A
:10028000656E61626C65642E0A000A002530386272
:10029000003A200025303258000A722F6320303196
:1002A0003233343536370A000A0025303258200000
:1002B0006B6579626F6172645F7265706F72743AB8
:1002C00020000A0025303258006B6579626F617238
:1002D000645F7365745F6C65643A2000290A0025C9
:1002E00075002F002575005D28002564002000257D
:1002F0006400200025640020002564007C00253077
:100300003258006D6F7573656B6579205B62746E32
:100310007C782079207620685D287265702F616373
:100320006C293A205B005B735D004B6579626F61FD
:1003300072642073746172742E0A005B575D005BF7
:10034000535D005B525D005B445D005B435D0004F8
:10035000033000000012037300710075006900672C
:100360000067006C00650000000E03690062006E0B
:100370000075006400610000000403090409025BC9
:1003800000030100A0FA09040000010301010009B3
:1003900021110100012240000705810308000A091C
:1003A0000401000103000000092111010001224F96
:1003B000000705820320000A09040200020300006E
:1003C00000092111010001222200070583032000FA
:1003D00001070503032000011201100100000008BD
:1003E000556973200100010203010631FF0974A160
:1003F000010975150026FF00952075088102097610
:10040000150026FF00952075089102C0050109021C
:10041000A10185020901A10005091901290515009D
:10042000250195057501810295017503810105017D
:10043000093009311581257F950275088106093833
:100440001581257F950175088106050C0A3802156E
:1004500081257F950175088106C0C005010906A1A7
:1004600001050719E029E7150025019508750181A7
:10047000029501750881010507190029FF1500265D
:10048000FF009506750881000508190129059505E5
:1004900075019102950175039101C00011241FBEE1
:1004A000CFEFDAE0DEBFCDBF04B603FE27C08091F8
:1004B000030290910402A0910502B09106028730D8
:1004C000904BA740B04BD1F410920302109204025B
:1004D000109205021092060214BE84B7877F84BF73
:1004E0000FB6F894A89580916000886180936000B1
:1004F000109260000FBEE0E0F8E3099511E0A0E083
:10050000B1E0E0E5F5E402C005900D92A833B10733
:10051000D9F722E0A8E3B1E001C01D92A330B207F1
:10052000E1F70E94B61C0C9482220C940000FF9309
:10053000EF93E0913801F0913901309709F0099576
:10054000EF91FF910895FC018591803011F0EFDF6C
:10055000FBCF0895FF27E0E230E247FF0CC0419552
:1005600097FF09C0EDE26095709580959095611DAB
:10057000711D811D911D27FF02C0219530E350E2BE
:10058000AA27660F771F881F991FAA1FA41710F0AC
:10059000A41B63955A95A9F7AA3008F0A95FA05D3E
:1005A000AF93F395611571058105910541F7ED3222
:1005B00011F4EF93F395F21718F43F93F395FBCFF3
:1005C0008F91B5DFFA95E1F70895E991F991859159
:1005D000803021F0853219F0AADFF9CF089520E0AC
:1005E000E89455915532C1F3503311F46894559104
:1005F0005A3348F4505390F3220F022E220F220F49
:10060000200D250FF4CF0EF4219589919991533641
:1006100019F3533729F1533559F1BC01882799272C
:10062000E8945C3621F489919991689455915436F7
:1006300039F446EF7EF077FF0DC08FEF9FEF0AC0D1
:1006400055374AE039F0583540E121F0523642E062
:1006500009F00895FF93EF937DDFEF91FF91B7CFFE
:10066000FF93EF93FC0181918030B9F360DFFBCF02
:10067000FF93EF9368DFF1CFDF93CF93CDB7DEB772
:100680002596A3DFCF91DF910895FB0122811F9270
:100690002F9321811F922F9320811F922F939F933D
:1006A0008F938CEA90E09F938F930E943C038DB7C9
:1006B0009EB70A960FB6F8949EBF0FBE8DBF81E01D
:1006C000089581E008950C94450308950C94650302
:1006D0001F93CF93DF9300D000D00F92CDB7DEB73A
:1006E00049835A836B833091590189819A813111F1
:1006F0001DC06623B9F02223A9F00E946D14182FA3
:10070000682F89819A810E94161469817A81812FCC
:100710000F900F900F900F900F90DF91CF911F913E
:100720000C942A040E944414182FEFCF0E946D14D9
:1007300069817A81EDCFFC01262F40815181628150
:10074000738184810C946803CF93DF93EC0160E0A4
:100750000E949B03BE01DF91CF910C9466030E941F
:10076000C115811102C00E945E160C94F1050C9413
:10077000F40508950C94B90381E008950C94BC032A
:10078000CF93C82F0E94BA038C2FCF910C94BE0335
:1007900008950E94B90F0E94C8032FEF84E39CE0E4
:1007A000215080409040E1F700C000000C947B177E
:1007B0000F931F93CF93DF93EC0161E00E949B03A3
:1007C0008C01BE010E946303882311F1BE01C801A0
:1007D0000E9471088823E1F0BE01C8010E94C3088D
:1007E0008823B1F0BE01C8010E94E609882381F088
:1007F0008A81882341F101308CE5180779F00E3D9C
:100800008CE51807E9F001151C45E9F40E94C903BD
:1008100080E0DF91CF911F910F9108959091C001D9
:10082000892F8E7F90FF81608093C00180FF05C07B
:1008300089E792E00E94A302EBCF87E692E0FACF2D
:100840000E945E16E5CFCE01DF91CF911F910F91EF
:100850000C946103972F70E025E0929F600D711D4D
:100860001124FB0198E2899FE00DF11D1124EE0F88
:10087000FF1FE952FF4F859194910895CF93DF9325
:100880000E942A040E941605EC01811522E59207B8
:1008900078F5811531E5930708F098C08F3F9105F1
:1008A00009F0B8F4803F910508F06FC0853A9105D2
:1008B00040F48430910548F4019739F0D0E0C0E06D
:1008C00004C0805E91090897C8F7CE01DF91CF91EF
:1008D0000895811540E5940708F05CC0C11580E4D7
:1008E000D80708F054C0C11590E2D90770F3E6CFDD
:1008F000811526E5920718F5811535E5930708F06F
:100900007DC0811544E5940708F073C0982F969533
:1009100096959E0123703327C115D34508F45BC01B
:10092000C1E0D0E002C0CC0FDD1F2A95E2F730E233
:10093000939FC0011124C82BD92BDA68C6CFC115EB
:100940009AE5D90778F4C11529E5D20708F060C007
:10095000C11538E5D30708F4B1CFDC2FCC27C06F21
:10096000D06AB3CFCE0190568115904208F0A6CF41
:100970008D2F8F710E94AD0590E0982F88278827D2
:100980009F719C012C2BE90141C0D0659ECFDF7087
:10099000D06A9BCFE4E096958795EA95E1F783705E
:1009A0002C2F26952695237090E2299F90011124E3
:1009B000382B8C2F8370C1E0D0E002C0CC0FDD1F3C
:1009C0008A95E2F7C22BD32BDC687FCFD82FCC27B8
:1009D000C16FD06A7ACFC1E0D0E002C0CC0FDD1F7A
:1009E0002A95E2F720E2929FC0011124C82BD92B4F
:1009F000EBCFD82FCC27C46FD06A67CF0E94AD054C
:100A0000C82FD0E0DC2FCC27CC27DF71D0625DCFA0
:100A10008C2F8F700E94AD0534E0D695C7953A951E
:100A2000E1F7CF709C2FEC01D0694FCF8238910550
:100A3000B1F1B0F48133910509F475C048F48932FD
:100A4000910509F469C08A32910509F473C00895CB
:100A50008533910509F459C08933910501F1089551
:100A6000833E9105A9F138F4803E9105F9F0823E6C
:100A7000910549F10895863E9105A9F1873E9105BA
:100A8000C9F1843E910519F52091F50121FF1FC0A0
:100A90008091F40184FD14C087EE90E008952091C8
:100AA000F4012370A1F080EE90E008952091F4010C
:100AB00020FD47C03091F50130FF09C024FF44C03C
:100AC00090E080E004C02091F40122FDF7CF08956A
:100AD0002091F40122FD3BC03091F50130FDE3CFC0
:100AE00024FFF5CFEDCF2091F40123FFF0CF24FDBB
:100AF000E7CFD2CF2091F40123FD2CC03091F50136
:100B000031FFEECF84EE90E008952091F40125FFAF
:100B1000DECF89E290E008952091F40125FFD7CF40
:100B200085E390E008952091F40126FFD0CF8AE27A
:100B300090E008952091F40126FFC9CF81E390E071
:100B4000089589E390E0089583EE90E0089582EEA1
:100B500090E0089586EE90E008959091F40192FF60
:100B600006C0282F28712830F9F4877F846093FF0E
:100B700006C0282F28712831F1F4877E84612091E6
:100B8000F50120FF06C0382F38713830D9F4877F3F
:100B9000816021FF06C0282F28712831D1F4877E7B
:100BA000816194FD877E0895282F24712430F9F601
:100BB0008B7F8860DCCF282F2471243101F78B7E56
:100BC0008861DDCF382F3171313019F78E7F886021
:100BD000E0CF282F2171213121F78E7E8861E1CF6E
:100BE00008950C94F00508950C94F305E82FF0E0B7
:100BF000EA51FE4F80810895CF92DF92EF92FF92EB
:100C00000F931F93CF93DF9389E992E00E94A30291
:100C100086EEE82E81E0F82ED0E0C0E094E9C92EFF
:100C200092E0D92E0CE812E0DF93CF93DF92CF92BF
:100C30000E943C0381E992E00E94A302F7018191A6
:100C40007F010E94A9151F928F931F930F930E94FB
:100C50003C038AE892E00E94A30221968DB79EB7DA
:100C600008960FB6F8949EBF0FBE8DBFC830D10551
:100C7000D9F6DF91CF911F910F91FF90EF90DF9008
:100C8000CF90089580EA8A95F1F7089508950E941B
:100C9000A107809100018091000194E0811190E012
:100CA0009093EF0184E0891B8093EE01A1E2B1E013
:100CB00061E070E08D91E82FE295EF70F0E041A1E6
:100CC0008F709B0101C0220F8A95EAF7922F9095B1
:100CD000942391A382A1822B82A381E0A532B8073D
:100CE00049F7ACE1B1E061E070E08D91E82FE29569
:100CF000EF70F0E041A18F709B0101C0220F8A9537
:100D0000EAF7922F9095942391A382A1822B82A33C
:100D100081E0A132B80749F7EEEDF1E0A6EEB1E0CF
:100D200086EE91E011921D928E179F07D9F784E00D
:100D30000E944C070E94AF030C94AB070E948307EC
:100D40008823F1F08091EE0190E08A519E4F0E943D
:100D5000BE07811112C080913A018F5F80933A01E2
:100D6000863048F0E091EE01F0E0EA51FE4F10824B
:100D70001182128213820C94B70310923A01FBCFB6
:100D80008091EF0190E08A519E4F0E94D7070C940A
:100D900046068F929F92AF92BF92CF92DF92EF92D0
:100DA000FF920F931F93CF93DF9381E2A82E81E0F0
:100DB000B82E0EED11E0912CCC24C394D12CF5016A
:100DC00081915F01C82FC295CF70D0E099A18F703B
:100DD000760101C0EE0C8A95EAF7892F8E2989A346
:100DE0008AA18E2C809488218AA30E944206ECE17D
:100DF000F1E050E040E020E03191A32FA295AF70E8
:100E0000B0E090968C9190E03F7002C095958795E8
:100E10003A95E2F780FD3CC08C2D042E01C0880F6E
:100E20000A94EAF7282B4F5F5F4F4530510521F7B1
:100E300089A1882289A28AA1E82AEAA2F8018081F0
:100E4000281741F1208381E0982A0F5F1F4FF5E2B8
:100E5000AF16F1E0BF0609F0B2CF6091EF0170E08C
:100E60006A517E4F292D44E08EED91E00E944D079E
:100E70000E949E06892DDF91CF911F910F91FF90C7
:100E8000EF90DF90CF90BF90AF909F908F9008959C
:100E900080E0C8CF80E0D8CF0895FF920F931F93D2
:100EA000CF93DF93F82E092F162FD72FC42F22238D
:100EB00049F081E080933D010E943C1790933C01F2
:100EC00080933B0180913D018823A1F080913B01FB
:100ED00090913C010E944817069760F0EF2DF02F8B
:100EE000A12FBD2FCE0FDF2FD11DEC17FD0741F431
:100EF00010923D01DF91CF911F910F91FF900895C6
:100F000081918D93F2CF80913E01811111C080912A
:100F1000D80080618093D8008AE18A95F1F700C0FB
:100F20009091D900892F817090FF82E080933E01DB
:100F300081E090913E01913009F080E008950C9499
:100F400083070E949F07809300010E9483078111FD
:100F50000C94B20708950E948307811102C00C947B
:100F6000B807089561E070E081E091E00C946F0AA9
:100F700061E070E081E091E00C94760ACF93DF931A
:100F8000D82FC92F0E94100B009779F4ED2FFC2F5A
:100F9000DC01A05CBE4F2C91219301968430910519
:100FA000B9F781E0DF91CF91089580E0FBCF30E089
:100FB00020E0FC014191CF01F901E05CFE4F40834C
:100FC0002F5F3F4F24303105A1F70895AF92BF92B4
:100FD000CF92DF92EF92FF920F931F93CF93DF9305
:100FE0007C015B01C42FD22FFC0182818823F9F0A0
:100FF000409346010E943C17909345018093440121
:1010000080E28C0F883008F061C0C77081E001C0B9
:10101000880FCA95EAF7DF91CF911F910F91FF904A
:10102000EF90DF90CF90BF90AF900C94750D109122
:101030004601141340C080914401909145010E94E3
:1010400048176C01B701C5010E946B12C816D9067A
:1010500090F5C0E2CD0F1D17B9F080E2810F883006
:1010600040F4177081E001C0880F1A95EAF70E94DA
:101070007C0DC83048F481E09D2F977001C0880F27
:101080009A95EAF70E94750D802F0E94620DC83074
:10109000E8F4D77081E001C0880FDA95EAF7DF91B4
:1010A000CF911F910F91FF90EF90DF90CF90BF9065
:1010B000AF900C947C0D80E28C0F883038F4C770B0
:1010C00081E001C0880FCA95EAF7E9CFDF91CF919F
:1010D0001F910F91FF90EF90DF90CF90BF90AF9056
:1010E00008950F939C01CB01233F4CE5340759F140
:1010F000A8F4283DFCE53F0701F1293D4CE5340704
:10110000D1F1273D3C4591F406E221EE41EE67ED39
:101110007CE50E94E60780E00F910895253FFCE5FD
:101120003F07E9F0B0F0263F3C45F9F0FC01828131
:10113000882339F110924601EFCF07E225EE45EE04
:1011400068ED7CE5E6CF06E221EE40EE63EF7CE55C
:10115000E0CF07E225EE44EE64EF7CE5DACF06E26D
:1011600021EE42EE65EF7CE5D4CF07E225EE46EEB8
:1011700066EF7CE5CECF08E221E045EE69ED7CE547
:10118000C8CF81E0C9CFCF93DF93EC01FB0182810F
:10119000882309F419C1C230FCE5DF07C0F1C6316C
:1011A0009CE5D90730F09E012A5F3C452930310586
:1011B00070F50E94D4159093F5018093F401C0312D
:1011C000ECE5DE0709F4CFC008F05BC0C8308CE561
:1011D000D80709F4B6C088F5C430ECE5DE0709F499
:1011E000A8C0C0F4C2308CE5D80709F49CC0809137
:1011F000F4018260C330DC4509F498C08091F401A9
:101200009091F5010E94E2150E94B90F80E0DF91F4
:10121000CF9108958091F4018061C630ECE5DE073E
:1012200009F484C08091F4018860C730DC4508F47B
:101230007DC08091F401806279C0CC308CE5D80704
:1012400009F489C070F48091F4018C60CA30ECE537
:10125000DE0709F46BC008F478C08091F4018E7F3A
:1012600065C0CE308CE5D80709F479C08091F401CF
:101270008B7FCF30DC4508F459C08091F4018F7E1C
:1012800055C0CB3FECE5DE0709F457C030F5C3315C
:101290008CE5D80709F46FC078F4C131ECE5DE07BE
:1012A00009F465C0C231DC4509F0A8CF0E94B90F2E
:1012B0008091F4018F773AC0C5318CE5D80709F4E5
:1012C00062C008F476C08091F5018160CA3FDC45B8
:1012D00009F094CF8093F50191CFCF3FFCE5DF0774
:1012E00009F44DC088F48091F5018D7FCD3F9CE5D8
:1012F000D90781F38091F5018E7FCE3FDC4550F315
:101300008091F5018360E6CFC130FDE5DF0709F488
:1013100059C008F444C080E0C230DD4509F06ECF0A
:101320000E9460166BCF8091F40181608093F4017C
:1013300065CF8091F4018460F9CF8091F5018260DE
:10134000C9CF8091F4018064F1CF0E94B90F8091E0
:10135000F4018068EBCF8091F4018D7FE7CF80911D
:10136000F401877FE3CF8091F4018F7DDFCF8091FF
:10137000F4018F7BDBCF8091F401837FD7CF809105
:10138000F5018C7FA7CF8091F40182FB992790F91A
:1013900021E0922790FB82F990FB83F9C7CF8091DF
:1013A000F501982F909591708E7F892B90FB81F994
:1013B00091CF0E94B90F9091F401892F97FB87F983
:1013C0008058B4CF81E0ACCF81E021CFCF93DF93C1
:1013D000EB0186319C4511F50E9402159A819923F3
:1013E00099F08A7A91E009F490E090934701811195
:1013F00009C089E20E94DD140E94411580E0DF915E
:10140000CF91089585E3F6CF80914701811104C003
:1014100089E20E94E414F0CF85E3FBCF81E0EFCFB7
:101420008EE1489B02C08150E1F7489BFECF0895B2
:10143000589880E28A95F1F7589A0895FC013BE0AC
:101440003A95F1F798E020E080E031E040E14A95FC
:10145000F1F7880F489B02C08160232742E04A953C
:10146000F1F7000040E14A95F1F7915079F790E1EA
:101470009A95F1F799B132E03A95F1F7000040E121
:101480004A95F1F7917092272081920F90830895E9
:10149000EF92FF920F931F93CF93DF930F92CDB7ED
:1014A000DEB719828C017C01E60EF11C0E151F05BA
:1014B00061F481E09981911180E00F90DF91CF91EB
:1014C0001F910F91FF90EF9008950E94100ACE0196
:1014D00001960E941E0AF80181938F01E7CF909335
:1014E000490180934801509A589A08959093490170
:1014F000809348015098589AE89AE9E6F0E0808194
:101500008C7F808308956150770B91E001C0990F23
:101510006A95EAF720E031E0911108C0222391F0AA
:10152000589A80E28A95F1F758980895492F4823F0
:1015300039F0589A232740E24A95F1F79695ECCF77
:101540005898F9CF5898EDCFFF920F931F93CF93F0
:10155000DF93EC018C01060F111DC017D10731F488
:10156000DF91CF911F910F91FF900895F9900E9404
:10157000180A68E08F2D0E94830AEFCF1F920F9206
:101580000FB60F9211242F933F934F935F936F9356
:101590007F938F939F93AF93BF93CF93DF93EF93FB
:1015A000FF935898509AC0914801D09149016D819C
:1015B000662321F08E819F810E94A40A0E94180A4E
:1015C00080E18A95F1F758985098589A80E18A9569
:1015D000F1F76A81662309F18B819C810E94480A98
:1015E000E881F981882311F088E001C082E08083DE
:1015F0000E94100AFF91EF91DF91CF91BF91AF91BF
:101600009F918F917F916F915F914F913F912F911A
:101610000F900FBE0F901F901895E881F981E4CFCD
:10162000CF93DF93C0914801D0914901F894509A2B
:10163000589885E08A95F1F700005098589A80E212
:101640008A95F1F7489B0CC0509A589AE881F98125
:1016500081E08083789481E090E0DF91CF910895DC
:101660006D81662381F08E819F810E94480A8111DD
:101670000AC0509A589AE881F98182E08083789470
:1016800082E090E0EACF0E94100A80E28A95F1F7AA
:101690005898509A80E18A95F1F76A81662321F083
:1016A0008B819C810E94A40A0E94180AE881F9811A
:1016B0001082789490E080E0D0CF90934F01809397
:1016C0004E010895E0914E01F0914F01309721F0C5
:1016D0000190F081E02D099480E00895EF92FF924F
:1016E0000F931F93CF93DF938C01E0914E01F09104
:1016F0004F013097C1F10280F381E02D099580916F
:10170000C00182FF30C080FF04C080EB92E00E94E5
:10171000A302D0E0C0E08AEAE82E82E0F82E8091B1
:10172000C00180FF0EC0F801EC0FFD1F80811F92E9
:101730008F93FF92EF920E943C030F900F900F90B7
:101740000F902196C830D10551F78091C00180FFDC
:101750000AC088EA92E0DF91CF911F910F91FF902C
:10176000EF900C94A302DF91CF911F910F91FF9006
:10177000EF900895E0914E01F0914F01309739F0CC
:1017800022E0DC012C930480F581E02D099408957A
:1017900020914C0130914D012817390771F0909339
:1017A0004D0180934C01E0914E01F0914F01309733
:1017B00021F00680F781E02D0994089520914A01D7
:1017C00030914B012817390771F090934B018093AA
:1017D0004A01E0914E01F0914F01309721F00084D1
:1017E000F185E02D0994089585B7806885BF85B798
:1017F000806885BF0895089508950C94FB0B0895A3
:101800000C94FF0B0E94F40B0E94FC0B0C94FD0B3C
:101810000C9483070E9433170E9447060E948C177E
:101820000C94000CCF93C82F8091C00182FF1EC082
:1018300080FF1CC089EC92E00E94A3028091C0014D
:1018400080FF14C01F92CF9384EC92E09F938F93FC
:101850000E943C038091C0010F900F900F900F9059
:1018600080FF04C082EC92E00E94A3028C2FCF91F3
:101870000C94C003BF92CF92DF92EF92FF920F932E
:101880001F93CF93DF93CDB7DEB72A970FB6F894A7
:10189000DEBF0FBECDBF0E94C9060E94080C882380
:1018A00009F45EC081E5C82E81E0D82E10E000E08A
:1018B000B02E802F0E94F605E82EF601F1906F0100
:1018C000F81609F447C08091C00181FD0E94FC0513
:1018D0009F2D9E2580E0FF24F394292F2F21B1F125
:1018E0008E83BF82EF2081E009F480E088870E9428
:1018F0003C178160782F9A8789874E815F81688540
:101900008A850E94D10CF801EF5AFE4F8081F8269B
:10191000F0820E94B9190E94620B909150018917C0
:1019200081F10E94620B809350012A960FB6F894C1
:10193000DEBF0FBECDBFDF91CF911F910F91FF9002
:10194000EF90DF90CF90BF900C94120C8F5FFF0C44
:10195000853019F60F5F1F4F0830110509F0A8CF29
:101960008FEF89838A831B820E943C178160782FC6
:101970009D838C8349815A816B818D810E94D10C1A
:10198000C8CF2A960FB6F894DEBF0FBECDBFDF9149
:10199000CF911F910F91FF90EF90DF90CF90BF906C
:1019A0000895CF93DF93CDB7DEB72B970FB6F8949A
:1019B000DEBF0FBECDBF4F83588769877A878B877D
:1019C0001E821D8285E0FE013796DE011196019090
:1019D0000D928A95E1F749815A816B817C818D81D5
:1019E0009E812B960FB6F894DEBF0FBECDBFDF9160
:1019F000CF910C946E12FC01808191810C94AF14F4
:101A0000CF93C82F882369F18CEF8C0F813AA0F413
:101A10006C2F8091090190910A010E94771688230A
:101A200029F08C2F0E94E4140E9441158C2F0E94F3
:101A3000DD14CF910C94411580E28C0F883048F46E
:101A4000C77081E001C0880FCA95EAF70E940515AA
:101A5000F0CFC03F30F08C2F0E943118CF910C9402
:101A60001C19CF910895882361F19CEF980F913A4A
:101A700020F40E94E4140C94411590E2980F9830E1
:101A800050F4877091E001C0990F8A95EAF7892F89
:101A90000E940B15F0CF9BE5980F933020F490E057
:101AA00080E00C94C80B98E5980F973120F490E0F3
:101AB00080E00C94DE0B803F20F00E9499180C947B
:101AC0001C190895CF93C82F0E94000DC93349F403
:101AD0002FEF87EE93E0215080409040E1F700C067
:101AE00000008C2FCF910C94330D882321F00E949D
:101AF00005150C9441150895882321F00E940B15BB
:101B00000C9441150895BF92CF92DF92EF92FF920D
:101B10000F931F93CF93DF937C01D62FC72FFC0128
:101B2000058102950F70128111110E9422150E94E9
:101B3000FB14D82E882391F01123E9F08C2F807F9D
:101B4000803421F080E28D0F8830A8F082E00E947E
:101B50008C150E94FB1491E0D82ED926CC2EC2946D
:101B60009FE0C922FBE0FC15A8F1EC2DF0E0EC575A
:101B7000FD4D0C942622D12CF1CF0C2F0F70C07F7D
:101B800011F00295007F1123A9F0002359F080E2A3
:101B90008D0F883010F0D11109C0802F0E940515DB
:101BA0000E9441158D2F0E94000D14C0802F0E94AD
:101BB0001515F6CF8D2F0E94330D002359F080E2CA
:101BC0008D0F883010F0D1112BC0802F0E940B1583
:101BD0000E944115EC2DE850FF0B349720F40E9431
:101BE000620B0E94C003DD2009F46CC10E94F7144F
:101BF00080FD68C1F70112820E94F1140E947A13DD
:101C0000C7010E94830F0E94F114DF91CF911F91B1
:101C10000F91FF90EF90DF90CF90BF900C949B13AB
:101C2000802F0E941B15D4CF2C2F2F70B22EC07F77
:101C3000C03219F0B29480EFB822DD2339F0D130F0
:101C400019F1112361F1002321F1ACCF112381F0AF
:101C5000011106C00E9428158B290E94750DBACF6C
:101C60000130C1F70E9428158B290E942E15B2CF92
:101C7000011106C00E9437158B2D0E947C0DAACF42
:101C8000013009F4A7CFF6CF112329F0063008F070
:101C9000A1CF8B2DE2CF053008F09CCFEDCF0023F4
:101CA00059F3D93349F43FEF87EE93E03150804048
:101CB0009040E1F700C000008D2F0E94330D8ACFC5
:101CC0008D2F112329F00E9431180E941C1982CFF8
:101CD0000E949918FACF8C2F837009F041C011111E
:101CE00079CF4D2F429546954770440F440F0D2FE5
:101CF0000F7010E030E020E0042E04C0000F111F30
:101D0000221F331F0A94D2F760E070E0CB01D4FFAA
:101D10000FC06FE070E080E090E004C0660F771FB6
:101D2000881F991F4A95D2F7609570958095909578
:101D3000C695C695C370602B712B822B932BC23036
:101D400049F058F4C13019F00E942C1343CF0E947F
:101D50001A1340CF0E943E133DCF0E9418133ACF72
:101D60008695112311F08C2F8170882309F432CFCE
:101D70004D2F429546954770440F440F0D2F0F701D
:101D800010E030E020E0042E04C0000F111F221FDD
:101D9000331F0A94D2F760E070E0CB01D4FF0FC08C
:101DA0006FE070E080E090E004C0660F771F881F4E
:101DB000991F4A95D2F76095709580959095C69534
:101DC000C695C370602B712B822B932BC23049F0C8
:101DD00058F4C13019F00E94F113FCCE0E94DF13B9
:101DE000F9CE0E940314F6CE0E945413F3CECF70A6
:101DF000112329F08C2F0E947A138D2F2ECF8D2F37
:101E00000E947C0D8C2F0E949B13E4CED23F89F15F
:101E100060F4D03FC9F0D13F29F1112309F442C049
:101E20000111C0CE8C2F8F7121C0D33F39F1D43F27
:101E3000A1F7112369F1CF718C2F0E947A1363E00F
:101E40008C2F0E947715C6CE112341F0053008F083
:101E5000C1CE8C2F8F710E94BE13BCCE063008F00D
:101E6000B9CEF7CF8C2F8F71112369F20E947A13AC
:101E7000B1CE8C2F8F711123C9F3C5CF112329F057
:101E80008C2F8F710E946513A5CE0E946013A2CE85
:101E900081E00E948C15023008F49CCE82E00E9402
:101EA0008C1598CE002359F0D93309F005CFEFEF08
:101EB000F7EE23E0E150F0402040E1F7FBCE8C2F1D
:101EC0008F71A1CFDF91CF911F910F91FF90EF9074
:101ED000DF90CF90BF9008950F931F93CF93DF9320
:101EE000EC01688179818A810E94B9148C010E9479
:101EF00015140E941713B801CE01DF91CF911F91E5
:101F00000F910C94830DCF93DF93EC018B819C8117
:101F1000892B29F08881998189238F3F59F4DF919A
:101F2000CF910895CE010E946C0FCE01DF91CF9129
:101F30000C94A403CE010E94D8038111F3CF0E9418
:101F4000FB14882361F38A81882349F382E0DF91BF
:101F5000CF910C948C150E9422150E9425150E9489
:101F600041150E94C51A0C941C190E94EB140C9484
:101F7000AB0F0E9412150C94B50FE92FE295EF708C
:101F8000E250EE3070F4F0E0E057FD4D0C94262264
:101F9000803F19F020F4883E20F481E00895843FCA
:101FA000E1F380E00895883EC0F3813FD1F7F5CF9B
:101FB00093FB882780F908950E94AF140C94BD0FFD
:101FC000CF93DF9300D000D00F92CDB7DEB70F9044
:101FD0000F900F900F900F90DF91CF910895CF93B6
:101FE000DF9300D000D000D0CDB7DEB726960FB675
:101FF000F894DEBF0FBECDBFDF91CF9108951F9340
:10200000CF93DF93C0915A0116E080915B018C134E
:1020100004C0DF91CF911F910895D0E01C9FF00183
:102020001D9FF00D1124E45AFE4F408151816281C1
:102030007381848195810E94EF0F2196C770E5CF4F
:1020400040918C0150918D0160918E0170918F01B2
:1020500080919001909191010C94EF0F20915A0181
:1020600090915B0156E0291302C080E0089530E0B2
:10207000529FF001539FF00D1124E45AFE4F7181DD
:10208000761306C07081781303C07281741304C084
:102090002F5F3F4F2770E7CF81E008951F93CF93C5
:1020A000DF9380919101807FA9F480918E01882334
:1020B00089F080915A01C0915B0160918C0170910F
:1020C0008D01A0918F01B0919001D62FD72316E0FA
:1020D000C81304C0DF91CF911F91089590E010972D
:1020E00011F0DF3F19F401968770F2CF189F90012D
:1020F000199F300D1124F901E45AFE4F4181471315
:10210000F2CF40814613EFCF42814111ECCF4381A2
:1021100054814A1B5B0B483C510528F78091910183
:102120008F70806180939101F901EF59FE4F80819A
:102130008F70806180838CE891E00E94830FDF9133
:10214000CF911F910C94FF0F8F929F92AF92BF92ED
:10215000CF92DF92EF92FF920F931F93CF93DF9373
:10216000CDB7DEB761970FB6F894DEBF0FBECDBF17
:102170008C0185E0F801DE011D9601900D928A9593
:10218000E1F7D801EC901196FC9011971296CC9043
:1021900012978CE8A82E81E0B82E40918F015091C3
:1021A00090014115510509F474C190918C01209161
:1021B0008D01892F82238F3F09F46BC113968D9077
:1021C0009C901497D0908E01F401E41BF50BDD2058
:1021D00009F40AC180919101382F307FE83CF10564
:1021E00008F0C1C0311189C0DC2C2F1126C09E110E
:1021F00024C0C11022C08F708061809391010E9421
:102200002010C5010E94830F80919101D80115967D
:102210008C938D2D61960FB6F894DEBF0FBECDBFA7
:10222000DF91CF911F910F91FF90EF90DF90CF90B2
:10223000BF90AF909F908F9008958114910429F0E2
:102240008F2D8E218F3F09F043C180E080FF15C0A4
:102250004C2D6F2D8E2D0E942E10882371F08CE84E
:1022600091E00E94830F86E0ECE8F1E0DF011D922F
:102270008A95E9F70E9420103EC0892829F08F2D09
:102280008E218F3F09F021C180E0B82FB170AB2EB5
:1022900080FF29C04C2D6F2D8E2D0E942E10B82E40
:1022A000811121C0ED86FE868D859E850E94AF142A
:1022B000292F22952F70223050F0243078F49F700F
:1022C00051F0F8019581907F31F4DB2CA2CF9F7003
:1022D00011F08823D1F3805E8830B8F3C8010E94E2
:1022E000830FBA2CF2CFCC2009F493CF80919101C7
:1022F000816080939101D12C8CCF2F1105C09E114C
:1023000003C0CC2009F48DC0ED86FE868D859E85A8
:102310000E94DC0F882319F1CC2009F180919101F2
:10232000803270F020918C0130918D0138872F839D
:1023300019869B868A868C87CE0107960E94830F1A
:1023400086E0F801ACE8B1E001900D928A95E1F7E2
:102350000E944E100E942010DD24D3945ACFC80151
:102360000E94830FF9CF311112C0782D998A888A83
:10237000A7016C2D89890E94E00F8CE891E00E94F2
:10238000830F86E0F50111928A95E9F773CF2F113B
:102390000FC09E110DC0C1100BC015968C93C801C3
:1023A0000E94830F86E0F50111928A95E9F731CFFB
:1023B000ED86FE868D859E850E94DC0F882379F24E
:1023C000CC2069F280919101803208F4B9CF20913C
:1023D0008C0130918D013A8329831B829D828C82EE
:1023E0008E83CE010196AACFE83CF10508F043C0E8
:1023F000DC2CCC2009F4B3CF2F112CC09E112AC0A5
:102400008091910180FD1DC0982F907FD1F015968D
:102410008C931597903F39F0982F907F905F8F7035
:10242000892B15968C93C8010E94830F86E0F801D2
:10243000ACE8B1E001900D928A95E1F70E9420107E
:10244000E8CE86E0F801ACE8B1E001900D928A9503
:10245000E1F7DFCEED86FE868D859E850E94DC0F3E
:1024600081116ECF80919101816080939101C801AB
:102470000E94830FCECE782D998A888AA7016C2D71
:1024800089890E94E00F86E0F50111928A95E9F7AB
:10249000D5CFCC2009F463CFED86FE868D859E8551
:1024A0000E94DC0FD82E882309F459CF86E0F8016A
:1024B000ACE8B1E001900D928A95E1F78CE891E0EB
:1024C0000E94FB0C0E944E10B9CF81E08C25DDCE1E
:1024D00081E08C25BBCE88EC90E008951F93CF93CC
:1024E000DF93CDB7DEB72C970FB6F894DEBF0FBEE3
:1024F000CDBF4F83588769877A878B879C87CE01AA
:1025000007960E94A410882369F08A859B85892BF1
:1025100039F04F815885842F85238F3F09F071C092
:1025200016E05FC086E0FE013796DE01119601904D
:102530000D928A95E1F78A859B85892B89F38F8196
:10254000988589238F3F61F320915B0130E0C901B9
:1025500001968770992740915A014817190671F41E
:102560000E94B90F10925B0110925A0186E0ECE8CC
:10257000F1E0DF011D928A95E9F7D2CF96E0929FB4
:10258000D001939FB00D1124A45ABE4FFE01319685
:1025900001900D929A95E1F780935B010E94FF0FE5
:1025A000BFCF819FC0011124845A9E4F0E94A41066
:1025B0008823E9F0E0915A011E9FF0011124E45AAA
:1025C000FE4F4081518162817381848195810E9497
:1025D000EF0F80915A0190E00196877099278093C0
:1025E0005A0180915A0190915B018913DACF2C96A0
:1025F0000FB6F894DEBF0FBECDBFDF91CF911F9114
:10260000089569857A858B859C850E94EF0F88CF18
:1026100008950C9408130E9409136093AF017093FE
:10262000B0018093B1019093B2010C94AB0F089567
:102630000C940B130F931F930091AF011091B001F5
:102640002091B1013091B201602B712B822B932B21
:102650001F910F910C940B130F931F930091AF01D7
:102660001091B0012091B1013091B201602371232A
:10267000822393231F910F910C940B130F931F939D
:102680000091AF011091B0012091B1013091B201E0
:1026900060277127822793271F910F910C940B13AA
:1026A0000C9408130C9450130E9452136093AB01C6
:1026B0007093AC018093AD019093AE010C94AB0F7D
:1026C00060E070E0CB010C9454130F931F9341E032
:1026D00050E060E070E08A019B0104C0000F111F10
:1026E000221F331F8A95D2F7C901B8011F910F919C
:1026F0000C9454130F931F9341E050E060E070E09E
:1027000004C0440F551F661F771F8A95D2F780912A
:10271000AB019091AC01A091AD01B091AE018A01E5
:102720009B01082B192B2A2B3B2BC901B8011F91A8
:102730000F910C9454130F931F9341E050E060E00D
:1027400070E004C0440F551F661F771F8A95D2F7AB
:10275000CB01BA0160957095809590950091AB0181
:102760001091AC012091AD013091AE016023712335
:10277000822393231F910F910C9454130F931F9353
:1027800041E050E060E070E004C0440F551F661F58
:10279000771F8A95D2F78091AB019091AC01A091FF
:1027A000AD01B091AE018A019B01082719272A27A4
:1027B0003B27C901B8011F910F910C9454130F933B
:1027C0001F930091AB011091AC012091AD013091AC
:1027D000AE01602B712B822B932B1F910F910C94C8
:1027E00054130F931F930091AB011091AC012091F2
:1027F000AD013091AE0160237123822393231F9199
:102800000F910C9454130F931F930091AB011091EF
:10281000AC012091AD013091AE0160277127822774
:1028200093271F910F910C9454130895E92FEE0FE5
:10283000EE0F9E0F890F982F977041E001C0440F53
:102840009A95EAF786958695869595E0899FF00199
:102850001124EE56FE4F30E020E070E05191DF0190
:102860001197CB01022E02C0969587950A94E2F744
:10287000817081958527842385278C932F5F3F4F17
:102880002530310559F70895E92FEE0FEE0F9E0F11
:10289000890F982F977086958695869525E0829F5B
:1028A000F0011124EE56FE4F50E040E080E021910F
:1028B00030E0092E02C0369527950A94E2F7217080
:1028C0003327042E01C0220F0A94EAF7822B4F5FB0
:1028D0005F4F4530510559F70895BF92CF92DF926F
:1028E000EF92FF920F931F93CF93DF938C01C090D1
:1028F000AB01D090AC01E090AD01F090AE018091C1
:10290000AF019091B001A091B101B091B201C82A7C
:10291000D92AEA2AFB2ACFE1D0E0BC2ED701C60192
:102920000C2E04C0B695A795979587950A94D2F773
:1029300080FD0EC0219788F7B12C8B2DDF91CF91B0
:102940001F910F91FF90EF90DF90CF90BF9008956F
:10295000B8018C2F0E943E04019761F3EECFCF9314
:10296000DF93EC010E946D14BE01DF91CF910C94B6
:102970003E041F93CF93DF93EB019091590199236C
:1029800031F0CB01DF91CF911F910C94AF148823CC
:1029900079F0CB010E946D14182F682FCE010E9490
:1029A0001614BE01812FDF91CF911F910C943E042C
:1029B000CB010E944414182FF4CF682F8091090195
:1029C00090910A010C94AD16682F809109019091A5
:1029D0000A010C94AF168091090190910A010C94A0
:1029E000B1168091B301859585958595089580915F
:1029F000B301877008959091B301977081E009F455
:102A000080E008958091BF0108959091BF01892BC6
:102A10008093BF01089580959091BF019823909372
:102A2000BF0108951092BF0108959091BE01892BB6
:102A30008093BE01089580959091BE019823909354
:102A4000BE0108951092BE0108951092BD0108952F
:102A50008091B401089508950C942B159091B401C0
:102A6000981721F08093B4010C942C15089580914F
:102A7000B401882329F01092B40180E00C942C1545
:102A80000895E0910901F0910A018091BF018083CE
:102A9000E0910901F0910A0180819091BE01892B9A
:102AA0008083E0910901F0910A0180819091BD013C
:102AB000892B80839091B401992381F0E0910901E1
:102AC000F0910A018081892B808380910901909186
:102AD0000A010E94651681110E9437158091090133
:102AE00090910A010C946E0B08950C94741598E063
:102AF000899F90011124622B6093B3010E947A1385
:102B00008091B3018595859585950C9475151092E6
:102B1000B30180E00C9475159091B30180958923E1
:102B20008093B301282F277071F4282F082E000CF2
:102B3000330B9217130639F08595859585950E947C
:102B40009B130C9487150895909339018093380155
:102B50000895829590E09C01220F331F220F331FAE
:102B60002C7C95958795959587958373282B30E0D8
:102B7000C901880F991F8A7A359527952575822B6B
:102B8000089590E080E00E94482221E08C3E9E4F14
:102B900009F020E0822F089582E090E00C9440221A
:102BA00083E090E00C944022CF9384E090E00E9478
:102BB0004022C82F81E290E00E944022982F8C2F63
:102BC000CF910895CF93C92F682F84E090E00E94A1
:102BD0004E226C2F81E290E0CF910C944E22AB01FB
:102BE000BC018FE090E00C946022AB01BC0183E15A
:102BF00090E00C94602260E070E0CB010C94F5153D
:102C000060E070E0CB010E94EF150C94FB156CEEB8
:102C10007EEF90E080E00E946C2260E082E090E035
:102C20000E944E2260E083E090E00E944E221092CB
:102C3000AF011092B0011092B1011092B20160E0A8
:102C400084E090E00E944E2260E081E290E00E94E9
:102C50004E2260E085E090E00E944E2260E086E037
:102C600090E00E944E226FEF87E090E00E944E229B
:102C700040E050E0BA0188E090E00E94602260E00D
:102C80008DE090E00E944E2240E050E0BA0188E1E1
:102C900090E00E94602260E087E190E00E944E2276
:102CA00040E050E0BA018CE190E00E94602260E0D8
:102CB00080E290E00E944E220C9400160C940716BD
:102CC000682F8EE090E00C944E229C012E5F3F4FC7
:102CD000AC01485F5F4F80E02417350709F4089581
:102CE000F90191919F019923B9F38F5FF5CF662385
:102CF00049F0FC01329608962191261729F0E81731
:102D0000F907D1F780E0089581E008959C01FC0166
:102D100032969FEF80E04191461751F09F3F19F4A2
:102D2000411101C0982F8F5F8630A9F79F3F09F4AA
:102D30000895290F311D97FD3A95F9016283089591
:102D4000FC01329608962191261303C0DF011197EA
:102D50001C92E817F907B9F708950C9486160C949D
:102D6000A016029626E0FC0111922A95E9F7089533
:102D7000089508950C94B9160E94BA168091FA012C
:102D8000843049F11092C10188E190E020E40FB64F
:102D9000F894A895809360000FBE2093600080E0B7
:102DA0000E94C0030E94BA1683B7817F846083BFEC
:102DB00083B7816083BF7894889583B78E7F83BF04
:102DC0000FB6F894A89580916000886180936000A8
:102DD000109260000FBE08950895CF930E94B81618
:102DE0000E94C9060E94EC16C0E08C2F0E94F605D6
:102DF000811105C0CF5FC830C1F7CF91089581E040
:102E0000FCCF08950C9401170E94B90F0E94620B29
:102E10000E94C0030C9402171F921FB61F92112428
:102E20008F939F93AF93BF938091C101811113C082
:102E30008091F0019091F101A091F201B091F30124
:102E40004196A11DB11D8093F0019093F101A093D3
:102E5000F201B093F301BF91AF919F918F911F90B9
:102E60001FBE1F90189582E084BD93E095BD9AEF38
:102E700097BD80936E0008952FB7F8948091F0016C
:102E80009091F101A091F201B091F3012FBF08954B
:102E90009C014FB7F8948091F0019091F101A091BD
:102EA000F201B091F3014FBF821B930B0895789408
:102EB0001F921FB61F9211248F939F93AF93BF93BE
:102EC0008091F0019091F101A091F201B091F30194
:102ED0000196A11DB11D8093F0019093F101A09383
:102EE000F201B093F301BF91AF919F918F911F9029
:102EF0001FBE1F90189587E797E79093010880936E
:102F0000000888E19AE00FB6F894A89580936000D5
:102F10000FBE90936000FFCF0E94C115811102C0C7
:102F20000E945E160E94CC158093C0010E94D415A9
:102F30009093F5018093F4010E94D015682F70E002
:102F400090E080E00E9418136091AB017091AC0199
:102F50008091AD019091AE010C9452138091CA0101
:102F600080FF12C060910F0185E0689FB0011124BD
:102F7000759567957595679560387105A8F5611524
:102F80007105A1F1862F089581FF09C060910F019D
:102F900085E0689FB001112475956795EDCF60912C
:102FA0000F0182FD0AC08091C9018823D1F0909160
:102FB0000E0160910F01891728F085E0689FB0012C
:102FC0001124DACF869FB001112485E0869F9001FD
:102FD000879F300D1124692F70E0C9010E941222D1
:102FE000CBCF65E070E0CECF8FE7089581E0089504
:102FF0008091CA0180FF0CC060910C0170E0759552
:103000006795759567956115710549F1862F089546
:1030100081FF06C060910C0170E075956795F3CF54
:1030200060910C0182FD0BC09091C8019923A1F021
:1030300060910B0180910C01961738F0682F70E0B9
:103040006038710500F38FE70895899FC00111244E
:1030500070E00E941222F4CF61E070E0D7CF81E0EF
:103060000895803F31F40E94AE1781958093CE0180
:103070000895813F19F40E94AE17F8CF823F31F4D2
:103080000E94AE1781958093CD010895833F19F476
:103090000E94AE17F8CF893F29F40E94F817809359
:1030A000CF0108958A3F21F40E94F8178195F7CF48
:1030B0008B3F31F40E94F81781958093D0010895D9
:1030C0008C3F19F40E94F817F8CF843F31F48091B7
:1030D000CC0181608093CC010895853F21F48091DB
:1030E000CC018260F7CF863F21F48091CC018460CF
:1030F000F1CF873F21F48091CC018860EBCF883FEE
:1031000021F48091CC018061E5CF8D3F31F4809135
:10311000CA0181608093CA0108958E3F21F4809195
:10312000CA018260F7CF8F3FB9F78091CA018460EE
:10313000F1CF9091CD01803F59F48091CE0187FF6E
:103140000DC01092CE0191110BC01092C90108C0A0
:10315000813F81F48091CE0118169CF3992381F070
:103160008091CF019091D001892B09F064C0109219
:10317000C8010895823F49F497FFF0CF1092CD0126
:103180008091CE018111ECCFE0CF833F19F4191665
:10319000ACF3E4CF2091CF01893F29F41216F4F665
:1031A0001092CF01DBCF8A3F19F427FFD7CFF8CF9A
:1031B0002091D0018B3F29F427FFD0CF1092D0016E
:1031C000CDCF8C3F19F41216CCF3C8CF843F31F425
:1031D0008091CC018E7F8093CC01C0CF853F21F4BC
:1031E0008091CC018D7FF7CF863F21F48091CC0177
:1031F0008B7FF1CF873F21F48091CC01877FEBCF8C
:10320000883F21F48091CC018F7EE5CF8D3F31F452
:103210008091CA018E7F8093CA01A0CF8E3F21F496
:103220008091CA018D7FF7CF8F3F09F097CF8091B2
:10323000CA018B7FF0CF08958091C00183FF7EC0CB
:1032400083E093E00E94A3028091CC011F928F93B0
:103250008EEF92E09F938F930E943C038CEF92E05D
:103260000E94A3028091CD01282F082E000C330B61
:103270003F938F9389EF92E09F938F930E943C033B
:1032800087EF92E00E94A3028091CE01282F082EA2
:10329000000C330B3F938F9384EF92E09F938F93B7
:1032A0000E943C0382EF92E00E94A3028091CF0132
:1032B000282F082E000C330B3F938F938FEE92E054
:1032C0009F938F930E943C038DEE92E00E94A30295
:1032D0008091D001282F082E000C330B3F938F9341
:1032E0008AEE92E09F938F930E943C0387EE92E0D8
:1032F0000E94A3028091C9011F928F9384EE92E0F5
:103300009F938F930E943C0382EE92E00E94A3025F
:103310008091CA011F928F938FED92E09F938F93BC
:103320000E943C038CED92E00E94A3028DB79EB7F1
:103330004C960FB6F8949EBF0FBE8DBF0E943C17EF
:103340009C019091CD018091CE01982B21F030937A
:10335000C7012093C6019091CF018091D001982B95
:1033600021F03093C5012093C4018BEC91E00C94C3
:10337000BA0BEF92FF920F931F93CF93DF9300D07E
:1033800000D000D0CDB7DEB786E0EBECF1E0DE0197
:10339000119601900D928A95E1F7E090CD01F090A1
:1033A000CE010091CF011091D0011092CD01109269
:1033B000CE011092CF011092D0018E2D8F2991F065
:1033C0008091C6019091C7010E944817AC0190916D
:1033D000C901992309F43FC0809110018417150693
:1033E00008F447C0802F812B91F08091C401909107
:1033F000C5010E944817AC019091C801992309F4B6
:1034000077C080910D018417150608F47FC0809164
:10341000CD019091CE01892B9091CF01892B909174
:10342000D001892B11F00E941C1986E0FE01319613
:10343000ABECB1E001900D928A95E1F726960FB6BC
:10344000F894DEBF0FBECDBFDF91CF911F910F91DA
:10345000FF90EF9008952091C3018AE0289F90018A
:1034600011242417350708F0BDCF9F5F9093C90141
:1034700002C09F3FD1F7EE2059F00E94AE179FEF98
:103480001E140CF491E0899F802D11248093CD01AE
:10349000FF2059F00E94AE179FEF1F140CF491E02B
:1034A000899F802D11248093CE013091CD0133234B
:1034B00009F498CF2091CE01222309F493CF45EB54
:1034C0003403C0011124992359F09093CD0145EBA9
:1034D000240390011124332339F03093CE0182CF9D
:1034E00081E08093CD01F3CF81E08093CE017ACF4C
:1034F0002091C2018AE0289F9001112424173507EA
:1035000008F085CF9F5F9093C80102C09F3FD1F71D
:10351000002359F00E94F8179FEF10160CF491E069
:10352000899F802D11248093CF01112359F00E948F
:10353000F8179FEF11160CF491E0899F802D11244C
:103540008093D0013091CF01332309F460CF2091D3
:10355000D001222309F45BCF45EB3403C0011124D1
:10356000992359F09093CF0145EB24039001112446
:10357000332339F03093D0014ACF81E08093CF01DB
:10358000F3CF81E08093D00142CF86E0EBECF1E015
:10359000DF011D928A95E9F71092C9011092C801C6
:1035A0001092CA0108958091DC01089508959FB793
:1035B000F8941092D3019FBF9091FA01943009F0D2
:1035C00048C02091E9002F703091EC00932F91704A
:1035D00030FD90E8922B23E02093E9002091EB004E
:1035E00020FF34C02091EE0027FF30C02091D10190
:1035F000222321F02091E80025FF28C01092D1015C
:1036000026E03091E80035FF14C08093F1008091EE
:10361000E80085FD27C08091E80080FFFCCF809105
:10362000E8008E778093E8009F709093E90080E037
:1036300008953091FA01343049F43091EB0035FDB2
:1036400005C0215041F481E08093D1019F70909397
:10365000E9008FEF0895EFE9FFE03197F1F700C03F
:103660000000CFCF8FB7F89421E02093D3018FBF14
:10367000DBCF9C0182E08093E9009FEF8091E8001E
:10368000915085FD06C085ED8A95F1F700009111F6
:10369000F5CF8091E80085FF0CC050E040E066E087
:1036A00070E0C9010E94761D8091E8008E778093BA
:1036B000E8000895CF93DF93EC0181E08093E90067
:1036C0008FEF9091E800815095FD06C095ED9A9599
:1036D000F1F700008111F5CF8091E80085FF14C05B
:1036E00050E040E068E070E0CE010E94761D8091DD
:1036F000E8008E778093E80088E0FE01A4EDB1E059
:1037000001900D928A95E1F7DF91CF910895089588
:103710008BE493E00E94A3028091F901811109C01A
:103720000E94061F0E94631F8091E20084608093C4
:10373000E200089587E493E00E94A3021092F90149
:10374000089583E493E00C94A3028FE393E00C9438
:10375000A3028BE393E00E94A3020C940417209130
:10376000D2012F5F822F62E30E940622992319F073
:103770002093D20108951092D2018091D301882321
:10378000F1F08091FA018430C1F49091E9009F70CA
:103790002091EC00822F817020FD80E8892B93E03E
:1037A0009093E9009091EB0090FF04C09091EE009F
:1037B00097FD08C08F708093E9001092D30108959F
:1037C0001092F1009091E80095FDFACF9091E800F9
:1037D00090FFF0CF9091E8009E779093E800EACFB9
:1037E00042E061EC81E00E94821E42E261EC82E0F4
:1037F0000E94821E42E261EC83E00C94821E809162
:10380000FC01833009F45FC030F48130C1F18230B3
:1038100009F49BC008958A3009F487C08B3009F4FD
:103820006DC0893009F04EC08091FB01813209F0F2
:1038300049C08091FF0190910002029708F042C0B8
:103840008091E800877F8093E8008091E80082FF04
:1038500035C09091F3008091F200029729F4809195
:10386000F1008B7F813021F48091F1008093DC01A5
:103870008091E8008B778093E8000C94B61E8091CD
:10388000FB01813AF9F48091E800877F8093E8009A
:103890008091FF0190910002892B61F468E084ED32
:1038A00091E070E00E94C51D8091E8008B778093C5
:1038B000E800089560E090E080E0F3CF8091FA01A5
:1038C0008111C3CF08958091FB01813AD9F780918E
:1038D000FF0190910002892BA9F78091E800877F72
:1038E0008093E8008091E80080FFFCCF80911B016D
:1038F0008093F1008091E8008E77BDCF8091FB012D
:10390000813201F78091FF0190910002892BD1F65D
:103910008091E800877F8093E8000E94B61E809126
:10392000FD0180931B010C94B90F8091FB01813242
:1039300049F68091E800877F8093E8000E94B61ED8
:103940008091FE018093DD0108958091FB01813A11
:1039500009F0B8CF8091E800877F8093E8008091DC
:10396000E80080FFFCCF8091DD01C2CF84B7877F64
:1039700084BF0FB6F894A895809160008861809309
:103980006000109260000FBE80E890E00FB6F894DF
:1039900080936100909361000FBE0E94020C0E9410
:1039A000061F0E94631F8091E20084608093E20002
:1039B00087ED9AE10E94A41578940E94EB210E9461
:1039C0000A0C81E191E00E945D0B8AE293E00E9483
:1039D000A3028091FA01853019F00E943A0CF9CFC8
:1039E00086E293E00E94A3020E94BC168091F80137
:1039F000882379F30E94ED16882359F30E94601DF5
:103A0000E8CF0C94031D292F33272330310521F1F2
:103A100068F42130310509F449C02230310509F438
:103A20004AC090E080E030E020E029C0213231053A
:103A300081F122323105A9F76330710590F7FB015E
:103A4000EE0FFF1FE45DFE4F20813181675D7E4FE9
:103A5000FB01808190E013C099278130910599F096
:103A6000009741F08230910589F00397D1F6EFE499
:103A7000F3E002C0E9E7F3E0849190E09F01FA01EE
:103A8000318320830895E9E6F3E0F6CFE5E5F3E03E
:103A9000F3CF6330710528F6660F771FFB01EE5CEC
:103AA000FE4F2081318189E090E0E9CF82E190E012
:103AB00028ED33E0E4CF8BE590E02DE733E0DFCF76
:103AC00080E189BD82E189BD09B400FEFDCF80910E
:103AD000D8008F7D8093D8008091E0008260809331
:103AE000E0008091E00081FDFCCF0895AF92BF928D
:103AF000CF92DF92FF920F931F93CF93DF936C01CE
:103B0000EB018A010E94D51EF82E811123C00115F8
:103B1000110539F0F80180819181C81BD90BC80EBD
:103B2000D91EB12CA12C2097A9F08091E80085FD29
:103B300022C08091E8008E778093E800011511057E
:103B4000A1F0F80180819181A80EB91EB182A082F6
:103B500085E0F82E8F2DDF91CF911F910F91FF906F
:103B6000DF90CF90BF90AF9008950E94D51E88231C
:103B7000D1F2F82EEFCFF60181916F018093F10021
:103B80002197FFEFAF1ABF0ACECFFC01809101024F
:103B90009091020286179707A0F06115710529F42C
:103BA0009091E8009E779093E80090E06115710590
:103BB00051F4911108C08091E80082FF34C080E088
:103BC0000895BC01F2CF8091FA018823C1F18530BC
:103BD000C1F18091E80083FD30C08091E80082FD52
:103BE000EACF8091E80080FFE1CF8091F30020913F
:103BF000F200382F6115710519F02830310558F0A1
:103C000091E02830310509F090E02091E8002E770E
:103C10002093E800CBCF81918093F100615071092E
:103C20002F5F3F4FE7CF8091FA01882341F0853025
:103C300041F08091E80083FFBECF81E0089582E0EB
:103C4000089583E00895FC018091010290910202A1
:103C500086179707A0F06115710529F48091E80097
:103C60008E778093E80090E06115710551F4911111
:103C700008C08091E80082FF35C080E00895BC0153
:103C8000F2CF8091FA018823C9F18530C9F1809182
:103C9000E80083FD31C08091E80082FDEACF809189
:103CA000E80080FFE1CF8091F3002091F200382FEF
:103CB0006115710519F02830310558F091E0283070
:103CC000310509F090E08091E8008E778093E8005C
:103CD000CBCF84918093F1003196615071092F5FB1
:103CE0003F4FE6CF8091FA01882341F0853041F0C3
:103CF0008091E80083FFBDCF81E0089582E00895C0
:103D000083E00895982F973028F08F708093E90012
:103D100081E008959093E900242F762F50E09817C2
:103D200031F07091EC002091ED005091F00021FDF8
:103D300002C09F5FE8CF3091EB003E7F3093EB00F5
:103D40003091ED003D7F3093ED003091EB0031601C
:103D50003093EB007093EC002093ED005093F00053
:103D60002091EE0027FDE5CF80E008958091FB01D2
:103D700087FF13C08091E80082FF06C08091E800B1
:103D80008B778093E80004C08091FA018111F2CF13
:103D900008958091FA018823D9F38091E80080FF8B
:103DA000F8CF8091E8008E77ECCF2091E40030913D
:103DB000E50095E6A9012091EC00822F817020FF9B
:103DC00006C08091E80080FF06C080E00895209141
:103DD000E80022FD1AC08091FA01882389F085301D
:103DE00089F08091EB0085FD0FC02091E4003091B7
:103DF000E50042175307F9F29150E1F684E0089587
:103E000082E0089583E0089581E008950E94741F80
:103E10000E947C1FE0EEF0E0808181608083E8ED0D
:103E2000F0E080818F77808319BCA7EDB0E08C91A2
:103E30008E7F8C9380818F7E80831092F90108950C
:103E40000F931F93CF93DF930E94741F0E947C1FD8
:103E5000C8EDD0E088818F778883888180688883E7
:103E600088818F7D888319BC1092FA011092F60127
:103E70001092F8011092F70100EE10E0F801808135
:103E80008B7F808388818160888342E060E080E06E
:103E90000E94821EE1EEF0E080818E7F8083E2EE60
:103EA000F0E0808181608083808188608083F80178
:103EB00080818E7F8083888180618883DF91CF912C
:103EC0001F910F910895E8EDF0E080818F7E80834F
:103ED000E7EDF0E080818160808384E082BF81E053
:103EE0008093F9010C94201FE8EDF0E080818E7F33
:103EF00080831092E20008951092DA001092E1009F
:103F000008951F920F920FB60F9211242F933F9393
:103F10004F935F936F937F938F939F93AF93BF93D1
:103F2000EF93FF938091E10082FF0BC08091E2004C
:103F300082FF07C08091E1008B7F8093E1000E94A7
:103F4000AF1B8091DA0080FF19C08091D80080FFFC
:103F500015C08091DA008E7F8093DA008091D900BD
:103F600080FF96C080E189BD82E189BD09B400FE71
:103F7000FDCF81E08093FA010E94881B8091E100CF
:103F800080FF19C08091E20080FF15C08091E2009F
:103F90008E7F8093E2008091E20080618093E20056
:103FA0008091D80080628093D80019BC85E080930E
:103FB000FA010E94A51B8091E10084FF2BC0809133
:103FC000E20084FF27C080E189BD82E189BD89B517
:103FD000982F917080FFFBCF8091D8008F7D8093C8
:103FE000D8008091E1008F7E8093E1008091E20013
:103FF0008F7E8093E2008091E20081608093E200F6
:104000008091F601882309F449C084E08093FA0185
:104010000E94A91B8091E10083FF29C08091E200EA
:1040200083FF25C08091E100877F8093E10082E0DB
:104030008093FA011092F6018091E1008E7F8093C7
:10404000E1008091E2008E7F8093E2008091E200A7
:1040500080618093E20042E060E080E00E94821E86
:104060008091F00088608093F0000E94A11BFF9176
:10407000EF91BF91AF919F918F917F916F915F91E0
:104080004F913F912F910F900FBE0F901F90189559
:1040900019BC1092FA010E949A1B70CF8091E30024
:1040A00087FD93E09093FA01B3CF1F920F920FB662
:1040B0000F9211242F933F934F935F936F937F93AE
:1040C0008F939F93AF93BF93CF93DF93EF93FF9320
:1040D000D091E900DF708091EC00C82FC17080FDA5
:1040E000C0E81092E9008091F000877F8093F00093
:1040F00078940E9499201092E9008091F0008860E5
:104100008093F000CD2BCF70C093E900FF91EF9129
:10411000DF91CF91BF91AF919F918F917F916F91DF
:104120005F914F913F912F910F900FBE0F901F9075
:1041300018951F93CF93DF93CDB7DEB7AA970FB62D
:10414000F894DEBF0FBECDBF8BEF91E02091F10060
:10415000FC012193CF01F2E083309F07B9F70E9461
:10416000FF1B8091E80083FF1EC18091FB019091AD
:10417000FC019A3008F017C1E92FF0E0E256FD4D3E
:104180000C942622803899F0823809F00CC1809175
:10419000FF018F70873008F006C18093E90080919D
:1041A000EB0085FB882780F91092E90006C080911A
:1041B000F7019091F801911182609091E800977F4A
:1041C0009093E8008093F1001092F1008091E80054
:1041D0008E77E5C0882309F4D3C0823009F0E3C0AC
:1041E0008091FD018111D6C08091FF018F702FEF6A
:1041F000280F263008F0D7C08093E9002091EB000B
:1042000020FFC8C0933031F48091EB00806280932E
:10421000EB00C0C09091EB0090619093EB0021E027
:1042200030E001C0220F8A95EAF72093EA0010924D
:10423000EA008091EB008860EACF8111B4C0109150
:10424000FD011F778091E3008078812B8093E3004C
:104250008091E800877F8093E8000E94B61E8091DD
:10426000E80080FFFCCF8091E30080688093E3004A
:1042700082E0111183E08093FA0195C0805882306A
:1042800008F091C08091FD019091FE018C3D23E0EA
:104290009207A1F583E08A838AE289834FB7F89475
:1042A000DE01139620E03EE051E2E32FF0E0509370
:1042B0005700E49120FF03C0E295EF703F5FEF707D
:1042C0008E2F90E0EA30C0F0C7968D939D932F5FBC
:1042D000243159F74FBF8091E800877F8093E80031
:1042E0006AE270E0CE0101960E94C51D8091E8004F
:1042F0008B778093E80057C0C096E7CF6091FF01AD
:1043000070910002AE014F5F5F4F0E94011DBC0122
:10431000892B09F448C09091E800977F9093E800BA
:1043200089819A810E94231EE1CF8038E1F5809136
:10433000E800877F8093E8008091F6018093F10088
:1043400045CF811130C09091FD01923060F5809190
:10435000E800877F8093E8009093F6010E94B61EE4
:104360008091F601882311F084E005C08091E3007C
:1043700087FDFACF81E08093FA010E94F01B13C001
:104380008091FD01813079F481E0933009F080E083
:104390008093F8011092E9008091E800877F809374
:1043A000E8000E94B61E8091E80083FF0AC0809159
:1043B000E800877F8093E8008091EB008062809323
:1043C000EB00AA960FB6F894DEBF0FBECDBFDF910B
:1043D000CF911F910895CF938091FA018823A1F086
:1043E000C091E900CF709091EC00892F817090FD11
:1043F00080E8C82B1092E9008091E80083FD0E94BC
:104400009920CF70C093E900CF910895991B79E06E
:1044100004C0991F961708F0961B881F7A95C9F754
:104420008095089597FB072E16F4009407D077FD2A
:1044300009D00E942C2207FC05D03EF4909581956E
:104440009F4F0895709561957F4F0895EE0FFF1F60
:104450000590F491E02D0994AA1BBB1B51E107C004
:10446000AA1FBB1FA617B70710F0A61BB70B881F04
:10447000991F5A95A9F780959095BC01CD01089593
:10448000F999FECF92BD81BDF89A992780B508951C
:10449000A8E1B0E042E050E00C947422262FF99994
:1044A000FECF92BD81BDF89A019700B4021639F093
:1044B0001FBA20BD0FB6F894FA9AF99A0FBE089564
:1044C0000396272F0E944F220E944E22252F0E94E2
:1044D0004F22242F0C944F220196272F0E944F2207
:1044E0000C944E22DC01CB01FC01F999FECF06C0F1
:1044F000F2BDE1BDF89A319600B40D9241505040A2
:10450000B8F70895F894FFCFBD0DBD0D140E140E2D
:10451000EA0D600EEA0DEA0D6B0EF70E060F060FA0
:10452000C80FC80FD10FD10FD30FD10FD10FD10F9B
:10453000C80FC80FD80FD10FD10FD80FC220EA2053
:10454000D321EA20D3211D213E21D3219521A12170
:10455000013F01004001044001B5012808643C0707
:1045600010D31A5A1B391BD61A871B016697C634FB
:10457000353133323600000000404F225B040C041A
:08458000EA038F03A803C10345
:00000001FF
