:100000000C949D020C94A00E0C94E4020C94E40257
:100010000C94E4020C94E4020C94E4020C94E402C8
:100020000C94E4020C94E4020C94EC230C94C02491
:100030000C943E1B0C94E4020C94E4020C94E40235
:100040000C94E4020C94E4020C94E4020C94E40298
:100050000C94E4020C94891B0C94E4020C94E402CA
:100060000C94E4020C94E4020C94E4020C94E40278
:100070000C94E4020C94E4020C94E4020C94E40268
:100080000C94E4020C94E4020C94E4020C94E40258
:100090000C94E4020C94E4020C94E4020C94E40248
:1000A0000C94E4020C94E4020C94E4024B4C3A20CD
:1000B0006B633A2025752C20636F6C3A2025752CD4
:1000C00020726F773A2025752C20707265737365E6
:1000D000643A2025750A0014001A0008001500175C
:1000E0000004721671077409680A001D001B0006DF
:1000F000001900050000002A4329432B004A42133F
:100100000012000C0018001C0033720F710E740DE9
:10011000680B003800370036001000110000002C7A
:100120004128642C41390035083802A900FA003909
:10013000002961AE00AA00AB00F40039001B0806DC
:100140000819081D0800002A4401002A4301002A5A
:10015000004E005200F9002A0039004F00520051B1
:100160000050000100F300F000F100F20000002C4C
:100170004428642C414D001E021F02F0002F023063
:1001800002F500F200F100F300F4002F0030002629
:10019000022702240200002A4401002A430100250C
:1001A0000226002500240031002700230022002120
:1001B000002E002E0220001F001E00350000002C23
:1001C0004428642C414D001E021F022002210222FD
:1001D0000236022F0026022F0224023702300027A7
:1001E000023002240200002A4401002A43010025B3
:1001F00002260025002400230227002300220021DC
:10020000002E002E0220001F001E00350000002CD2
:100210004428642C414D000100080852004B012B7A
:10022000062903500051004F004B0301003D04011B
:10023000004902005C0000010001002A4301000F98
:1002400008010001004E012B044C050100E30028C9
:10025000004E030100010001000100010000000147
:100260000001002C414D000A000B00000009000DA8
:100270000000001B00360000001D003800000036A2
:100280000010000000370036000000380037000082
:100290000018000C00000012000C000000120018F2
:1002A0000000001300120000000600190000001BEF
:1002B00000060000001D001B0000000800150000E3
:1002C000001A00150000001A000800000014001AAF
:1002D00000000044454255473A2064697361626CEE
:1002E00065642E0A0044454255473A20656E6162B6
:1002F0006C65642E0A000A0025303862003A20003E
:1003000025303258000A722F6320303132333435B1
:1003100036370A000A002530325820006B657962B2
:100320006F6172645F7265706F72743A20000A00C8
:1003300025303258006B6579626F6172645F736556
:10034000745F6C65643A2000290A002575002F004F
:100350002575005D2800256400200025640020002C
:1003600025640020002564007C0025303258006D93
:100370006F7573656B6579205B62746E7C7820792C
:10038000207620685D287265702F61636C293A20A1
:100390005B005B735D004B6579626F617264207313
:1003A000746172742E0A005B575D005B535D005BE5
:1003B000525D005B445D005B435D00040330000060
:1003C0000012037300710075006900670067006C1C
:1003D00000650000000E03690062006E0075006495
:1003E00000610000000403090409025B000301002E
:1003F000A0FA090400000103010100092111010014
:10040000012240000705810308000A0904010001D8
:10041000030000000921110100012281000705826B
:100420000320000A09040200020300000009211150
:1004300001000122220007058303200001070503B4
:10044000032000011201100100000008556973200B
:100450000100010203010631FF0974A101097515AC
:100460000026FF009520750881020976150026FFF9
:1004700000952075089102C005010902A1018502BD
:100480000901A10005091901290515002501950596
:10049000750181029501750381010501093009315A
:1004A0001581257F95027508810609381581257FFC
:1004B000950175088106050C0A38021581257F957E
:1004C0000175088106C0C005010980A101850319D5
:1004D000012AB700150126B700950175108100C0EB
:1004E000050C0901A101850419012AA002150126A4
:1004F000A002950175108100C005010906A1010542
:100500000719E029E7150025019508750181029575
:1005100001750881010507190029FF150026FF0054
:1005200095067508810005081901290595057501CD
:100530009102950175039101C00011241FBECFEFF8
:10054000DAE0DEBFCDBF04B603FE27C08091900481
:1005500090919104A0919204B09193048730904BB4
:10056000A740B04BD1F410929004109291041092D5
:1005700092041092930414BE84B7877F84BF0FB691
:10058000F894A89580916000886180936000109233
:1005900060000FBEE0E0F8E3099513E0A0E0B1E0F1
:1005A000E6E2FEE402C005900D92AC3AB107D9F73D
:1005B00024E0ACEAB3E001C01D92A039B207E1F734
:1005C0000E9421210C94ED260C940000FF93EF93E0
:1005D000E091AC03F091AD03309709F00995EF91EC
:1005E000FF910895FC018591803011F0EFDFFBCF82
:1005F0000895FF27E0E230E247FF0CC0419597FFE6
:1006000009C0EDE26095709580959095611D711D12
:10061000811D911D27FF02C0219530E350E2AA27DA
:10062000660F771F881F991FAA1FA41710F0A41B1D
:1006300063955A95A9F7AA3008F0A95FA05DAF931A
:10064000F395611571058105910541F7ED3211F4BE
:10065000EF93F395F21718F43F93F395FBCF8F9137
:10066000B5DFFA95E1F70895E991F9918591803028
:1006700021F0853219F0AADFF9CF089520E0E8943F
:1006800055915532C1F3503311F4689455915A3352
:1006900048F4505390F3220F022E220F220F200D08
:1006A000250FF4CF0EF4219589919991533619F3C2
:1006B000533729F1533559F1BC0188279927E8941C
:1006C0005C3621F48991999168945591543639F4A6
:1006D00046EF7EF077FF0DC08FEF9FEF0AC05537D2
:1006E0004AE039F0583540E121F0523642E009F055
:1006F0000895FF93EF937DDFEF91FF91B7CFFF93C5
:10070000EF93FC0181918030B9F360DFFBCFFF9361
:10071000EF9368DFF1CFDF93CF93CDB7DEB72596A8
:10072000A3DFCF91DF910895FB0122811F922F93C8
:1007300021811F922F9320811F922F939F938F933C
:100740008CEA90E09F938F930E948B038DB79EB7A6
:100750000A960FB6F8949EBF0FBE8DBF81E0089534
:10076000CF93DF939C013A9521153F4168F5EC0149
:10077000CC27D170DC01AA27B270AC014427547099
:100780009C012227387094FF11C080E1CD2B09F421
:1007900080E0AB2B09F08062452B09F08064232BAD
:1007A00009F08068FB01DF91CF91099481E0CD2BA6
:1007B00009F480E0AB2B09F08260452B09F08460DE
:1007C000232B81F38860EECFDF91CF910895CF93F3
:1007D000DF93EC01805E9109089720F064EC73E1EF
:1007E000209711F462E771E1CE010E94B0038C2FD3
:1007F000DF91CF910C94E210CF93DF93EC010E9434
:100800003011CE01805E9109089720F06BEC73E106
:10081000209711F469E771E1CE01DF91CF910C943B
:10082000B00381E008950C94940308950C9415048A
:100830001F93CF93DF9300D000D00F92CDB7DEB7D8
:1008400049835A836B833091E60389819A81311100
:100850001DC06623B9F02223A9F00E949C18182F0E
:10086000682F89819A810E94451869817A81812F38
:100870000F900F900F900F900F90DF91CF911F91DD
:100880000C94EE040E947318182FEFCF0E949C184E
:1008900069817A81EDCFFC01262F408151816281EF
:1008A000738184810C941804CF93DF93EC0160E092
:1008B0000E944B04BE01DF91CF910C9416040E945C
:1008C000F319811102C00E94901A0C94D7060E945D
:1008D0009B0D0E94160B0C94DA0608950C946D047F
:1008E00081E008950C947004CF93C82F0E946E0489
:1008F0008C2FCF910C94720408950E94E8130E94EB
:100900007C042FEF84E39CE0215080409040E1F78D
:1009100000C000000C94AD1B0F931F93CF93DF9387
:10092000EC0161E00E944B048C01BE010E94FB0CB3
:10093000BE01C8010E941304882371F1BE01C801E1
:100940000E94410D882341F1BE01C8010E94420B63
:10095000882311F1BE01C8010E9457098823E1F0E4
:10096000BE01C8010E94A9098823B1F0BE01C801D7
:100970000E94CC0A882381F08A81882341F10130CA
:100980008CE5180779F00E3D8CE51807E9F00115A4
:100990001C45E9F40E947D0480E0DF91CF911F9116
:1009A0000F91089590914D04892F8E7F90FF816063
:1009B00080934D0480FF05C085EE92E00E94F20214
:1009C000EBCF83ED92E0FACF0E94901AE5CFCE01F3
:1009D000DF91CF911F910F910C941104972F70E02C
:1009E00025E0929F600D711D1124FB0198E2899F03
:1009F000E00DF11D1124EE0FFF1FE952FF4F85910D
:100A000094910895CF93DF930E94EE040E94FC0519
:100A1000EC01811521E5920708F042C0811530E50F
:100A2000930708F09DC0883E910530F5803E910502
:100A300008F092C0883A910588F4853A910508F04B
:100A400084C08130910509F487C0009709F484C0FF
:100A5000049708F081C0D0E0C0E07EC08F3B9105D4
:100A6000D0F7C85AD0E0CC0FDD1FC25DDC4F099033
:100A7000D881C02DD46470C08115904250F4C11546
:100A800081E0D80708F068C0C03FD10520F3D065E9
:100A900063C0C11590E4D907F0F2DF70D06A5CC082
:100AA000811525E5920700F5811534E5930708F0D7
:100AB0008BC0811543E5940708F073C0C11582E52A
:100AC000D80708F469C0CE018370992721E030E08F
:100AD00002C0220F331F8A95E2F7C695C69580E2C1
:100AE000C89FE001112454C0C11599E5D907A8F4A5
:100AF000C11528E5D20708F06CC0C11536E5D3074B
:100B000008F0A9CF8C2F0E949306C82FD0E0DC2FCD
:100B1000CC27CC27DF71D0621FC0C1154AE5D407AE
:100B200008F45CC0CE0190568115904208F093CF36
:100B30008D2F8F710E94930690E0982F8827882729
:100B40009F719C012C2BE901E6CFC55AD0E0C45A15
:100B5000DC4FC881D0E0D064CE01DF91CF91089501
:100B6000E4E096958795EA95E1F783702C2F26951A
:100B70002695237040E2249F90011124382B8C2F5E
:100B80008370C1E0D0E002C0CC0FDD1F8A95E2F790
:100B9000C22BD32BDC68E0CFDC2FCC27C16FD06A0F
:100BA000DBCF8370992721E030E002C0220F331F92
:100BB0008A95E2F7C695C69590E2C99FE001112497
:100BC000C22BD32BDA68C8CFD82FCC27C46FD06AFA
:100BD000C3CFDC2FCC27C06FD06ABECF8C2F8F70D5
:100BE0000E94930634E0D695C7953A95E1F7CF7009
:100BF0009C2FEC01D069B0CF82389105B1F1B0F4EF
:100C00008133910509F475C048F48932910509F4DE
:100C100069C08A32910509F473C00895853391053E
:100C200009F459C08933910501F10895833E910576
:100C3000A9F138F4803E9105F9F0823E910549F121
:100C40000895863E9105A9F1873E9105C9F1843E3C
:100C5000910519F52091820421FF1FC08091810424
:100C600084FD14C087EE90E00895209181042370E4
:100C7000A1F080EE90E008952091810420FD47C00E
:100C80003091820430FF09C024FF44C090E080E02E
:100C900004C02091810422FDF7CF089520918104A2
:100CA00022FD3BC03091820430FDE3CF24FFF5CF1D
:100CB000EDCF2091810423FFF0CF24FDE7CFD2CFE9
:100CC0002091810423FD2CC03091820431FFEECFAE
:100CD00084EE90E008952091810425FFDECF89E223
:100CE00090E008952091810425FFD7CF85E390E01F
:100CF00008952091810426FFD0CF8AE290E00895E4
:100D00002091810426FFC9CF81E390E0089589E313
:100D100090E0089583EE90E0089582EE90E00895CB
:100D200086EE90E008959091810492FF06C0282FEE
:100D300028712830F9F4877F846093FF06C0282F3C
:100D400028712831F1F4877E84612091820420FF8C
:100D500006C0382F38713830D9F4877F816021FF81
:100D600006C0282F28712831D1F4877E816194FD37
:100D7000877E0895282F24712430F9F68B7F8860B0
:100D8000DCCF282F2471243101F78B7E8861DDCFE1
:100D9000382F3171313019F78E7F8860E0CF282FDE
:100DA0002171213121F78E7E8861E1CF08950C9465
:100DB000D60608950C94D906E82FF0E0ED58FB4FC5
:100DC00080810895CF92DF92EF92FF920F931F934D
:100DD000CF93DF9385E093E00E94F20283E7E82E51
:100DE00084E0F82ED0E0C0E090E0C92E93E0D92E48
:100DF00008EF12E0DF93CF93DF92CF920E948B0334
:100E00008DEF92E00E94F202F70181917F010E9432
:100E1000DB191F928F931F930F930E948B0386EF12
:100E200092E00E94F20221968DB79EB708960FB607
:100E3000F8949EBF0FBE8DBFC830D105D9F6DF91A3
:100E4000CF911F910F91FF90EF90DF90CF90089579
:100E500080EA8A95F1F7089508950E9487088091A5
:100E600010038091100394E0811190E090937C0432
:100E700084E0891B80937B04A4E6B3E061E070E02A
:100E80008D91E82FE295EF70F0E041A18F709B010A
:100E900001C0220F8A95EAF7922F9095942391A38F
:100EA00082A1822B82A383E0A836B80749F7AFE579
:100EB000B3E061E070E08D91E82FE295EF70F0E033
:100EC00041A18F709B0101C0220F8A95EAF7922FF2
:100ED0009095942391A382A1822B82A383E0A436D0
:100EE000B80749F7EBE6F4E0A3E7B4E083E794E062
:100EF00011921D928E179F07D9F784E00E94320845
:100F00000E945F040C9491080E9469088823F1F004
:100F100080917B0490E08D589B4F0E94A408811122
:100F200012C08091AE038F5F8093AE03863048F08D
:100F3000E0917B04F0E0ED58FB4F108211821282A9
:100F400013820C9467041092AE03FBCF80917C0453
:100F500090E08D589B4F0E94BD080C942C078F92F7
:100F60009F92AF92BF92CF92DF92EF92FF920F9338
:100F70001F93CF93DF9384E6A82E83E0B82E0BE671
:100F800014E0912CCC24C394D12CF50181915F0104
:100F9000C82FC295CF70D0E099A18F70760101C0A3
:100FA000EE0C8A95EAF7892F8E2989A38AA18E2CC7
:100FB000809488218AA30E942807EFE5F3E050E09F
:100FC00040E020E03191A32FA295AF70B0E0909661
:100FD0008C9190E03F7002C0959587953A95E2F725
:100FE00080FD3CC08C2D042E01C0880F0A94EAF7C6
:100FF000282B4F5F5F4F4530510521F789A188228B
:1010000089A28AA1E82AEAA2F8018081281741F181
:10101000208381E0982A0F5F1F4FF8E6AF16F3E0B8
:10102000BF0609F0B2CF60917C0470E06D587B4F31
:10103000292D44E08BE694E00E9433080E94840747
:10104000892DDF91CF911F910F91FF90EF90DF904D
:10105000CF90BF90AF909F908F90089580E0C8CFC1
:1010600080E0D8CF0895FF920F931F93CF93DF9323
:10107000F82E092F162FD72FC42F222349F081E0F5
:101080008093B1030E946E1B9093B0038093AF03D3
:101090008091B1038823A1F08091AF039091B003B8
:1010A0000E947A1B069760F0EF2DF02FA12FBD2F25
:1010B000CE0FDF2FD11DEC17FD0741F41092B103C5
:1010C000DF91CF911F910F91FF90089581918D93A2
:1010D000F2CF8091B203811111C08091D80080615C
:1010E0008093D8008AE18A95F1F700C09091D900E9
:1010F000892F817090FF82E08093B20381E090910C
:10110000B203913009F080E008950C9469080E94C0
:101110008508809310030E94690881110C94980837
:1011200008950E946908811102C00C949E080895D8
:1011300061E070E081E193E00C94510E61E070E0B9
:1011400081E193E00C94580ECF93DF93D82FC92FF1
:101150000E94F20E009779F4ED2FFC2FDC01AC54C5
:10116000BC4F2C912193019684309105B9F781E011
:10117000DF91CF91089580E0FBCF30E020E0FC01CB
:101180004191CF01F901EC54FC4F40832F5F3F4F59
:1011900024303105A1F70895AF92BF92CF92DF922C
:1011A000EF92FF920F931F93CF93DF937C015B012C
:1011B000C42FD22FFC0182818823F9F04093BA0317
:1011C0000E946E1B9093B9038093B80380E28C0F4A
:1011D000883008F061C0C77081E001C0880FCA95EF
:1011E000EAF7DF91CF911F910F91FF90EF90DF9081
:1011F000CF90BF90AF900C9472111091BA0314135A
:1012000040C08091B8039091B9030E947A1B6C0191
:10121000B701C5010E949A16C816D90690F5C0E21A
:10122000CD0F1D17B9F080E2810F883040F41770A0
:1012300081E001C0880F1A95EAF70E947911C83041
:1012400048F481E09D2F977001C0880F9A95EAF7C6
:101250000E947211802F0E945F11C830E8F4D7708D
:1012600081E001C0880FDA95EAF7DF91CF911F91F5
:101270000F91FF90EF90DF90CF90BF90AF900C94C4
:10128000791180E28C0F883038F4C77081E001C09A
:10129000880FCA95EAF7E9CFDF91CF911F910F919F
:1012A000FF90EF90DF90CF90BF90AF9008950F9395
:1012B0009C01CB01233F4CE5340759F1A8F4283DAC
:1012C000FCE53F0701F1293D4CE53407D1F1273D0D
:1012D0003C4591F406E221EE41EE67ED7CE50E948B
:1012E000CC0880E00F910895253FFCE53F07E9F029
:1012F000B0F0263F3C45F9F0FC018281882339F1AA
:101300001092BA03EFCF07E225EE45EE68ED7CE5DB
:10131000E6CF06E221EE40EE63EF7CE5E0CF07E2A8
:1013200025EE44EE64EF7CE5DACF06E221EE42EEF4
:1013300065EF7CE5D4CF07E225EE46EE66EF7CE56F
:10134000CECF08E221E045EE69ED7CE5C8CF81E033
:10135000C9CFCF93DF93EC01FB018281882309F48D
:1013600019C1C230FCE5DF07C0F1C6319CE5D907E1
:1013700030F09E012A5F3C452930310570F50E940E
:10138000061A9093820480938104C031ECE5DE0755
:1013900009F4CFC008F05BC0C8308CE5D80709F469
:1013A000B6C088F5C430ECE5DE0709F4A8C0C0F487
:1013B000C2308CE5D80709F49CC08091810482601A
:1013C000C330DC4509F498C0809181049091820477
:1013D0000E94141A0E94E81380E0DF91CF910895D3
:1013E000809181048061C630ECE5DE0709F484C099
:1013F000809181048860C730DC4508F47DC080910D
:101400008104806279C0CC308CE5D80709F489C0AA
:1014100070F4809181048C60CA30ECE5DE0709F439
:101420006BC008F478C0809181048E7F65C0CE3097
:101430008CE5D80709F479C0809181048B7FCF3087
:10144000DC4508F459C0809181048F7E55C0CB3FA4
:10145000ECE5DE0709F457C030F5C3318CE5D80759
:1014600009F46FC078F4C131ECE5DE0709F465C01A
:10147000C231DC4509F0A8CF0E94E81380918104B5
:101480008F773AC0C5318CE5D80709F462C008F4FB
:1014900076C0809182048160CA3FDC4509F094CF18
:1014A0008093820491CFCF3FFCE5DF0709F44DC064
:1014B00088F4809182048D7FCD3F9CE5D90781F32C
:1014C000809182048E7FCE3FDC4550F38091820470
:1014D0008360E6CFC130FDE5DF0709F459C008F4A9
:1014E00044C080E0C230DD4509F06ECF0E94921A00
:1014F0006BCF8091810481608093810465CF80915E
:1015000081048460F9CF809182048260C9CF809188
:1015100081048064F1CF0E94E81380918104806887
:10152000EBCF809181048D7FE7CF80918104877F0D
:10153000E3CF809181048F7DDFCF809181048F7B09
:10154000DBCF80918104837FD7CF809182048C7F11
:10155000A7CF8091810482FB992790F921E09227FF
:1015600090FB82F990FB83F9C7CF80918204982F7A
:10157000909591708E7F892B90FB81F991CF0E947D
:10158000E81390918104892F97FB87F98058B4CF95
:1015900081E0ACCF81E021CFCF93DF93EB018631A7
:1015A0009C4511F50E9431199A81992399F08A7A04
:1015B00091E009F490E09093BB03811109C089E2A6
:1015C0000E940C190E94731980E0DF91CF91089559
:1015D00085E3F6CF8091BB03811104C089E20E94AC
:1015E0001319F0CF85E3FBCF81E0EFCFCF9390913C
:1015F000CC03992321F0811116C01092CC03CF9116
:101600000895EC2FF0E0EE0FFF1FE454FC4F8081B3
:1016100091810E94E7030E947319CF5F8091CC03F0
:10162000C81778F3EACFC0E0F9CF08958091190385
:10163000882399F08091CD03882379F08091D1039C
:101640009091D203009749F00E947A1BC39728F02B
:101650001092CD0381E00C94F60A08951092CD0308
:10166000109219031092D2031092D10381E00C94CE
:10167000F60A8091190381110C942E0B81E080935E
:10168000190308955F926F927F928F929F92AF920B
:10169000BF92CF92DF92EF92FF920F931F93CF935F
:1016A000DF937C016B011092CE03873F4CE59407DA
:1016B000C1F4FB01C281CC2349F181E0809319037D
:1016C0008C2FDF91CF911F910F91FF90EF90DF90C2
:1016D000CF90BF90AF909F908F907F906F905F90D2
:1016E0000895883FFCE59F0739F4FB01C281CC23B4
:1016F00069F00E942E0BE4CF893F9C4539F4FB0131
:10170000C281CC2319F00E94390BDACFD091190392
:10171000C1E0DD23A9F21092D0031092CF03C0E004
:1017200055E0752E88248394912C6624639400914F
:10173000CF031091D0030632110588F08091CE03BB
:10174000882309F497C00E946E1B9093D203809364
:10175000D10380E00E94F60A81E0C827B1CF709ED5
:10176000F001719EF00D1124EE5AFD4F80819181A0
:101770003FEF20E0E22FF0E0EE0FFF1FE80FF91F30
:1017800045915491E416F50609F4322F452B11F0DA
:101790002F5FF0CF3F3FD1F4512CC529DD2351F00D
:1017A000709EF001719EF00D1124EE5AFD4FD1E0B4
:1017B00084818111D0E0D1708091CF039091D003CA
:1017C00001969093D0038093CF03B1CF5090CD0377
:1017D000F6019281709EF001719EF00D1124EE5A77
:1017E000FD4F8481540101C0AA0C3A95EAF7992370
:1017F000E1F0A82AA482552079F2C40102C0880F22
:10180000991F2A95E2F70197A816190631F68281E9
:101810009381009729F00E94E7036092CE03BDCF29
:1018200061E0C8010E94150BF8CFA40102C0440F6B
:10183000551F2A95E2F79A012150310982171306A4
:10184000B9F482819381009771F00E94FC03709E2D
:10185000F001719EF00D1124EE5AFD4FA094848189
:10186000A822A4829ACF60E0C8010E94150BEFCF96
:10187000512CEDCFC1110EC081E00E94F60ADD238C
:1018800009F46ACF1092D2031092D10381E08093C1
:10189000CD0362CFF6018281882309F45DCF809168
:1018A000CD03882309F458CF0E946E1B9093D20376
:1018B0008093D103E091CC03E83008F04DCF81E074
:1018C0008E0F8093CC03F0E0EE0FFF1FE454FC4F2B
:1018D000F182E08241CFCF93DF93EC0181E0898BED
:1018E0008F810E94341988850E9447190E947319BC
:1018F000EA81FB81309739F06C897D89CE010696AB
:10190000DF91CF910994DF91CF910895CF93DF9329
:10191000EC018881823039F4FB01828193810E943D
:10192000E70381E08B87DF91CF910895FC018081EF
:10193000813029F4FB01808191810C94E70382308E
:1019400021F4FB0182819381F8CF0895FC0180810D
:10195000813029F4FB01808191810C94FC03823059
:1019600021F4FB0182819381F8CF0895EF92FF92D9
:101970000F931F93CF93DF93EC018A85811134C0BD
:10198000EB80FC8087E5F81A26E12E9DC0012F9D93
:10199000900D1124DC01A050BF4F1496ED91FC91E5
:1019A0001597309731F054966D917C918A5F9E4FD8
:1019B000099586E18E9D80018F9D100D11240050A8
:1019C0001F4FF80187810E943A19F80180850E9413
:1019D0004D190E947319188219861B861E821D825A
:1019E0001092D4031092D303DF91CF911F910F91E6
:1019F000FF90EF900895DF92EF92FF920F931F9365
:101A0000CF93DF937C01FB018281882391F0809149
:101A10001A038F3F71F0C0E0D1E010E000E0DD2458
:101A2000D39480911A03082E000C990B801791070C
:101A300044F4DF91CF911F910F91FF90EF90DF90D1
:101A400008958E818823C9F089859A858E159F0512
:101A500039F48091D3039091D4038E159F0569F0DA
:101A6000DF86FC86EB868989811103C0CE010E9446
:101A70006B0CCE0106960E94B60C0F5F1F4F669648
:101A8000D0CFEF92FF920F931F93CF93DF937C0100
:101A900097558F3F910509F0D8F520911A03022E32
:101AA000000C330B2817390714F480931A03FB0139
:101AB000228136E1389F8001399F100D1124E80101
:101AC000C050DF4F288B92818E81992349F1FA868D
:101AD000E9868F5F8E830E946E1B9E878D870E9492
:101AE0005A198F830E94311988870E94441998855A
:101AF000892B8887E881F981309731F06C897D895D
:101B0000C8018A5F9E4F0995F092D403E092D303F7
:101B100081E0DF91CF911F910F91FF90EF90089599
:101B20008823B1F38989882399F3C8018A5F9E4F7E
:101B30000E94B60CEDCFCF92DF92EF92FF920F93FF
:101B40001F93CF93DF9380911A0310E006E18F3F3C
:101B5000F1F5DF91CF911F910F91FF90EF90DF9002
:101B6000CF9008950E9DF0010F9DF00D1124E050CF
:101B7000FF4FC288D388C114D10439F470E060E00B
:101B8000818592850E949A166C010E9DE0010F9D41
:101B9000D00D1124C050DF4F8E818823B9F08D8580
:101BA0009E850E947A1BC816D90680F4109F70018A
:101BB00011248989811105C0C70180509F4F0E945F
:101BC0006B0CC7018A5F9E4F0E94B60C1F5FE12E0F
:101BD000F12C80911A03082E000C990B8E159F058D
:101BE0000CF6B7CF8EE1489B02C08150E1F7489BCD
:101BF000FECF0895589880E28A95F1F7589A089593
:101C0000FC013BE03A95F1F798E020E080E031E01C
:101C100040E14A95F1F7880F489B02C08160232775
:101C200042E04A95F1F7000040E14A95F1F7915002
:101C300079F790E19A95F1F799B132E03A95F1F799
:101C4000000040E14A95F1F7917092272081920FB0
:101C500090830895EF92FF920F931F93CF93DF939A
:101C60000F92CDB7DEB719828C017C01E60EF11C14
:101C70000E151F0561F481E09981911180E00F90AC
:101C8000DF91CF911F910F91FF90EF9008950E94E7
:101C9000F20DCE0101960E94000EF80181938F0192
:101CA000E7CF9093D6038093D503509A589A08951E
:101CB0009093D6038093D5035098589AE89AE9E612
:101CC000F0E080818C7F808308956150770B91E0F4
:101CD00001C0990F6A95EAF720E031E0911108C040
:101CE000222391F0589A80E28A95F1F75898089546
:101CF000492F482339F0589A232740E24A95F1F7B3
:101D00009695ECCF5898F9CF5898EDCFFF920F9356
:101D10001F93CF93DF93EC018C01060F111DC017A9
:101D2000D10731F4DF91CF911F910F91FF9008956A
:101D3000F9900E94FA0D68E08F2D0E94650EEFCF9A
:101D40001F920F920FB60F9211242F933F934F9330
:101D50005F936F937F938F939F93AF93BF93CF9333
:101D6000DF93EF93FF935898509AC091D503D09189
:101D7000D6036D81662321F08E819F810E94860E9D
:101D80000E94FA0D80E18A95F1F758985098589A78
:101D900080E18A95F1F76A81662309F18B819C8144
:101DA0000E942A0EE881F981882311F088E001C0A1
:101DB00082E080830E94F20DFF91EF91DF91CF913D
:101DC000BF91AF919F918F917F916F915F914F9153
:101DD0003F912F910F900FBE0F901F901895E881A3
:101DE000F981E4CFCF93DF93C091D503D091D6038F
:101DF000F894509A589885E08A95F1F70000509829
:101E0000589A80E28A95F1F7489B0CC0509A589AEC
:101E1000E881F98181E08083789481E090E0DF912E
:101E2000CF9108956D81662381F08E819F810E94FC
:101E30002A0E81110AC0509A589AE881F98182E0ED
:101E40008083789482E090E0EACF0E94F20D80E2F5
:101E50008A95F1F75898509A80E18A95F1F76A814E
:101E6000662321F08B819C810E94860E0E94FA0DD0
:101E7000E881F9811082789490E080E0D0CF90934F
:101E8000DC038093DB030895E091DB03F091DC0336
:101E9000309721F00190F081E02D099480E00895C1
:101EA000EF92FF920F931F93CF93DF938C01E091FA
:101EB000DB03F091DC033097C1F10280F381E02D68
:101EC000099580914D0482FF30C080FF04C08CE1F1
:101ED00093E00E94F202D0E0C0E086E1E82E83E0C9
:101EE000F82E80914D0480FF0EC0F801EC0FFD1F0D
:101EF00080811F928F93FF92EF920E948B030F902D
:101F00000F900F900F902196C830D10551F7809116
:101F10004D0480FF0AC084E193E0DF91CF911F91CF
:101F20000F91FF90EF900C94F202DF91CF911F91EF
:101F30000F91FF90EF900895E091DB03F091DC03A7
:101F4000309739F022E0DC012C930480F581E02DFC
:101F5000099408952091D9033091DA03281739079D
:101F600071F09093DA038093D903E091DB03F09151
:101F7000DC03309721F00680F781E02D0994089565
:101F80002091D7033091D8032817390771F0909327
:101F9000D8038093D703E091DB03F091DC03309703
:101FA00021F00084F185E02D0994089585B78068BB
:101FB00085BF85B7806885BF0895089508950C94FE
:101FC000DD0F08950C94E10F0E94D60F0E94DE0FE2
:101FD0000C94DF0F0C9469080E94651B0E942D076A
:101FE0000E94BE1B0C94E20FCF93C82F80914D042A
:101FF00082FF1EC080FF1CC085E393E00E94F202B6
:1020000080914D0480FF14C01F92CF9380E393E032
:102010009F938F930E948B0380914D040F900F909C
:102020000F900F9080FF04C08EE293E00E94F202B6
:102030008C2FCF910C947404BF92CF92DF92EF92C9
:10204000FF920F931F93CF93DF93CDB7DEB72A97FD
:102050000FB6F894DEBF0FBECDBF0E94AF070E943F
:10206000EA0F882309F45EC08EEDC82E83E0D82ED7
:1020700010E000E0B02E802F0E94DC06E82EF60172
:10208000F1906F01F81609F447C080914D0481FD6D
:102090000E94E2069F2D9E2580E0FF24F394292FC5
:1020A0002F21B1F18E83BF82EF2081E009F480E01F
:1020B00088870E946E1B8160782F9A8789874E815E
:1020C0005F8168858A850E94B310F801E252FC4F57
:1020D0008081F826F0820E94EB1D0E94440F9091AF
:1020E000DD03891781F10E94440F8093DD032A9656
:1020F0000FB6F894DEBF0FBECDBFDF91CF911F9119
:102100000F91FF90EF90DF90CF90BF900C94F40F61
:102110008F5FFF0C853019F60F5F1F4F08301105D8
:1021200009F0A8CF8FEF89838A831B820E946E1BE0
:102130008160782F9D838C8349815A816B818D8149
:102140000E94B310C8CF2A960FB6F894DEBF0FBE18
:10215000CDBFDF91CF911F910F91FF90EF90DF9056
:10216000CF90BF900895CF93DF93CDB7DEB72B9775
:102170000FB6F894DEBF0FBECDBF4F835887698777
:102180007A878B871E821D8285E0FE013796DE01ED
:10219000119601900D928A95E1F749815A816B81E0
:1021A0007C818D819E812B960FB6F894DEBF0FBE89
:1021B000CDBFDF91CF910C949D16FC018081918160
:1021C0000C94DE18CF93C82F882309F447C08CEFF6
:1021D0008C0F813AA0F46C2F80911B0390911C030B
:1021E0000E94A91A882329F08C2F0E9413190E949B
:1021F00073198C2F0E940C19CF910C94731980E2E3
:102200008C0F883048F4C77081E001C0880FCA95F0
:10221000EAF70E943419F0CFEBE5EC0FE33040F41D
:10222000F0E0E656FC4F808190E0CF910C94AA0F2D
:10223000E8E5EC0FE73150F4F0E0EE0FFF1FE45952
:10224000FC4F80819181CF910C94C00FC03F30F042
:102250008C2F0E94631CCF910C944E1DCF9108953A
:10226000882361F19CEF980F913A20F40E94131992
:102270000C94731990E2980F983050F4877091E0A5
:1022800001C0990F8A95EAF7892F0E943A19F0CF79
:102290009BE5980F933020F490E080E00C94AA0F17
:1022A00098E5980F973120F490E080E00C94C00FEF
:1022B000803F20F00E94CB1C0C944E1D0895CF93BC
:1022C000C82F0E94E210C93349F42FEF87EE93E044
:1022D000215080409040E1F700C000008C2FCF914A
:1022E0000C943011882321F00E9434190C94731936
:1022F0000895882321F00E943A190C9473190895C7
:10230000BF92CF92DF92EF92FF920F931F93CF93E2
:10231000DF937C01D62FC72FFC01058102950F703A
:10232000128111110E9454190E942A19D82E882353
:1023300091F01123E9F08C2F807F803421F080E22E
:102340008D0F8830A8F082E00E94BE190E942A19E1
:1023500091E0D82ED926CC2EC2949FE0C922FBE072
:10236000FC15A8F1EC2DF0E0E151F94D0C9491260B
:10237000D12CF1CF0C2F0F70C07F11F00295007F90
:102380001123A9F0002359F080E28D0F883010F05E
:10239000D11109C0802F0E9434190E9473198D2F0A
:1023A0000E94E21014C0802F0E944719F6CF8D2F93
:1023B0000E943011002359F080E28D0F883010F018
:1023C000D1112BC0802F0E943A190E947319EC2D55
:1023D000E850FF0B349720F40E94440F0E947404CD
:1023E000DD2009F488C10E94261980FD84C1F7010F
:1023F00012820E9420190E94A917C7010E949C13F3
:102400000E942019DF91CF911F910F91FF90EF90C3
:10241000DF90CF90BF900C94CA17802F0E944D1967
:10242000D4CF2C2F2F70B22EC07FC03219F0B294AF
:1024300080EFB822DD2339F0D13019F1112361F199
:10244000002321F1ACCF112381F0011106C00E94BD
:102450005A198B290E947211BACF0130C1F70E941C
:102460005A198B290E946019B2CF011106C00E942F
:1024700069198B2D0E947911AACF013009F4A7CFD9
:10248000F6CF112329F0063008F0A1CF8B2DE2CF33
:10249000053008F09CCFEDCF002359F3D93349F430
:1024A0003FEF87EE93E0315080409040E1F700C06D
:1024B00000008D2F0E9430118ACF8C2F8695869533
:1024C000837069F0813009F082CF8D2F9C2F93703B
:1024D000111102C090E080E00E94C00F78CF8D2FD4
:1024E0009C2F9370111102C090E080E00E94AA0F0F
:1024F0006ECF8D2F112329F00E94631C0E944E1D68
:1025000066CF0E94CB1CFACF8C2F837009F041C09C
:1025100011115DCF4D2F429546954770440F440FE2
:102520000D2F0F7010E030E020E0042E04C0000FEB
:10253000111F221F331F0A94D2F760E070E0CB0115
:10254000D4FF0FC06FE070E080E090E004C0660F41
:10255000771F881F991F4A95D2F7609570958095CF
:102560009095C695C695C370602B712B822B932BCB
:10257000C23049F058F4C13019F00E945B1727CFE0
:102580000E94491724CF0E946D1721CF0E94471740
:102590001ECF8695112311F08C2F8170882309F4AA
:1025A00016CF4D2F429546954770440F440F0D2F7F
:1025B0000F7010E030E020E0042E04C0000F111F67
:1025C000221F331F0A94D2F760E070E0CB01D4FFE2
:1025D0000FC06FE070E080E090E004C0660F771FEE
:1025E000881F991F4A95D2F76095709580959095B0
:1025F000C695C695C370602B712B822B932BC2306E
:1026000049F058F4C13019F00E942018E0CE0E9421
:102610000E18DDCE0E943218DACE0E948317D7CE74
:10262000CF70112329F08C2F0E94A9178D2F12CF64
:102630008D2F0E9479118C2F0E94CA17C8CED23FCD
:1026400089F160F4D03FC9F0D13F29F1112309F499
:1026500042C00111A4CE8C2F8F7121C0D33F39F11C
:10266000D43FA1F7112369F1CF718C2F0E94A917D4
:1026700063E08C2F0E94A919AACE112341F00530E6
:1026800008F0A5CE8C2F8F710E94ED17A0CE0630DA
:1026900008F09DCEF7CF8C2F8F71112369F20E9425
:1026A000A91795CE8C2F8F711123C9F3C5CF112394
:1026B00029F08C2F8F710E94941789CE0E948F175A
:1026C00086CE81E00E94BE19023008F480CE82E0FE
:1026D0000E94BE197CCE002359F0D93309F0E9CE0F
:1026E000EFEFF7EE23E0E150F0402040E1F7DFCEDE
:1026F0008C2F8F71A1CFDF91CF911F910F91FF9000
:10270000EF90DF90CF90BF9008950F931F93CF93DA
:10271000DF93EC01688179818A810E94E8188C013D
:102720000E9444180E944617B801CE01DF91CF9154
:102730001F910F910C948011CF93DF93EC018B814B
:102740009C81892B29F08881998189238F3F59F4B5
:10275000DF91CF910895CE010E948513CE01DF91C4
:10276000CF910C945404CE010E948C048111F3CFBC
:102770000E942A19882361F38A81882349F382E021
:10278000DF91CF910C94BE19882321F00E94471944
:102790000C9473190895882321F00E944D190C940C
:1027A000731908950E9454190E9457190E947319B1
:1027B0000E94F71E0E944E1D90E080E00E94AA0F2A
:1027C00090E080E00C94C00F0E941A190C94D21370
:1027D0000E9441190C94E413E92FE295EF70E25046
:1027E000EE3070F4F0E0E550F94D0C949126803F06
:1027F00019F020F4883E20F481E00895843FE1F34D
:1028000080E00895883EC0F3813FD1F7F5CF93FB78
:10281000882780F908950E94DE180C94EC13CF935A
:10282000DF9300D000D00F92CDB7DEB70F900F909E
:102830000F900F900F90DF91CF910895CF93DF937A
:1028400000D000D000D0CDB7DEB726960FB6F894F2
:10285000DEBF0FBECDBFDF91CF9108951F93CF9301
:10286000DF93C091E70316E08091E8038C1304C066
:10287000DF91CF911F910895D0E01C9FF0011D9F23
:10288000F00D1124E751FC4F408151816281738129
:10289000848195810E941E142196C770E5CF4091D6
:1028A000190450911A0460911B0470911C048091CA
:1028B0001D0490911E040C941E142091E703909126
:1028C000E80356E0291302C080E0089530E0529FEB
:1028D000F001539FF00D1124E751FC4F71817613E5
:1028E00006C07081781303C07281741304C02F5F17
:1028F0003F4F2770E7CF81E008951F93CF93DF9379
:1029000080911E04807FA9F480911B04882389F0A4
:102910008091E703C091E8036091190470911A0453
:10292000A0911C04B0911D04D62FD72316E0C81324
:1029300004C0DF91CF911F91089590E0109711F09E
:10294000DF3F19F401968770F2CF189F9001199F0D
:10295000300D1124F901E751FC4F41814713F2CFAB
:1029600040814613EFCF42814111ECCF4381548126
:102970004A1B5B0B483C510528F780911E048F7061
:10298000806180931E04F901E251FC4F80818F70B9
:102990008061808389E194E00E949C13DF91CF9154
:1029A0001F910C942E148F929F92AF92BF92CF9250
:1029B000DF92EF92FF920F931F93CF93DF93CDB7E8
:1029C000DEB761970FB6F894DEBF0FBECDBF8C01A6
:1029D00085E0F801DE011D9601900D928A95E1F7E0
:1029E000D801EC901196FC9011971296CC9012970A
:1029F00089E1A82E84E0B82E40911C0450911D045A
:102A00004115510509F474C19091190420911A04DB
:102A1000892F82238F3F09F46BC113968D909C9070
:102A20001497D0901B04F401E41BF50BDD2009F48E
:102A30000AC180911E04382F307FE83CF10508F070
:102A4000C1C0311189C0DC2C2F1126C09E1124C0B9
:102A5000C11022C08F70806180931E040E944F14A9
:102A6000C5010E949C1380911E04D80115968C9379
:102A70008D2D61960FB6F894DEBF0FBECDBFDF91EE
:102A8000CF911F910F91FF90EF90DF90CF90BF906B
:102A9000AF909F908F9008958114910429F08F2D0D
:102AA0008E218F3F09F043C180E080FF15C04C2D7F
:102AB0006F2D8E2D0E945D14882371F089E194E0C2
:102AC0000E949C1386E0E9E1F4E0DF011D928A9503
:102AD000E9F70E944F143EC0892829F08F2D8E21DE
:102AE0008F3F09F021C180E0B82FB170AB2E80FF7D
:102AF00029C04C2D6F2D8E2D0E945D14B82E811192
:102B000021C0ED86FE868D859E850E94DE18292FC8
:102B100022952F70223050F0243078F49F7051F0BD
:102B2000F8019581907F31F4DB2CA2CF9F7011F0DA
:102B30008823D1F3805E8830B8F3C8010E949C13CB
:102B4000BA2CF2CFCC2009F493CF80911E0481607F
:102B500080931E04D12C8CCF2F1105C09E1103C071
:102B6000CC2009F48DC0ED86FE868D859E850E9461
:102B70000B14882319F1CC2009F180911E048032B6
:102B800070F02091190430911A0438872F83198628
:102B90009B868A868C87CE0107960E949C1386E0CE
:102BA000F801A9E1B4E001900D928A95E1F70E9445
:102BB0007D140E944F14DD24D3945ACFC8010E9483
:102BC0009C13F9CF311112C0782D998A888AA701F8
:102BD0006C2D89890E940F1489E194E00E949C1356
:102BE00086E0F50111928A95E9F773CF2F110FC096
:102BF0009E110DC0C1100BC015968C93C8010E9488
:102C00009C1386E0F50111928A95E9F731CFED86A4
:102C1000FE868D859E850E940B14882379F2CC2038
:102C200069F280911E04803208F4B9CF2091190412
:102C300030911A043A8329831B829D828C828E8371
:102C4000CE010196AACFE83CF10508F043C0DC2C88
:102C5000CC2009F4B3CF2F112CC09E112AC0809133
:102C60001E0480FD1DC0982F907FD1F015968C9387
:102C70001597903F39F0982F907F905F8F70892B38
:102C800015968C93C8010E949C1386E0F801A9E177
:102C9000B4E001900D928A95E1F70E944F14E8CEBE
:102CA00086E0F801A9E1B4E001900D928A95E1F780
:102CB000DFCEED86FE868D859E850E940B148111E8
:102CC0006ECF80911E04816080931E04C8010E9413
:102CD0009C13CECE782D998A888AA7016C2D89897C
:102CE0000E940F1486E0F50111928A95E9F7D5CF7D
:102CF000CC2009F463CFED86FE868D859E850E94EB
:102D00000B14D82E882309F459CF86E0F801A9E1E5
:102D1000B4E001900D928A95E1F789E194E00E9478
:102D2000DD100E947D14B9CF81E08C25DDCE81E0DD
:102D30008C25BBCE88EC90E008951F93CF93DF9352
:102D4000CDB7DEB72C970FB6F894DEBF0FBECDBF60
:102D50004F83588769877A878B879C87CE01079630
:102D60000E94D314882369F08A859B85892B39F0CA
:102D70004F815885842F85238F3F09F071C016E05D
:102D80005FC086E0FE013796DE01119601900D923C
:102D90008A95E1F78A859B85892B89F38F819885B0
:102DA00089238F3F61F32091E80330E0C901019648
:102DB000877099274091E7034817190671F40E941C
:102DC000E8131092E8031092E70386E0E9E1F4E0EB
:102DD000DF011D928A95E9F7D2CF96E0929FD0014C
:102DE000939FB00D1124A751BC4FFE013196019065
:102DF0000D929A95E1F78093E8030E942E14BFCFBD
:102E0000819FC001112487519C4F0E94D3148823B5
:102E1000E9F0E091E7031E9FF0011124E751FC4F18
:102E20004081518162817381848195810E941E1449
:102E30008091E70390E00196877099278093E703DC
:102E40008091E7039091E8038913DACF2C960FB6AF
:102E5000F894DEBF0FBECDBFDF91CF911F910895D3
:102E600069857A858B859C850E941E1488CF08957C
:102E70000C9437170E94381760933C0470933D04FC
:102E800080933E0490933F040C94D21308950C94C5
:102E90003A170F931F9300913C0410913D04209129
:102EA0003E0430913F04602B712B822B932B1F919A
:102EB0000F910C943A170F931F9300913C041091BB
:102EC0003D0420913E0430913F046023712382230E
:102ED00093231F910F910C943A170F931F93009116
:102EE0003C0410913D0420913E0430913F04602742
:102EF0007127822793271F910F910C943A170C94F6
:102F000037170C947F170E948117609338047093D1
:102F1000390480933A0490933B040C94D21360E0FC
:102F200070E0CB010C9483170F931F9341E050E0A6
:102F300060E070E08A019B0104C0000F111F221F96
:102F4000331F8A95D2F7C901B8011F910F910C94D4
:102F500083170F931F9341E050E060E070E004C0DE
:102F6000440F551F661F771F8A95D2F7809138044A
:102F700090913904A0913A04B0913B048A019B01DD
:102F8000082B192B2A2B3B2BC901B8011F910F913C
:102F90000C9483170F931F9341E050E060E070E0C2
:102FA00004C0440F551F661F771F8A95D2F7CB01C7
:102FB000BA016095709580959095009138041091B4
:102FC000390420913A0430913B0460237123822319
:102FD00093231F910F910C9483170F931F9341E03C
:102FE00050E060E070E004C0440F551F661F771F7B
:102FF0008A95D2F78091380490913904A0913A04CF
:10300000B0913B048A019B01082719272A273B27F7
:10301000C901B8011F910F910C9483170F931F934F
:10302000009138041091390420913A0430913B0406
:10303000602B712B822B932B1F910F910C94831774
:103040000F931F93009138041091390420913A0492
:1030500030913B0460237123822393231F910F91AE
:103060000C9483170F931F93009138041091390427
:1030700020913A0430913B046027712782279327DF
:103080001F910F910C9483170895E92FEE0FEE0F07
:103090009E0F890F982F977041E001C0440F9A95B9
:1030A000EAF786958695869595E0899FF00111242B
:1030B000E15EFB4F30E020E070E05191DF011197BD
:1030C000CB01022E02C0969587950A94E2F7817093
:1030D00081958527842385278C932F5F3F4F25304B
:1030E000310559F70895E92FEE0FEE0F9E0F890F66
:1030F000982F977086958695869525E0829FF0019A
:103100001124E15EFB4F50E040E080E0219130E08F
:10311000092E02C0369527950A94E2F721703327CD
:10312000042E01C0220F0A94EAF7822B4F5F5F4FF3
:103130004530510559F70895BF92CF92DF92EF9233
:10314000FF920F931F93CF93DF938C01C0903804AD
:10315000D0903904E0903A04F0903B0480913C0414
:1031600090913D04A0913E04B0913F04C82AD92A11
:10317000EA2AFB2ACFE1D0E0BC2ED701C6010C2EF3
:1031800004C0B695A795979587950A94D2F780FDC8
:103190000EC0219788F7B12C8B2DDF91CF911F9115
:1031A0000F91FF90EF90DF90CF90BF900895B801FE
:1031B0008C2F0E940205019761F3EECFCF93DF932E
:1031C000EC010E949C18BE01DF91CF910C94020586
:1031D0001F93CF93DF93EB019091E603992331F096
:1031E000CB01DF91CF911F910C94DE18882379F0E9
:1031F000CB010E949C18182F682FCE010E94451801
:10320000BE01812FDF91CF911F910C940205CB015C
:103210000E947318182FF4CF682F80911B03909190
:103220001C030C94DF1A682F80911B0390911C03E0
:103230000C94E11A80911B0390911C030C94E31AE7
:1032400080914004859585958595089580914004E9
:103250008770089590914004977081E009F480E0B0
:10326000089580914C04089590914C04892B80938B
:103270004C040895809590914C04982390934C04AD
:10328000089510924C04089580914B0408959091F4
:103290004B04892B80934B040895809590914B04A7
:1032A000982390934B04089510924B040895109224
:1032B0004A04089580914104089508950C945D197D
:1032C00090914104981721F0809341040C945E1969
:1032D000089580914104882329F01092410480E0F0
:1032E0000C945E190895E0911B03F0911C038091EA
:1032F0004C048083E0911B03F0911C03808190912A
:103300004B04892B8083E0911B03F0911C03808187
:1033100090914A04892B808390914104992381F0F4
:10332000E0911B03F0911C038081892B80838091A5
:103330001B0390911C030E94971A81110E94691926
:1033400080911B0390911C030C94500F08950C94D2
:10335000A61998E0899F90011124622B6093400484
:103360000E94A917809140048595859585950C94B8
:10337000A7191092400480E00C94A7199091400482
:103380008095892380934004282F277071F4282F7B
:10339000082E000C330B9217130639F0859585958E
:1033A00085950E94CA170C94B91908959093AD039E
:1033B0008093AC030895829590E09C01220F331F07
:1033C000220F331F2C7C9595879595958795837350
:1033D000282B30E0C901880F991F8A7A35952795E7
:1033E0002575822B089590E080E00E94B32621E0AD
:1033F0008C3E9E4F09F020E0822F089582E090E0FD
:103400000C94AB2683E090E00C94AB26CF9384E041
:1034100090E00E94AB26C82F81E290E00E94AB268C
:10342000982F8C2FCF910895CF93C92F682F84E0C8
:1034300090E00E94B9266C2F81E290E0CF910C942D
:10344000B926AB01BC018FE090E00C94CB26AB0118
:10345000BC0183E190E00C94CB2660E070E0CB01EE
:103460000C94271A60E070E0CB010E94211A0C94A2
:103470002D1A6CEE7EEF90E080E00E94D72660E08F
:1034800082E090E00E94B92660E083E090E00E9434
:10349000B92610923C0410923D0410923E04109202
:1034A0003F0460E084E090E00E94B92660E081E2A1
:1034B00090E00E94B92660E085E090E00E94B92685
:1034C00060E086E090E00E94B9266FEF87E090E030
:1034D0000E94B92640E050E0BA0188E090E00E94E6
:1034E000CB2660E08DE090E00E94B92640E050E0FD
:1034F000BA0188E190E00E94CB2660E087E190E08D
:103500000E94B92640E050E0BA018CE190E00E94B0
:10351000CB2660E080E290E00E94B9260C94321A3B
:103520000C94391A682F8EE090E00C94B9269C0117
:103530002E5F3F4FAC01485F5F4F80E02417350797
:1035400009F40895F90191919F019923B9F38F5FCF
:10355000F5CF662349F0FC01329608962191261793
:1035600029F0E817F907D1F780E0089581E0089580
:103570009C01FC0132969FEF80E04191461751F08B
:103580009F3F19F4411101C0982F8F5F8630A9F732
:103590009F3F09F40895290F311D97FD3A95F901D0
:1035A00062830895FC01329608962191261303C088
:1035B000DF0111971C92E817F907B9F708950C94E9
:1035C000B81A0C94D21A029626E0FC0111922A95A0
:1035D000E9F70895089508950C94EB1A0E94EC1AE7
:1035E00080918704843049F110924E0488E190E084
:1035F00020E40FB6F894A895809360000FBE209346
:10360000600080E00E9474040E94EC1A83B7817FFE
:10361000846083BF83B7816083BF7894889583B7C4
:103620008E7F83BF0FB6F894A89580916000886163
:1036300080936000109260000FBE08950895CF93AC
:103640000E94EA1A0E94AF070E941E1BC0E08C2F46
:103650000E94DC06811105C0CF5FC830C1F7CF9151
:10366000089581E0FCCF08950C94331B0E94E81369
:103670000E94440F0E9474040C94341B1F921FB6C6
:103680001F9211248F939F93AF93BF9380914E0409
:10369000811113C080917D0490917E04A0917F04DC
:1036A000B09180044196A11DB11D80937D0490933B
:1036B0007E04A0937F04B0938004BF91AF919F914B
:1036C0008F911F901FBE1F90189582E084BD93E0DC
:1036D00095BD9AEF97BD80936E0008952FB7F8942B
:1036E00080917D0490917E04A0917F04B09180042C
:1036F0002FBF08959C014FB7F89480917D0490915D
:103700007E04A0917F04B09180044FBF821B930B75
:10371000089578941F921FB61F9211248F939F9340
:10372000AF93BF9380917D0490917E04A0917F041C
:10373000B09180040196A11DB11D80937D049093EA
:103740007E04A0937F04B0938004BF91AF919F91BA
:103750008F911F901FBE1F90189587E797E7909352
:1037600001088093000888E19AE00FB6F894A895C4
:10377000809360000FBE90936000FFCF0E94F3190A
:10378000811102C00E94901A0E94FE1980934D047C
:103790000E94061A90938204809381040E94021A68
:1037A000682F70E090E080E00E9447176091380435
:1037B0007091390480913A0490913B040C948117E4
:1037C0008091570480FF12C06091210385E0689FBB
:1037D000B0011124759567957595679560387105E9
:1037E000A8F561157105A1F1862F089581FF09C023
:1037F0006091210385E0689FB0011124759567955C
:10380000EDCF6091210382FD0AC080915604882388
:10381000D1F09091200360912103891728F085E071
:10382000689FB0011124DACF869FB001112485E092
:10383000869F9001879F300D1124692F70E0C90188
:103840000E947D26CBCF65E070E0CECF8FE7089554
:1038500081E008958091570480FF0CC060911E03A1
:1038600070E075956795759567956115710549F1D6
:10387000862F089581FF06C060911E0370E0759544
:103880006795F3CF60911E0382FD0BC090915504A4
:103890009923A1F060911D0380911E03961738F0C3
:1038A000682F70E06038710500F38FE70895899FF5
:1038B000C001112470E00E947D26F4CF61E070E029
:1038C000D7CF81E00895803F31F40E94E01B8195BD
:1038D00080935B040895813F19F40E94E01BF8CFA8
:1038E000823F31F40E94E01B819580935A04089531
:1038F000833F19F40E94E01BF8CF893F29F40E940E
:103900002A1C80935C0408958A3F21F40E942A1C9B
:103910008195F7CF8B3F31F40E942A1C81958093CB
:103920005D0408958C3F19F40E942A1CF8CF843F4F
:1039300031F4809159048160809359040895853F42
:1039400021F4809159048260F7CF863F21F4809161
:1039500059048460F1CF873F21F480915904886035
:10396000EBCF883F21F4809159048061E5CF8D3FF2
:1039700031F48091570481608093570408958E3FFD
:1039800021F4809157048260F7CF8F3FB9F780917F
:1039900057048460F1CF90915A04803F59F480918C
:1039A0005B0487FF0DC010925B0491110BC0109255
:1039B000560408C0813F81F480915B0418169CF383
:1039C000992381F080915C0490915D04892B09F02A
:1039D00064C0109255040895823F49F497FFF0CFD8
:1039E00010925A0480915B048111ECCFE0CF833FA9
:1039F00019F41916ACF3E4CF20915C04893F29F443
:103A00001216F4F610925C04DBCF8A3F19F427FFFC
:103A1000D7CFF8CF20915D048B3F29F427FFD0CF7B
:103A200010925D04CDCF8C3F19F41216CCF3C8CFA1
:103A3000843F31F4809159048E7F80935904C0CF24
:103A4000853F21F4809159048D7FF7CF863F21F483
:103A5000809159048B7FF1CF873F21F480915904E5
:103A6000877FEBCF883F21F4809159048F7EE5CF8B
:103A70008D3F31F4809157048E7F80935704A0CFFF
:103A80008E3F21F4809157048D7FF7CF8F3F09F04F
:103A900097CF809157048B7FF0CF089580914D048C
:103AA00083FF7EC08FE693E00E94F202809159046A
:103AB0001F928F938AE693E09F938F930E948B03CC
:103AC00088E693E00E94F20280915A04282F082E83
:103AD000000C330B3F938F9385E693E09F938F9376
:103AE0000E948B0383E693E00E94F20280915B04C4
:103AF000282F082E000C330B3F938F9380E693E022
:103B00009F938F930E948B038EE593E00E94F202B5
:103B100080915C04282F082E000C330B3F938F9369
:103B20008BE593E09F938F930E948B0389E593E04D
:103B30000E94F20280915D04282F082E000C330BA6
:103B40003F938F9386E593E09F938F930E948B031F
:103B500083E593E00E94F202809156041F928F93B6
:103B600080E593E09F938F930E948B038EE493E014
:103B70000E94F202809157041F928F938BE493E08E
:103B80009F938F930E948B0388E493E00E94F2023C
:103B90008DB79EB74C960FB6F8949EBF0FBE8DBFE3
:103BA0000E946E1B9C0190915A0480915B04982B9B
:103BB00021F0309354042093530490915C0480913D
:103BC0005D04982B21F0309352042093510488E532
:103BD00094E00C949C0FEF92FF920F931F93CF935E
:103BE000DF9300D000D000D0CDB7DEB786E0E8E5A7
:103BF000F4E0DE01119601900D928A95E1F7E090D4
:103C00005A04F0905B0400915C0410915D041092E2
:103C10005A0410925B0410925C0410925D048E2D85
:103C20008F2991F080915304909154040E947A1B43
:103C3000AC0190915604992309F43FC0809122036E
:103C40008417150608F447C0802F812B91F08091CE
:103C50005104909152040E947A1BAC01909155043A
:103C6000992309F477C080911F038417150608F47F
:103C70007FC080915A0490915B04892B90915C04E1
:103C8000892B90915D04892B11F00E944E1D86E0D6
:103C9000FE013196A8E5B4E001900D928A95E1F716
:103CA00026960FB6F894DEBF0FBECDBFDF91CF9141
:103CB0001F910F91FF90EF900895209150048AE09A
:103CC000289F900111242417350708F0BDCF9F5F6E
:103CD0009093560402C09F3FD1F7EE2059F00E9406
:103CE000E01B9FEF1E140CF491E0899F802D11249E
:103CF00080935A04FF2059F00E94E01B9FEF1F148D
:103D00000CF491E0899F802D112480935B04309105
:103D10005A04332309F498CF20915B04222309F439
:103D200093CF45EB3403C0011124992359F09093AC
:103D30005A0445EB240390011124332339F03093C6
:103D40005B0482CF81E080935A04F3CF81E08093BB
:103D50005B047ACF20914F048AE0289F90011124C0
:103D60002417350708F085CF9F5F9093550402C054
:103D70009F3FD1F7002359F00E942A1C9FEF101695
:103D80000CF491E0899F802D112480935C04112311
:103D900059F00E942A1C9FEF11160CF491E0899FA4
:103DA000802D112480935D0430915C04332309F449
:103DB00060CF20915D04222309F45BCF45EB3403EF
:103DC000C0011124992359F090935C0445EB24031E
:103DD00090011124332339F030935D044ACF81E000
:103DE00080935C04F3CF81E080935D0442CF86E052
:103DF000E8E5F4E0DF011D928A95E9F71092560498
:103E00001092550410925704089580916904089502
:103E10009FB7F894109260049FBF909187049430EC
:103E200009F048C02091E9002F703091EC00932FE9
:103E3000917030FD90E8922B23E02093E9002091CF
:103E4000EB0020FF34C02091EE0027FF30C020910E
:103E50005E04222321F02091E80025FF28C0109263
:103E60005E0426E03091E80035FF14C08093F10035
:103E70008091E80085FD27C08091E80080FFFCCF9D
:103E80008091E8008E778093E8009F709093E9001E
:103E900080E0089530918704343049F43091EB008C
:103EA00035FD05C0215041F481E080935E049F7090
:103EB0009093E9008FEF0895EFE9FFE03197F1F774
:103EC00000C00000CFCF8FB7F89421E020936004AA
:103ED0008FBFDBCFCF93DF9300D00F92CDB7DEB78C
:103EE00090918704943019F589837B836A8382E0FB
:103EF0008093E9008FEF9091E800815095FD06C016
:103F000095ED9A95F1F700008111F5CF8091E800C9
:103F100085FF0DC050E040E063E070E0CE01019607
:103F20000E94E1218091E8008E778093E8000F9055
:103F30000F900F90DF91CF910895BC0184E00C9415
:103F40006A1FBC0183E00C946A1F9C0182E080938D
:103F5000E9009FEF8091E800915085FD06C085ED56
:103F60008A95F1F700009111F5CF8091E80085FF67
:103F70000CC050E040E066E070E0C9010E94E12121
:103F80008091E8008E778093E8000895CF93DF93C7
:103F9000EC0181E08093E9008FEF9091E80081507F
:103FA00095FD06C095ED9A95F1F700008111F5CFCA
:103FB0008091E80085FF14C050E040E068E070E0C8
:103FC000CE010E94E1218091E8008E778093E80085
:103FD00088E0FE01A1E6B4E001900D928A95E1F738
:103FE000DF91CF91089587EB93E00E94F2028091D8
:103FF0008604811109C00E9471230E94CE23809102
:10400000E20084608093E200089583EB93E00E94D5
:10401000F2021092860408958FEA93E00C94F20263
:104020008BEA93E00C94F20287EA93E00E94F2029A
:104030000C94361B20915F042F5F822F62E30E9455
:104040007126992319F020935F04089510925F045C
:10405000809160048823F1F0809187048430C1F45A
:104060009091E9009F702091EC00822F817020FDDB
:1040700080E8892B93E09093E9009091EB0090FF0A
:1040800004C09091EE0097FD08C08F708093E90006
:104090001092600408951092F1009091E80095FD4F
:1040A000FACF9091E80090FFF0CF9091E8009E77D2
:1040B0009093E800EACF42E061EC81E00E94ED22BB
:1040C00042E261EC82E00E94ED2242E261EC83E098
:1040D0000C94ED2280918904833009F45FC030F4A0
:1040E0008130C1F1823009F49BC008958A3009F40F
:1040F00087C08B3009F46DC0893009F04EC08091C3
:104100008804813209F049C080918C0490918D041B
:10411000029708F042C08091E800877F8093E80012
:104120008091E80082FF35C09091F3008091F20009
:10413000029729F48091F1008B7F813021F48091E6
:10414000F100809369048091E8008B778093E80008
:104150000C94212380918804813AF9F48091E8003D
:10416000877F8093E80080918C0490918D04892B47
:1041700061F468E081E694E070E00E943022809172
:10418000E8008B778093E800089560E090E080E09D
:10419000F3CF809187048111C3CF08958091880463
:1041A000813AD9F780918C0490918D04892BA9F7DD
:1041B0008091E800877F8093E8008091E80080FF8D
:1041C000FCCF80912D038093F1008091E8008E77E1
:1041D000BDCF80918804813201F780918C04909149
:1041E0008D04892BD1F68091E800877F8093E800C9
:1041F0000E94212380918A0480932D030C94E8135C
:1042000080918804813249F68091E800877F80930D
:10421000E8000E94212380918B0480936A04089512
:1042200080918804813A09F0B8CF8091E800877FB7
:104230008093E8008091E80080FFFCCF80916A04C1
:10424000C2CF84B7877F84BF0FB6F894A8958091BA
:104250006000886180936000109260000FBE80E86B
:1042600090E00FB6F89480936100909361000FBEC8
:104270000E94E40F0E9471230E94CE238091E200ED
:1042800084608093E20088E09FE10E94D6197894D0
:104290000E9456260E94EC0F83E293E00E943F0F9B
:1042A00086E993E00E94F20280918704853019F03C
:1042B0000E941C10F9CF82E993E00E94F2020E9452
:1042C000EE1A80918504882379F30E941F1B8823AE
:1042D00059F30E94CB21E8CF0C946E21292F33276C
:1042E0002330310521F168F42130310509F449C04A
:1042F0002230310509F44AC090E080E030E020E04F
:1043000029C02132310581F122323105A9F763300C
:10431000710590F7FB01EE0FFF1FE056FC4F208167
:10432000318163567C4FFB01808190E013C0992757
:104330008130910599F0009741F08230910589F024
:104340000397D1F6EBEBF3E002C0E5EEF3E08491E6
:1043500090E09F01FA01318320830895E5EDF3E0B9
:10436000F6CFE1ECF3E0F3CF6330710528F6660F8A
:10437000771FFB01EA55FC4F2081318189E090E0F5
:10438000E9CF82E190E024E434E0E4CF8BE590E0F3
:1043900029EE33E0DFCF80E189BD82E189BD09B438
:1043A00000FEFDCF8091D8008F7D8093D800809152
:1043B000E00082608093E0008091E00081FDFCCF0E
:1043C0000895AF92BF92CF92DF92FF920F931F9307
:1043D000CF93DF936C01EB018A010E944023F82EFA
:1043E000811123C00115110539F0F80180819181F7
:1043F000C81BD90BC80ED91EB12CA12C2097A9F02F
:104400008091E80085FD22C08091E8008E7780933E
:10441000E80001151105A1F0F80180819181A80E35
:10442000B91EB182A08285E0F82E8F2DDF91CF9149
:104430001F910F91FF90DF90CF90BF90AF900895A4
:104440000E9440238823D1F2F82EEFCFF60181910C
:104450006F018093F1002197FFEFAF1ABF0ACECF13
:10446000FC0180918E0490918F0486179707A0F02D
:104470006115710529F49091E8009E779093E8000A
:1044800090E06115710551F4911108C08091E80028
:1044900082FF34C080E00895BC01F2CF8091870490
:1044A0008823C1F18530C1F18091E80083FD30C0DF
:1044B0008091E80082FDEACF8091E80080FFE1CFA3
:1044C0008091F3002091F200382F6115710519F0E9
:1044D0002830310558F091E02830310509F090E09E
:1044E0002091E8002E772093E800CBCF8191809334
:1044F000F100615071092F5F3F4FE7CF8091870432
:10450000882341F0853041F08091E80083FFBECFE1
:1045100081E0089582E0089583E00895FC01809190
:104520008E0490918F0486179707A0F0611571058E
:1045300029F48091E8008E778093E80090E061157F
:10454000710551F4911108C08091E80082FF35C0D7
:1045500080E00895BC01F2CF809187048823C9F1DF
:104560008530C9F18091E80083FD31C08091E80079
:1045700082FDEACF8091E80080FFE1CF8091F300D7
:104580002091F200382F6115710519F0283031059E
:1045900058F091E02830310509F090E08091E80072
:1045A0008E778093E800CBCF84918093F100319691
:1045B000615071092F5F3F4FE6CF809187048823B8
:1045C00041F0853041F08091E80083FFBDCF81E06C
:1045D000089582E0089583E00895982F973028F099
:1045E0008F708093E90081E008959093E900242F73
:1045F000762F50E0981731F07091EC002091ED008B
:104600005091F00021FD02C09F5FE8CF3091EB0098
:104610003E7F3093EB003091ED003D7F3093ED0015
:104620003091EB0031603093EB007093EC002093FD
:10463000ED005093F0002091EE0027FDE5CF80E0E3
:1046400008958091880487FF13C08091E80082FF5D
:1046500006C08091E8008B778093E80004C08091C9
:1046600087048111F2CF0895809187048823D9F3BC
:104670008091E80080FFF8CF8091E8008E77ECCF42
:104680002091E4003091E50095E6A9012091EC002D
:10469000822F817020FF06C08091E80080FF06C055
:1046A00080E008952091E80022FD1AC080918704DF
:1046B000882389F0853089F08091EB0085FD0FC05B
:1046C0002091E4003091E50042175307F9F2915030
:1046D000E1F684E0089582E0089583E0089581E0A2
:1046E00008950E94DF230E94E723E0EEF0E080813E
:1046F00081608083E8EDF0E080818F77808319BC52
:10470000A7EDB0E08C918E7F8C9380818F7E80832B
:104710001092860408950F931F93CF93DF930E9406
:10472000DF230E94E723C8EDD0E088818F7788835C
:1047300088818068888388818F7D888319BC1092E6
:10474000870410928304109285041092840400EE72
:1047500010E0F80180818B7F80838881816088836D
:1047600042E060E080E00E94ED22E1EEF0E0808136
:104770008E7F8083E2EEF0E08081816080838081A3
:1047800088608083F80180818E7F8083888180614A
:104790008883DF91CF911F910F910895E8EDF0E0AC
:1047A00080818F7E8083E7EDF0E08081816080836F
:1047B00084E082BF81E0809386040C948B23E8ED33
:1047C000F0E080818E7F80831092E2000895109245
:1047D000DA001092E10008951F920F920FB60F9227
:1047E00011242F933F934F935F936F937F938F93F6
:1047F0009F93AF93BF93EF93FF938091E10082FF6C
:104800000BC08091E20082FF07C08091E1008B7FA6
:104810008093E1000E941A208091DA0080FF19C085
:104820008091D80080FF15C08091DA008E7F809340
:10483000DA008091D90080FF96C080E189BD82E1D5
:1048400089BD09B400FEFDCF81E0809387040E94FA
:10485000F31F8091E10080FF19C08091E20080FF8A
:1048600015C08091E2008E7F8093E2008091E2008B
:1048700080618093E2008091D80080628093D800AC
:1048800019BC85E0809387040E9410208091E1008C
:1048900084FF2BC08091E20084FF27C080E189BDA6
:1048A00082E189BD89B5982F917080FFFBCF8091FF
:1048B000D8008F7D8093D8008091E1008F7E809317
:1048C000E1008091E2008F7E8093E2008091E2001F
:1048D00081608093E20080918304882309F449C0B9
:1048E00084E0809387040E9414208091E10083FF7C
:1048F00029C08091E20083FF25C08091E100877F7D
:104900008093E10082E08093870410928304809179
:10491000E1008E7F8093E1008091E2008E7F8093A2
:10492000E2008091E20080618093E20042E060E07A
:1049300080E00E94ED228091F00088608093F0007A
:104940000E940C20FF91EF91BF91AF919F918F91A9
:104950007F916F915F914F913F912F910F900FBE7B
:104960000F901F90189519BC109287040E94052083
:1049700070CF8091E30087FD93E090938704B3CFDD
:104980001F920F920FB60F9211242F933F934F93C4
:104990005F936F937F938F939F93AF93BF93CF93C7
:1049A000DF93EF93FF93D091E900DF708091EC00EB
:1049B000C82FC17080FDC0E81092E9008091F0001E
:1049C000877F8093F00078940E9404251092E9007C
:1049D0008091F00088608093F000CD2BCF70C09361
:1049E000E900FF91EF91DF91CF91BF91AF919F913E
:1049F0008F917F916F915F914F913F912F910F9088
:104A00000FBE0F901F9018951F93CF93DF93CDB7D4
:104A1000DEB7AA970FB6F894DEBF0FBECDBF88E809
:104A200094E02091F100FC012193CF01F4E0803962
:104A30009F07B9F70E946A208091E80083FF1EC19A
:104A400080918804909189049A3008F017C1E92F69
:104A5000F0E0E75FF84D0C949126803899F08238A9
:104A600009F00CC180918C048F70873008F006C16A
:104A70008093E9008091EB0085FB882780F91092F4
:104A8000E90006C0809184049091850491118260B0
:104A90009091E800977F9093E8008093F100109246
:104AA000F1008091E8008E77E5C0882309F4D3C037
:104AB000823009F0E3C080918A048111D6C08091D0
:104AC0008C048F702FEF280F263008F0D7C080930A
:104AD000E9002091EB0020FFC8C0933031F48091B1
:104AE000EB0080628093EB00C0C09091EB0090617E
:104AF0009093EB0021E030E001C0220F8A95EAF7A5
:104B00002093EA001092EA008091EB008860EACFDF
:104B10008111B4C010918A041F778091E3008078DE
:104B2000812B8093E3008091E800877F8093E800E9
:104B30000E9421238091E80080FFFCCF8091E30058
:104B400080688093E30082E0111183E08093870402
:104B500095C08058823008F091C080918A0490916D
:104B60008B048C3D23E09207A1F583E08A838AE2DF
:104B700089834FB7F894DE01139620E03EE051E2BE
:104B8000E32FF0E050935700E49120FF03C0E2953B
:104B9000EF703F5FEF708E2F90E0EA30C0F0C79665
:104BA0008D939D932F5F243159F74FBF8091E8007B
:104BB000877F8093E8006AE270E0CE0101960E9450
:104BC00030228091E8008B778093E80057C0C09630
:104BD000E7CF60918C0470918D04AE014F5F5F4F01
:104BE0000E946C21BC01892B09F448C09091E80017
:104BF000977F9093E80089819A810E948E22E1CF6D
:104C00008038E1F58091E800877F8093E80080910B
:104C100083048093F10045CF811130C090918A04C4
:104C2000923060F58091E800877F8093E800909350
:104C300083040E94212380918304882311F084E05F
:104C400005C08091E30087FDFACF81E0809387045F
:104C50000E945B2013C080918A04813079F481E046
:104C6000933009F080E0809385041092E9008091F0
:104C7000E800877F8093E8000E9421238091E8006C
:104C800083FF0AC08091E800877F8093E8008091CD
:104C9000EB0080628093EB00AA960FB6F894DEBF1B
:104CA0000FBECDBFDF91CF911F910895CF9380911B
:104CB00087048823A1F0C091E900CF709091EC00A7
:104CC000892F817090FD80E8C82B1092E9008091B7
:104CD000E80083FD0E940425CF70C093E900CF91C6
:104CE0000895991B79E004C0991F961708F0961B48
:104CF000881F7A95C9F78095089597FB072E16F4BB
:104D0000009407D077FD09D00E94972607FC05D0B4
:104D10003EF4909581959F4F0895709561957F4FD2
:104D20000895EE0FFF1F0590F491E02D0994AA1B42
:104D3000BB1B51E107C0AA1FBB1FA617B70710F086
:104D4000A61BB70B881F991F5A95A9F780959095B8
:104D5000BC01CD010895F999FECF92BD81BDF89AAD
:104D6000992780B50895A8E1B0E042E050E00C94A6
:104D7000DF26262FF999FECF92BD81BDF89A0197C3
:104D800000B4021639F01FBA20BD0FB6F894FA9A93
:104D9000F99A0FBE08950396272F0E94BA260E9403
:104DA000B926252F0E94BA26242F0C94BA260196E4
:104DB000272F0E94BA260C94B926DC01CB01FC01F6
:104DC000F999FECF06C0F2BDE1BDF89A319600B464
:104DD0000D9241505040B8F70895F894FFCFBA11A2
:104DE000BA11111211125D127912E711E711841232
:104DF00010131F131F13F713F713001400140214DA
:104E0000001400140014F713F7130714001400140F
:104E100007142D2555253E2655253E268825A925EE
:064E20003E2600260C26D0
:104E2600860C960CA60C0000000000000000000096
:104E3600000000004E02860C960CA60C0000000036
:104E4600000000000000000000004A02860C960CDC
:104E5600A60C00000000000000000000000000009A
:104E66004602860C960CA60C00000000000000000E
:104E76000000000000004202860C960CA60C000002
:104E86000000000000000000000000003E02860C4A
:104E9600960CA60C000000000000000000000000B8
:104EA60000003A02860C960CA60C000000000000DA
:104EB60000000000000000003602860C960CA60CCE
:104EC60000000000000000000000000000003202A8
:104ED600860C960CA60C00000000000000000000E6
:104EE600000000002E02860C960CA60C00000000A6
:104EF600000000000000000000002A02860C960C4C
:104F0600A60C0000000000000000000000000000E9
:104F16002602860C960CA60C00000000000000007D
:104F26000000000000002202860C960CA60C000071
:104F36000000000000000000000000001E0211003A
:104F460030020B0027021C00300012002E000C005D
:104F5600340218002D0205002F020A00260217004F
:104F66002F0015002D00080034001A001F0214003F
:104F76003502CD02350200C702340200C1022E00FE
:104F860000BB022D0200B502280000AF021A010084
:104F9600A9024C0000A3022A00009D022E000097E1
:104FA6000234000091022D00008B023102008502BE
:104FB6006500007F024C000079024A000073024D32
:104FC60000006D0228000067022E000000000000AD
:104FD60000000000000000000000000000000000CB
:104FE60000000000000000000000000000000000BB
:104FF60000000000000000000000000000000000AB
:10500600000000000000000000000000000000009A
:10501600000000000000000000000000000000008A
:10502600000000000000000000000000000000007A
:1050360001B30300B40304B40301FF420428086467
:105046003C0710051FC61FA51FA11F9D1F01E200DB
:10505600E900EA00B500B600B700CD008301CC0038
:105066008A019201940121022302240225022602CA
:1050760027022A02B300B4006F00700081828366A3
:1050860097C634353133323600000000E200E900BD
:10509600EA00B500B600B700CD008301CC008A0156
:1050A60092019401210223022402250226022702EC
:1050B6002A02B300B4006F0070008182834081220F
:0C50C600F90478045604FB0314042D04C4
:00000001FF
