:100000000C94F3010C94230C0C943A020C943A02D5
:100010000C943A020C943A020C943A020C943A0270
:100020000C943A020C943A020C948B1D0C945F1EB3
:100030000C9451180C943A020C943A020C943A0223
:100040000C943A020C943A020C943A020C943A0240
:100050000C943A020C949C180C943A020C943A02B8
:100060000C943A020C943A020C943A020C943A0220
:100070000C943A020C943A020C943A020C943A0210
:100080000C943A020C943A020C943A020C943A0200
:100090000C943A020C943A020C943A020C943A02F0
:1000A0000C943A020C943A020C943A023300360053
:1000B000370013001C0004621261086418000C6809
:1000C000340014000D000E001B00000000000000B2
:1000D0002A4129620F00150006000A000900167265
:1000E000117117740B0007781D0019001A00100019
:1000F00005000000000000002C422864290038029E
:100100002D023A003B00E1002B004B003E003F0077
:10011000390047004E00420043000000000000008C
:10012000010001002A0038002D003D003C0028009D
:10013000E2004A0041004000380049004D004500FF
:100140004400000000000000035101001E021F02D5
:1001500052002F0230022002500051004F002102B5
:100160002F003000260227022402000000000000B9
:10017000035101002502260025002400310027003C
:100180002300220021002E002E0220001F001E004E
:100190003500000000000000010001000100080817
:1001A00052004B012B062903500051004F004B0316
:1001B00001003D0401004902005C00000000000055
:1001C000010001000F08010001004E012B044C0545
:1001D0000100E30028004E030100010001000100BE
:1001E0000100000000000000010001000D001A00E5
:1001F00000001000050000001900100000001A00A7
:100200001000000019001A0000000A000900000098
:1002100015000A00000006000A0000001500060094
:1002200000000F00150000000E001B00000014006D
:100230000E0000000D000E00000014000D00000074
:1002400034001400000036001300000013001C00EE
:1002500000003700130000003600370000003300B4
:100260003600000044454255473A20646973616294
:100270006C65642E0A0044454255473A20656E611C
:10028000626C65642E0A000A0025303862003A204C
:100290000025303258000A722F6320303132333457
:1002A0003536370A000A002530325820006B657950
:1002B000626F6172645F7265706F72743A20000AD7
:1002C0000025303258006B6579626F6172645F732C
:1002D00065745F6C65643A20005B735D004B657903
:1002E000626F6172642073746172742E0A005B57CE
:1002F0005D005B535D005B525D005B445D005B43F2
:100300005D000403300000001203730071007500EB
:100310006900670067006C00650000000E0369005B
:1003200062006E00750064006100000004030904AF
:1003300009024200020100A0FA09040000010301C1
:100340000100092111010001224000070581030875
:10035000000A090401000203000000092111010044
:100360000122220007058203200001070502032065
:1003700000011201100100000008556973200100FE
:10038000010203010631FF0974A101097515002658
:10039000FF009520750881020976150026FF00955B
:1003A0002075089102C005010906A101050719E0A1
:1003B00029E7150025019508750181029501750849
:1003C00081010507190029FF150026FF0095067514
:1003D0000881000508190129059505750191029507
:1003E0000175039101C011241FBECFEFDAE0DEBF1B
:1003F000CDBF04B603FE27C08091B5029091B6022E
:10040000A091B702B091B8028730904BA740B04B93
:10041000D1F41092B5021092B6021092B702109267
:10042000B80214BE84B7877F84BF0FB6F894A8952E
:1004300080916000886180936000109260000FBE20
:10044000E0E0F8E3099511E0A0E0B1E0E4E1F1E4D7
:1004500002C005900D92A23EB107D9F722E0A2EEAC
:10046000B1E001C01D92A53BB207E1F70E94B11AAD
:100470000C9464200C940000FF93EF93E091E20150
:10048000F091E301309709F00995EF91FF910895FC
:10049000FC018591803011F0EFDFFBCF0895FF273D
:1004A000E0E230E247FF0CC0419597FF09C0EDE262
:1004B0006095709580959095611D711D811D911DB0
:1004C00027FF02C0219530E350E2AA27660F771F6D
:1004D000881F991FAA1FA41710F0A41B63955A9593
:1004E000A9F7AA3008F0A95FA05DAF93F395611555
:1004F00071058105910541F7ED3211F4EF93F39504
:10050000F21718F43F93F395FBCF8F91B5DFFA956F
:10051000E1F70895E991F9918591803021F08532D4
:1005200019F0AADFF9CF089520E0E89455915532EB
:10053000C1F3503311F4689455915A3348F4505331
:1005400090F3220F022E220F220F200D250FF4CF41
:100550000EF4219589919991533619F3533729F166
:10056000533559F1BC0188279927E8945C3621F46A
:100570008991999168945591543639F446EF7EF0FB
:1005800077FF0DC08FEF9FEF0AC055374AE039F073
:10059000583540E121F0523642E009F00895FF93CA
:1005A000EF937DDFEF91FF91B7CFFF93EF93FC01C6
:1005B00081918030B9F360DFFBCFFF93EF9368DF69
:1005C000F1CFDF93CF93CDB7DEB72596A3DFCF91E1
:1005D000DF910895CF93DF939C013A9521153F4118
:1005E00068F5EC01CC27D170DC01AA27B270AC0110
:1005F000442754709C012227387094FF11C080E179
:10060000CD2B09F480E0AB2B09F08062452B09F07B
:100610008064232B09F08068FB01DF91CF9109945E
:1006200081E0CD2B09F480E0AB2B09F08260452BF3
:1006300009F08460232B81F38860EECFDF91CF91A6
:100640000895CF93DF93EC01805E9109089720F025
:1006500066EE70E1209711F46BEB7EE0CE010E9414
:10066000EA028C2FDF91CF910C94550ECF93DF933C
:10067000EC010E94800ECE01805E9109089720F067
:100680006DEE70E1209711F462EC7EE0CE01DF9117
:10069000CF910C94EA0281E0089581E008950C94D2
:1006A0004D0308950C9451031F93CF93DF9300D013
:1006B00000D00F92CDB7DEB749835A836B83309158
:1006C0001A0289819A8131111DC06623B9F0222353
:1006D000A9F00E94B215182F682F89819A810E9473
:1006E0005B1569817A81812F0F900F900F900F9089
:1006F0000F90DF91CF911F910C941E040E948915D9
:10070000182FEFCF0E94B21569817A81EDCFFC01DD
:10071000262F408151816281738184810C9454031E
:10072000CF93DF93EC0160E00E948703BE01DF916D
:10073000CF910C9452030E940617811102C00E94AF
:10074000A3170C94E0050E941F0A0C94E30508957A
:100750000C94A70381E008950C94AA03CF93C82FAB
:100760000E94A8038C2FCF910C94AC0308950E9493
:10077000FE100E94B6032FEF84E39CE021508040DE
:100780009040E1F700C000000C94C0180F931F9335
:10079000CF93DF93EC0161E00E9487038C01BE01DF
:1007A0000E944F03882341F1BE01C8010E944C0AF8
:1007B000882311F1BE01C8010E9460088823E1F07E
:1007C000BE01C8010E94B2088823B1F0BE01C80171
:1007D0000E94D509882381F08A81882341F1013064
:1007E0008CE5180779F00E3D8CE51807E9F0011546
:1007F0001C45E9F40E94B70380E0DF91CF911F917F
:100800000F91089590918102892F8E7F90FF8160D2
:100810008093810280FF05C086E792E00E94480233
:10082000EBCF84E692E0FACF0E94A317E5CFCE018A
:10083000DF91CF911F910F910C944B03972F70E094
:1008400025E0929F600D711D1124FB0198E2899FA4
:10085000E00DF11D1124EE0FFF1FE455FF4F8591B0
:1008600094910895CF93DF930E941E040E94050582
:10087000EC01811523E5920790F5811532E5930788
:1008800008F096C081159042C8F4C11581E0D807E0
:1008900088F4C53AD10548F4C430D10558F4C130C4
:1008A000D10541F0D0E0C0E005C0CE01805E9109E5
:1008B0000897C0F7CE01DF91CF910895C11591E55A
:1008C000D90708F070C0C11520E5D20708F04EC066
:1008D000C11530E4D30730F3DF70D06AEBCF811558
:1008E00046E59407F0F4C11585E5D80708F075C012
:1008F000C11594E5D90708F06BC0CE018370992724
:1009000021E030E002C0220F331F8A95E2F7C6953E
:10091000C69590E2C99FE0011124C22BD32BDA685F
:10092000C9CF81152AE5920778F4811539E5930737
:1009300008F05EC0811548E5940708F4B3CFD82FBE
:10094000CC27C06FD06AB6CF90568115904208F080
:10095000A9CF8D2F8F710E949C0590E0982F88273A
:1009600088279F719C012C2BE90140C0CE01E4E057
:1009700096958795EA95E1F783702C2F2695269515
:10098000237040E2249F90011124382B8C2F837018
:10099000C1E0D0E002C0CC0FDD1F8A95E2F7C22B88
:1009A000D32BDC6887CFDC2FCC27C16FD06A82CFF6
:1009B0008370992721E030E002C0220F331F8A950F
:1009C000E2F7C695C69580E2C89FE0011124E7CF03
:1009D000DC2FCC27C46FD06A6DCF8C2F0E949C0572
:1009E000C82FD0E0DC2FCC27CC27DF71D06262CFBC
:1009F0008F700E949C0534E0D695C7953A95E1F733
:100A0000CF709C2FEC01D06955CF82389105B1F1A0
:100A1000B0F48133910509F475C048F48932910529
:100A200009F469C08A32910509F473C008958533C9
:100A3000910509F459C08933910501F10895833E68
:100A40009105A9F138F4803E9105F9F0823E9105B7
:100A500049F10895863E9105A9F1873E9105C9F1B6
:100A6000843E910519F52091A70221FF1FC08091B6
:100A7000A60284FD14C087EE90E008952091A6029E
:100A80002370A1F080EE90E008952091A60220FD51
:100A900047C03091A70230FF09C024FF44C090E056
:100AA00080E004C02091A60222FDF7CF0895209196
:100AB000A60222FD3BC03091A70230FDE3CF24FF08
:100AC000F5CFEDCF2091A60223FFF0CF24FDE7CF95
:100AD000D2CF2091A60223FD2CC03091A70231FF76
:100AE000EECF84EE90E008952091A60225FFDECFA0
:100AF00089E290E008952091A60225FFD7CF85E3F3
:100B000090E008952091A60226FFD0CF8AE290E0DF
:100B100008952091A60226FFC9CF81E390E00895B1
:100B200089E390E0089583EE90E0089582EE90E0EE
:100B3000089586EE90E008959091A60292FF06C077
:100B4000282F28712830F9F4877F846093FF06C02E
:100B5000282F28712831F1F4877E84612091A70223
:100B600020FF06C0382F38713830D9F4877F816074
:100B700021FF06C0282F28712831D1F4877E81619A
:100B800094FD877E0895282F24712430F9F68B7FF9
:100B90008860DCCF282F2471243101F78B7E886197
:100BA000DDCF382F3171313019F78E7F8860E0CF7B
:100BB000282F2171213121F78E7E8861E1CF0895A0
:100BC0000C94DF0508950C94E205E82FF0E0E85658
:100BD000FD4F80810895CF92DF92EF92FF920F93A5
:100BE0001F93CF93DF9386E992E00E94480288E941
:100BF000E82E82E0F82ED0E0C0E091E9C92E92E024
:100C0000D92E09E812E0DF93CF93DF92CF920E94B2
:100C1000E1028EE892E00E944802F70181917F0193
:100C20000E94EE161F928F931F930F930E94E10272
:100C300087E892E00E94480221968DB79EB70896F9
:100C40000FB6F8949EBF0FBE8DBFC830D105D9F640
:100C5000DF91CF911F910F91FF90EF90DF90CF9098
:100C6000089580EA8A95F1F7089508950E94900703
:100C70008091BE018091BE0194E0811190E090933B
:100C8000A10284E0891B8093A002AAEDB1E061E09B
:100C900070E08D91E82FE295EF70F0E041A18F7048
:100CA0009B0101C0220F8A95EAF7922F9095942319
:100CB00091A382A1822B82A381E0AE3DB80749F7C0
:100CC000A5EDB1E061E070E08D91E82FE295EF7065
:100CD000F0E041A18F709B0101C0220F8A95EAF7D5
:100CE000922F9095942391A382A1822B82A381E0DD
:100CF000AA3DB80749F7E0E9F2E0A8E9B2E088E9DF
:100D000092E011921D928E179F07D9F784E00E94FE
:100D10003B070E949B030C949A070E94720788234A
:100D2000F1F08091A00290E088569D4F0E94AD079F
:100D3000811112C08091E4018F5F8093E4018630BD
:100D400048F0E091A002F0E0E856FD4F10821182D9
:100D5000128213820C94A3031092E401FBCF8091C2
:100D6000A10290E088569D4F0E94C6070C9435065C
:100D70008F929F92AF92BF92CF92DF92EF92FF92AB
:100D80000F931F93CF93DF938AEDA82E81E0B82EA7
:100D900000E912E0912CCC24C394D12CF50181916F
:100DA0005F01C82FC295CF70D0E099A18F707601F6
:100DB00001C0EE0C8A95EAF7892F8E2989A38AA1B2
:100DC0008E2C809488218AA30E943106E5EDF1E003
:100DD00050E040E020E03191A32FA295AF70B0E049
:100DE00090968C9190E03F7002C0959587953A95CA
:100DF000E2F780FD3CC08C2D042E01C0880F0A94C0
:100E0000EAF7282B4F5F5F4F4530510521F789A145
:100E1000882289A28AA1E82AEAA2F80180812817FB
:100E200041F1208381E0982A0F5F1F4FFEEDAF163E
:100E3000F1E0BF0609F0B2CF6091A10270E0685600
:100E40007D4F292D44E080E992E00E943C070E94FA
:100E50008D06892DDF91CF911F910F91FF90EF901B
:100E6000DF90CF90BF90AF909F908F90089580E0DB
:100E7000C8CF80E0D8CF0895FF920F931F93CF93F0
:100E8000DF93F82E092F162FD72FC42F222349F0D6
:100E900081E08093E7010E9481189093E60180939E
:100EA000E5018091E7018823A1F08091E50190910F
:100EB000E6010E948D18069760F0EF2DF02FA12F0C
:100EC000BD2FCE0FDF2FD11DEC17FD0741F410927F
:100ED000E701DF91CF911F910F91FF9008958191CC
:100EE0008D93F2CF8091E801811111C08091D800DB
:100EF00080618093D8008AE18A95F1F700C09091D3
:100F0000D900892F817090FF82E08093E80181E011
:100F10009091E801913009F080E008950C947207F7
:100F20000E948E078093BE010E94720781110C946B
:100F3000A10708950E947207811102C00C94A707AF
:100F4000089561E070E08FEB91E00C94D40B61E0C8
:100F500070E08FEB91E00C94DB0BCF93DF93D82FF5
:100F6000C92F0E94750C009779F4ED2FFC2FDC013E
:100F7000A651BE4F2C912193019684309105B9F76B
:100F800081E0DF91CF91089580E0FBCF30E020E059
:100F9000FC014191CF01F901E651FE4F40832F5FE3
:100FA0003F4F24303105A1F70895AF92BF92CF9201
:100FB000DF92EF92FF920F931F93CF93DF937C0109
:100FC0005B01C42FD22FFC0182818823F9F040936A
:100FD000F0010E9481189093EF018093EE0180E26E
:100FE0008C0F883008F061C0C77081E001C0880FA5
:100FF000CA95EAF7DF91CF911F910F91FF90EF9083
:10100000DF90CF90BF90AF900C94BB0E1091F00189
:10101000141340C08091EE019091EF010E948D1851
:101020006C01B701C5010E94B013C816D90690F52E
:10103000C0E2CD0F1D17B9F080E2810F883040F477
:10104000177081E001C0880F1A95EAF70E94C20E5E
:10105000C83048F481E09D2F977001C0880F9A95A1
:10106000EAF70E94BB0E802F0E94A80EC830E8F459
:10107000D77081E001C0880FDA95EAF7DF91CF9150
:101080001F910F91FF90EF90DF90CF90BF90AF90A6
:101090000C94C20E80E28C0F883038F4C77081E067
:1010A00001C0880FCA95EAF7E9CFDF91CF911F9170
:1010B0000F91FF90EF90DF90CF90BF90AF90089589
:1010C0000F939C01CB01233F4CE5340759F1A8F461
:1010D000283DFCE53F0701F1293D4CE53407D1F1FE
:1010E000273D3C4591F406E221EE41EE67ED7CE5BB
:1010F0000E94D50780E00F910895253FFCE53F074A
:10110000E9F0B0F0263F3C45F9F0FC0182818823EC
:1011100039F11092F001EFCF07E225EE45EE68EDD0
:101120007CE5E6CF06E221EE40EE63EF7CE5E0CF22
:1011300007E225EE44EE64EF7CE5DACF06E221EE2D
:1011400042EE65EF7CE5D4CF07E225EE46EE66EF92
:101150007CE5CECF08E221E045EE69ED7CE5C8CF25
:1011600081E0C9CFCF93DF93EC01FB01828188231B
:1011700009F419C1C230FCE5DF07C0F1C6319CE5B6
:10118000D90730F09E012A5F3C452930310570F5C2
:101190000E9419179093A7028093A602C031ECE534
:1011A000DE0709F4CFC008F05BC0C8308CE5D80773
:1011B00009F4B6C088F5C430ECE5DE0709F4A8C030
:1011C000C0F4C2308CE5D80709F49CC08091A60217
:1011D0008260C330DC4509F498C08091A6029091EA
:1011E000A7020E9427170E94FE1080E0DF91CF9196
:1011F00008958091A6028061C630ECE5DE0709F40F
:1012000084C08091A6028860C730DC4508F47DC0A8
:101210008091A602806279C0CC308CE5D80709F4B1
:1012200089C070F48091A6028C60CA30ECE5DE07BC
:1012300009F46BC008F478C08091A6028E7F65C067
:10124000CE308CE5D80709F479C08091A6028B7F57
:10125000CF30DC4508F459C08091A6028F7E55C07E
:10126000CB3FECE5DE0709F457C030F5C3318CE520
:10127000D80709F46FC078F4C131ECE5DE0709F452
:1012800065C0C231DC4509F0A8CF0E94FE108091F4
:10129000A6028F773AC0C5318CE5D80709F462C041
:1012A00008F476C08091A7028160CA3FDC4509F04E
:1012B00094CF8093A70291CFCF3FFCE5DF0709F4DD
:1012C0004DC088F48091A7028D7FCD3F9CE5D90762
:1012D00081F38091A7028E7FCE3FDC4550F3809151
:1012E000A7028360E6CFC130FDE5DF0709F459C0EE
:1012F00008F444C080E0C230DD4509F06ECF0E94A2
:10130000A5176BCF8091A60281608093A60265CF5E
:101310008091A6028460F9CF8091A7028260C9CF34
:101320008091A6028064F1CF0E94FE108091A602F7
:101330008068EBCF8091A6028D7FE7CF8091A602D7
:10134000877FE3CF8091A6028F7DDFCF8091A602B9
:101350008F7BDBCF8091A602837FD7CF8091A702BE
:101360008C7FA7CF8091A60282FB992790F921E07C
:10137000922790FB82F990FB83F9C7CF8091A70257
:10138000982F909591708E7F892B90FB81F991CF4A
:101390000E94FE109091A602892F97FB87F9805832
:1013A000B4CF81E0ACCF81E021CFCF93DF93EB01CD
:1013B00086319C4511F50E9447169A81992399F030
:1013C0008A7A91E009F490E09093F101811109C0CB
:1013D00089E20E9422160E94861680E0DF91CF915A
:1013E000089585E3F6CF8091F101811104C089E26F
:1013F0000E942916F0CF85E3FBCF81E0EFCFCF939A
:1014000090910202992321F0811116C010920202DC
:10141000CF910895EC2FF0E0EE0FFF1FEE50FE4F3E
:10142000808191810E9421030E948616CF5F809166
:101430000202C81778F3EACFC0E0F9CF089580918F
:10144000C7018823A1F080910302882381F0809155
:10145000070290910802009751F00E948D1885367E
:10146000910528F01092030281E00C94FF09089581
:10147000109203021092C701109208021092070204
:1014800081E00C94FF098091C70181110C94380A06
:1014900081E08093C70108955F926F927F928F924F
:1014A0009F92AF92BF92CF92DF92EF92FF920F93F3
:1014B0001F93CF93DF937C016B0110920402873F4F
:1014C0004CE59407C1F4FB01C281CC2349F181E0D2
:1014D0008093C7018C2FDF91CF911F910F91FF90C7
:1014E000EF90DF90CF90BF90AF909F908F907F90C4
:1014F0006F905F900895883FFCE59F0739F4FB01EA
:10150000C281CC2369F00E94380AE4CF893F9C4510
:1015100039F4FB01C281CC2319F00E94430ADACFCF
:10152000D091C701C1E0DD23A9F21092060210920A
:101530000502C0E055E0752E88248394912C662422
:10154000639400910502109106020632110588F09D
:1015500080910402882309F497C00E948118909317
:1015600008028093070280E00E94FF0981E0C827FB
:10157000B1CF709EF001719EF00D1124E050FF4F2D
:10158000808191813FEF20E0E22FF0E0EE0FFF1F1E
:10159000E80FF91F45915491E416F50609F4322F2E
:1015A000452B11F02F5FF0CF3F3FD1F4512CC529CF
:1015B000DD2351F0709EF001719EF00D1124E0507A
:1015C000FF4FD1E084818111D0E0D170809105027C
:1015D0009091060201969093060280930502B1CF86
:1015E00050900302F6019281709EF001719EF00D01
:1015F0001124E050FF4F8481540101C0AA0C3A9598
:10160000EAF79923E1F0A82AA482552079F2C401CF
:1016100002C0880F991F2A95E2F70197A8161906AC
:1016200031F682819381009729F00E942103609214
:101630000402BDCF61E0C8010E941E0AF8CFA401D8
:1016400002C0440F551F2A95E2F79A012150310933
:1016500082171306B9F482819381009771F00E947A
:101660003603709EF001719EF00D1124E050FF4F83
:10167000A0948481A822A4829ACF60E0C8010E942D
:101680001E0AEFCF512CEDCFC1110EC081E00E9498
:10169000FF09DD2309F46ACF1092080210920702B5
:1016A00081E08093030262CFF6018281882309F4EE
:1016B0005DCF80910302882309F458CF0E948118DE
:1016C0009093080280930702E0910202E83008F04C
:1016D0004DCF81E08E0F80930202F0E0EE0FFF1FEE
:1016E000EE50FE4FF182E08241CF8EE1489B02C076
:1016F0008150E1F7489BFECF0895589880E28A9583
:10170000F1F7589A0895FC013BE03A95F1F798E01B
:1017100020E080E031E040E14A95F1F7880F489BF6
:1017200002C08160232742E04A95F1F7000040E1C2
:101730004A95F1F7915079F790E19A95F1F799B1BF
:1017400032E03A95F1F7000040E14A95F1F79170E7
:1017500092272081920F90830895EF92FF920F932A
:101760001F93CF93DF930F92CDB7DEB719828C0111
:101770007C01E60EF11C0E151F0561F481E09981D4
:10178000911180E00F90DF91CF911F910F91FF9009
:10179000EF9008950E94750BCE0101960E94830B75
:1017A000F80181938F01E7CF90930A028093090299
:1017B000509A589A089590930A028093090250987B
:1017C000589AE89AE9E6F0E080818C7F808308955A
:1017D0006150770B91E001C0990F6A95EAF720E01C
:1017E00031E0911108C0222391F0589A80E28A9545
:1017F000F1F758980895492F482339F0589A23272C
:1018000040E24A95F1F79695ECCF5898F9CF589861
:10181000EDCFFF920F931F93CF93DF93EC018C01D9
:10182000060F111DC017D10731F4DF91CF911F9121
:101830000F91FF900895F9900E947D0B68E08F2D25
:101840000E94E80BEFCF1F920F920FB60F92112458
:101850002F933F934F935F936F937F938F939F93B8
:10186000AF93BF93CF93DF93EF93FF935898509A22
:10187000C0910902D0910A026D81662321F08E8108
:101880009F810E94090C0E947D0B80E18A95F1F7EF
:1018900058985098589A80E18A95F1F76A816623A2
:1018A00009F18B819C810E94AD0BE881F98188232D
:1018B00011F088E001C082E080830E94750BFF91E7
:1018C000EF91DF91CF91BF91AF919F918F917F91D8
:1018D0006F915F914F913F912F910F900FBE0F909D
:1018E0001F901895E881F981E4CFCF93DF93C091E1
:1018F0000902D0910A02F894509A589885E08A9586
:10190000F1F700005098589A80E28A95F1F7489BC9
:101910000CC0509A589AE881F98181E080837894CC
:1019200081E090E0DF91CF9108956D81662381F091
:101930008E819F810E94AD0B81110AC0509A589AE6
:10194000E881F98182E08083789482E090E0EACFB8
:101950000E94750B80E28A95F1F75898509A80E1C1
:101960008A95F1F76A81662321F08B819C810E9420
:10197000090C0E947D0BE881F9811082789490E037
:1019800080E0D0CF9093100280930F020895E091F1
:101990000F02F0911002309721F00190F081E02DBC
:1019A000099480E00895EF92FF920F931F93CF93D5
:1019B000DF938C01E0910F02F09110023097C1F19A
:1019C0000280F381E02D09958091810282FF30C071
:1019D00080FF04C08DEA92E00E944802D0E0C0E09F
:1019E00087EAE82E82E0F82E8091810280FF0EC007
:1019F000F801EC0FFD1F80811F928F93FF92EF92F1
:101A00000E94E1020F900F900F900F902196C83026
:101A1000D10551F78091810280FF0AC085EA92E0EA
:101A2000DF91CF911F910F91FF90EF900C9448029E
:101A3000DF91CF911F910F91FF90EF90089520912A
:101A40000D0230910E022817390771F090930E02A3
:101A500080930D02E0910F02F0911002309721F077
:101A60000680F781E02D0994089520910B023091B2
:101A70000C022817390771F090930C0280930B0227
:101A8000E0910F02F0911002309721F00084F1856F
:101A9000E02D0994089585B7806885BF85B7806873
:101AA00085BF0895089508950C94520D08950C94DF
:101AB000560D0E944B0D0E94530D0C94540D0C9426
:101AC00072070E9478180E9436060E94D1180C9462
:101AD000570DCF93C82F8091810282FF1EC080FFD7
:101AE0001CC086EC92E00E9448028091810280FF37
:101AF00014C01F92CF9381EC92E09F938F930E942A
:101B0000E102809181020F900F900F900F9080FF63
:101B100004C08FEB92E00E9448028C2FCF910C946E
:101B2000AE03BF92CF92DF92EF92FF920F931F937B
:101B3000CF93DF93CDB7DEB72A970FB6F894DEBF09
:101B40000FBECDBF0E94B8060E945F0D882309F426
:101B50005CC082E1C82E82E0D82E10E000E0B02EFA
:101B6000802F0E94E505E82EF601F1906F01F8162E
:101B700009F445C08091810281FD0E94EB059F2DF3
:101B80009E2580E0FF24F394292F2F21A1F18E833D
:101B9000BF82EF2081E009F480E088870E948118ED
:101BA0008160782F9A8789874E815F8168858A85D1
:101BB0000E94260EF801EE5EFD4F8081F826F0822D
:101BC0000E94C70C90911102891781F10E94C70CE5
:101BD000809311022A960FB6F894DEBF0FBECDBFD8
:101BE000DF91CF911F910F91FF90EF90DF90CF90F9
:101BF000BF900C94690D8F5FFF0C853029F60F5F45
:101C00001F4F0830110509F0AACF8FEF89838A830F
:101C10001B820E9481188160782F9D838C8349816B
:101C20005A816B818D810E94260ECACF2A960FB6EB
:101C3000F894DEBF0FBECDBFDF91CF911F910F9102
:101C4000FF90EF90DF90CF90BF900895CF93DF93F8
:101C5000CDB7DEB72B970FB6F894DEBF0FBECDBF62
:101C60004F83588769877A878B871E821D8285E01C
:101C7000FE013796DE01119601900D928A95E1F7EB
:101C800049815A816B817C818D819E812B960FB613
:101C9000F894DEBF0FBECDBFDF91CF910C94B3138C
:101CA000FC01808191810C94F415CF93C82F882377
:101CB00029F18CEF8C0F813AA0F46C2F8091C80130
:101CC0009091C9010E94BC17882329F08C2F0E9493
:101CD00029160E9486168C2F0E942216CF910C94F2
:101CE000861680E28C0F883048F4C77081E001C00E
:101CF000880FCA95EAF70E944A16F0CFCF9108954F
:101D0000882329F19CEF980F913A20F40E9429161C
:101D10000C94861690E2980F983050F4877091E0FA
:101D200001C0990F8A95EAF7892F0E945016F0CFCB
:101D30009BE5980F933020F490E080E00C941F0D09
:101D4000885A873120F490E080E00C94350D089596
:101D5000CF93C82F0E94550EC93349F42FEF87EE59
:101D600093E0215080409040E1F700C000008C2FAC
:101D7000CF910C94800E882321F00E944A160C9477
:101D800086160895882321F00E9450160C9486161A
:101D90000895BF92CF92DF92EF92FF920F931F931D
:101DA000CF93DF937C01D62FC72FFC0115811295AD
:101DB0001F70028101110E9467160E944016D82EE2
:101DC000882391F00023E9F08C2F807F803421F06C
:101DD00080E28D0F8830A8F082E00E94D1160E9428
:101DE000401691E0D82ED926CC2EC2949FE0C9226D
:101DF000FBE0FC15A8F1EC2DF0E0EA59FF4D0C9446
:101E00001C20D12CF1CF1C2F1F70C07F11F0129518
:101E1000107F0023A9F0112359F080E28D0F883044
:101E200010F0D11109C0812F0E944A160E94861617
:101E30008D2F0E94550E14C0812F0E945A16F6CF86
:101E40008D2F0E94800E112359F080E28D0F883073
:101E500010F0D1112BC0812F0E9450160E948616BF
:101E6000EC2DE850FF0B349720F40E94C70C0E9421
:101E7000AE03DD2009F461C10E943C1680FD5DC106
:101E8000F70112820E9436160E94BF14C7010E94F9
:101E9000BE100E943616DF91CF911F910F91FF90D7
:101EA000EF90DF90CF90BF900C94E014812F0E94B0
:101EB0006016D4CF2C2F2F70B22EC07FC03219F0F5
:101EC000B29480EFB822DD2339F0D13019F100232C
:101ED00061F1112321F1ACCF002381F0111106C073
:101EE0000E946D168B290E94BB0EBACF1130C1F72C
:101EF0000E946D168B290E947316B2CF111106C075
:101F00000E947C168B2D0E94C20EAACF113009F4BC
:101F1000A7CFF6CF002329F0163008F0A1CF8B2DE4
:101F2000E2CF153008F09CCFEDCF112359F3D93310
:101F300049F43FEF87EE93E0315080409040E1F765
:101F400000C000008D2F0E94800E8ACF8C2F8370DE
:101F500009F041C0011184CF4D2F4295469547703D
:101F6000440F440F0D2F0F7010E030E020E0042EDE
:101F700004C0000F111F221F331F0A94D2F760E024
:101F800070E0CB01D4FF0FC06FE070E080E090E024
:101F900004C0660F771F881F991F4A95D2F7609576
:101FA000709580959095C695C695C370602B712BE2
:101FB000822B932BC23049F058F4C13019F00E94A3
:101FC00071144ECF0E945F144BCF0E94831448CFF0
:101FD0000E945D1445CF8695002311F08C2F8170EF
:101FE000882309F43DCF4D2F429546954770440F05
:101FF000440F0D2F0F7010E030E020E0042E04C0DD
:10200000000F111F221F331F0A94D2F760E070E007
:10201000CB01D4FF0FC06FE070E080E090E004C01F
:10202000660F771F881F991F4A95D2F760957095A4
:1020300080959095C695C695C370602B712B822BA9
:10204000932BC23049F058F4C13019F00E94361574
:1020500007CF0E94241504CF0E94481501CF0E948B
:102060009914FECECF70002329F08C2F0E94BF144C
:102070008D2F39CF8D2F0E94C20E8C2F0E94E0141D
:10208000EFCED23F89F160F4D03FC9F0D13F29F1C2
:10209000002309F442C01111CBCE8C2F8F7121C0C7
:1020A000D33F39F1D43FA1F7002369F1CF718C2FD1
:1020B0000E94BF1463E08C2F0E94BC16D1CE002377
:1020C00041F0153008F0CCCE8C2F8F710E94031593
:1020D000C7CE163008F0C4CEF7CF8C2F8F710023F7
:1020E00069F20E94BF14BCCE8C2F8F710023C9F3FC
:1020F000C5CF002329F08C2F8F710E94AA14B0CE77
:102100000E94A514ADCE81E00E94D116123008F4D1
:10211000A7CE82E00E94D116A3CE112359F0D93365
:1021200009F010CFEFEFF7EE23E0E150F040204050
:10213000E1F706CF8C2F8F71A1CFDF91CF911F9147
:102140000F91FF90EF90DF90CF90BF9008950F9385
:102150001F93CF93DF93EC01688179818A810E947C
:10216000FE158C010E945A150E945C14B801CE0124
:10217000DF91CF911F910F910C94C90ECF93DF93F4
:10218000EC018B819C81892B29F08881998189239D
:102190008F3F59F4DF91CF910895CE010E94A7108F
:1021A000CE01DF91CF910C949003CE010E94C60323
:1021B0008111F3CF0E944016882361F38A8188231E
:1021C00049F382E0DF91CF910C94D116882321F05E
:1021D0000E945A160C9486160895882321F00E94B6
:1021E00060160C94861608950E9467160E946A165F
:1021F0000C9486160E9430160C94F4100E94571608
:102200000C94FA10E92FE295EF70E250EE3070F482
:10221000F0E0EE58FF4D0C941C20803F19F020F4A4
:10222000883E20F481E00895843FE1F380E0089542
:10223000883EC0F3813FD1F7F5CF93FB882780F923
:1022400008950E94F4150C940211CF93DF9300D0EF
:1022500000D00F92CDB7DEB70F900F900F900F9078
:102260000F90DF91CF910895CF93DF9300D000D0EE
:1022700000D0CDB7DEB726960FB6F894DEBF0FBEFE
:10228000CDBFDF91CF9108951F93CF93DF93C0917E
:102290001B0216E080911C028C1304C0DF91CF91C9
:1022A0001F910895D0E01C9FF0011D9FF00D112497
:1022B000E35EFD4F4081518162817381848195810C
:1022C0000E9434112196C770E5CF40914D02509184
:1022D0004E0260914F027091500280915102909194
:1022E00052020C94341120911B0290911C0256E072
:1022F000291302C080E0089530E0529FF001539FFF
:10230000F00D1124E35EFD4F7181761306C07081DC
:10231000781303C07281741304C02F5F3F4F27707E
:10232000E7CF81E008951F93CF93DF93809152020E
:10233000807FA9F480914F02882389F080911B024D
:10234000C0911C0260914D0270914E02A09150020A
:10235000B0915102D62FD72316E0C81304C0DF91E5
:10236000CF911F91089590E0109711F0DF3F19F47D
:1023700001968770F2CF189F9001199F300D11249C
:10238000F901E35EFD4F41814713F2CF40814613CF
:10239000EFCF42814111ECCF438154814A1B5B0B4B
:1023A000483C510528F7809152028F7080618093DC
:1023B0005202F901EE5DFD4F80818F708061808354
:1023C0008DE492E00E94BE10DF91CF911F910C949A
:1023D00044118F929F92AF92BF92CF92DF92EF9271
:1023E000FF920F931F93CF93DF93CDB7DEB7619723
:1023F0000FB6F894DEBF0FBECDBF8C0185E0F801AB
:10240000DE011D9601900D928A95E1F7D801EC90BE
:102410001196FC9011971296CC9012978DE4A82EED
:1024200082E0B82E40915002509151024115510561
:1024300009F474C190914D0220914E02892F82239C
:102440008F3F09F46BC113968D909C901497D09098
:102450004F02F401E41BF50BDD2009F40AC1809161
:102460005202382F307FE83CF10508F0C1C031112D
:1024700089C0DC2C2F1126C09E1124C0C11022C09F
:102480008F708061809352020E946511C5010E9485
:10249000BE1080915202D80115968C938D2D6196B5
:1024A0000FB6F894DEBF0FBECDBFDF91CF911F9165
:1024B0000F91FF90EF90DF90CF90BF90AF909F90E3
:1024C0008F9008958114910429F08F2D8E218F3FD4
:1024D00009F043C180E080FF15C04C2D6F2D8E2D7B
:1024E0000E947311882371F08DE492E00E94BE1067
:1024F00086E0EDE4F2E0DF011D928A95E9F70E94A3
:1025000065113EC0892829F08F2D8E218F3F09F05B
:1025100021C180E0B82FB170AB2E80FF29C04C2DB7
:102520006F2D8E2D0E947311B82E811121C0ED8662
:10253000FE868D859E850E94F415292F22952F7089
:10254000223050F0243078F49F7051F0F8019581DA
:10255000907F31F4DB2CA2CF9F7011F08823D1F350
:10256000805E8830B8F3C8010E94BE10BA2CF2CF4A
:10257000CC2009F493CF8091520281608093520263
:10258000D12C8CCF2F1105C09E1103C0CC2009F493
:102590008DC0ED86FE868D859E850E942111882343
:1025A00019F1CC2009F180915202803270F0209113
:1025B0004D0230914E0238872F8319869B868A867A
:1025C0008C87CE0107960E94BE1086E0F801ADE42C
:1025D000B2E001900D928A95E1F70E9493110E945A
:1025E0006511DD24D3945ACFC8010E94BE10F9CFE3
:1025F000311112C0782D998A888AA7016C2D89899A
:102600000E9425118DE492E00E94BE1086E0F50143
:1026100011928A95E9F773CF2F110FC09E110DC04B
:10262000C1100BC015968C93C8010E94BE1086E0A5
:10263000F50111928A95E9F731CFED86FE868D85F9
:102640009E850E942111882379F2CC2069F2809125
:102650005202803208F4B9CF20914D0230914E02DF
:102660003A8329831B829D828C828E83CE010196C0
:10267000AACFE83CF10508F043C0DC2CCC2009F4DB
:10268000B3CF2F112CC09E112AC08091520280FD21
:102690001DC0982F907FD1F015968C931597903F81
:1026A00039F0982F907F905F8F70892B15968C93BF
:1026B000C8010E94BE1086E0F801ADE4B2E00190CE
:1026C0000D928A95E1F70E946511E8CE86E0F80147
:1026D000ADE4B2E001900D928A95E1F7DFCEED8690
:1026E000FE868D859E850E94211181116ECF80917D
:1026F0005202816080935202C8010E94BE10CECE69
:10270000782D998A888AA7016C2D89890E942511C4
:1027100086E0F50111928A95E9F7D5CFCC2009F42E
:1027200063CFED86FE868D859E850E942111D82E71
:10273000882309F459CF86E0F801ADE4B2E00190B6
:102740000D928A95E1F78DE492E00E94500E0E946E
:102750009311B9CF81E08C25DDCE81E08C25BBCEF5
:1027600088EC90E008951F93CF93DF93CDB7DEB749
:102770002C970FB6F894DEBF0FBECDBF4F8358879E
:1027800069877A878B879C87CE0107960E94E9111B
:10279000882369F08A859B85892B39F04F8158857C
:1027A000842F85238F3F09F071C016E05FC086E05B
:1027B000FE013796DE01119601900D928A95E1F7A0
:1027C0008A859B85892B89F38F81988589238F3F03
:1027D00061F320911C0230E0C901019687709927AE
:1027E00040911B024817190671F40E94FE101092C6
:1027F0001C0210921B0286E0EDE4F2E0DF011D9264
:102800008A95E9F7D2CF96E0929FD001939FB00DC1
:102810001124A35EBD4FFE01319601900D929A9551
:10282000E1F780931C020E944411BFCF819FC00139
:102830001124835E9D4F0E94E9118823E9F0E09105
:102840001B021E9FF0011124E35EFD4F4081518168
:1028500062817381848195810E94341180911B0271
:1028600090E001968770992780931B0280911B024C
:1028700090911C028913DACF2C960FB6F894DEBF24
:102880000FBECDBFDF91CF911F91089569857A85E5
:102890008B859C850E94341188CF08950C944D142B
:1028A0000E944E14609370027093710280937202C2
:1028B000909373020C94F41008950C9450140F9399
:1028C0001F93009170021091710220917202309159
:1028D0007302602B712B822B932B1F910F910C9401
:1028E00050140F931F930091700210917102209168
:1028F00072023091730260237123822393231F910C
:102900000F910C9450140F931F930091700210912B
:102910007102209172023091730260277127822721
:1029200093271F910F910C9450140C944D140C94F8
:1029300095140E94971460936C0270936D028093BB
:102940006E0290936F020C94F41060E070E0CB0183
:102950000C9499140F931F9341E050E060E070E0F5
:102960008A019B0104C0000F111F221F331F8A958B
:10297000D2F7C901B8011F910F910C9499140F93CC
:102980001F9341E050E060E070E004C0440F551F29
:10299000661F771F8A95D2F780916C0290916D0225
:1029A000A0916E02B0916F028A019B01082B192B36
:1029B0002A2B3B2BC901B8011F910F910C9499143C
:1029C0000F931F9341E050E060E070E004C0440FBB
:1029D000551F661F771F8A95D2F7CB01BA01609504
:1029E00070958095909500916C0210916D022091E8
:1029F0006E0230916F0260237123822393231F9113
:102A00000F910C9499140F931F9341E050E060E0F4
:102A100070E004C0440F551F661F771F8A95D2F7D8
:102A200080916C0290916D02A0916E02B0916F0244
:102A30008A019B01082719272A273B27C901B801CA
:102A40001F910F910C9499140F931F9300916C0296
:102A500010916D0220916E0230916F02602B712BEC
:102A6000822B932B1F910F910C9499140F931F930A
:102A700000916C0210916D0220916E0230916F02F4
:102A800060237123822393231F910F910C94991437
:102A90000F931F9300916C0210916D0220916E02B2
:102AA00030916F0260277127822793271F910F9122
:102AB0000C9499140895E92FEE0FEE0F9E0F890FD5
:102AC000982F977041E001C0440F9A95EAF78695D8
:102AD0008695869595E0899FF0011124ED5AFD4F6A
:102AE00030E020E070E05191DF011197CB01022E20
:102AF00002C0969587950A94E2F7817081958527A3
:102B0000842385278C932F5F3F4F2530310559F75C
:102B10000895E92FEE0FEE0F9E0F890F982F9770F3
:102B200086958695869525E0829FF0011124ED5AC1
:102B3000FD4F50E040E080E0219130E0092E02C0DE
:102B4000369527950A94E2F721703327042E01C0A9
:102B5000220F0A94EAF7822B4F5F5F4F45305105F1
:102B600059F70895BF92CF92DF92EF92FF920F93A1
:102B70001F93CF93DF938C01C0906C02D0906D02B5
:102B8000E0906E02F0906F0280917002909171025D
:102B9000A0917202B0917302C82AD92AEA2AFB2AAC
:102BA000CFE1D0E0BC2ED701C6010C2E04C0B695F3
:102BB000A795979587950A94D2F780FD0EC0219727
:102BC00088F7B12C8B2DDF91CF911F910F91FF9042
:102BD000EF90DF90CF90BF900895B8018C2F0E94A6
:102BE0003204019761F3EECFCF93DF93EC010E94A3
:102BF000B215BE01DF91CF910C9432041F93CF9395
:102C0000DF93EB0190911A02992331F0CB01DF9110
:102C1000CF911F910C94F415882379F0CB010E9479
:102C2000B215182F682FCE010E945B15BE01812FAF
:102C3000DF91CF911F910C943204CB010E94891532
:102C4000182FF4CF682F8091C8019091C9010C947E
:102C5000F217682F8091C8019091C9010C94F41764
:102C60008091C8019091C9010C94F617809174026B
:102C7000859585958595089580917402877008954E
:102C800090917402977081E009F480E0089580913A
:102C90008002089590918002892B8093800208958C
:102CA00080959091800298239093800208951092CD
:102CB0008002089590917F02892B80937F0208956E
:102CC000809590917F02982390937F0208951092AF
:102CD0007F02089510927E020895809175020895F2
:102CE00008950C94701690917502981721F08093B6
:102CF00075020C947116089580917502882329F04D
:102D00001092750280E00C9471160895E091C8014C
:102D1000F091C901809180028083E091C801F09117
:102D2000C901808190917F02892B8083E091C80145
:102D3000F091C901808190917E02892B80839091CE
:102D40007502992381F0E091C801F091C901808159
:102D5000892B80838091C8019091C9010E94AA1794
:102D600081110E947C168091C8019091C9010C9438
:102D7000D30C08950C94B91698E0899F9001112402
:102D8000622B609374020E94BF1480917402859537
:102D9000859585950C94BA161092740280E00C9477
:102DA000BA16909174028095892380937402282F1B
:102DB000277071F4282F082E000C330B921713067E
:102DC00039F08595859585950E94E0140C94CC1674
:102DD00008959093E3018093E2010895829590E035
:102DE0009C01220F331F220F331F2C7C9595879552
:102DF000959587958373282B30E0C901880F991F1B
:102E00008A7A359527952575822B089590E080E084
:102E10000E942A2021E08C3E9E4F09F020E0822F64
:102E2000089582E090E00C94222083E090E00C94DE
:102E30002220CF9384E090E00E942220C82F81E2DC
:102E400090E00E942220982F8C2FCF910895CF934D
:102E5000C92F682F84E090E00E9430206C2F81E21F
:102E600090E0CF910C943020AB01BC018FE090E05A
:102E70000C944220AB01BC0183E190E00C94422011
:102E800060E070E0CB010C943A1760E070E0CB0199
:102E90000E9434170C9440176CEE7EEF90E080E0B7
:102EA0000E944E2060E082E090E00E94302060E0CE
:102EB00083E090E00E943020109270021092710224
:102EC000109272021092730260E084E090E00E941F
:102ED000302060E081E290E00E94302060E085E0F8
:102EE00090E00E94302060E086E090E00E94302078
:102EF0006FEF87E090E00E94302040E050E0BA01A0
:102F000088E090E00E94422060E08DE090E00E9426
:102F1000302040E050E0BA0188E190E00E94422079
:102F200060E087E190E00E94302040E050E0BA018C
:102F30008CE190E00E94422060E080E290E00E94FC
:102F400030200C9445170C944C17682F8EE090E0BD
:102F50000C9430209C012E5F3F4FAC01485F5F4FC7
:102F600080E02417350709F40895F90191919F0134
:102F70009923B9F38F5FF5CF662349F0FC013296B0
:102F800008962191261729F0E817F907D1F780E074
:102F9000089581E008959C01FC0132969FEF80E046
:102FA0004191461751F09F3F19F4411101C0982FEC
:102FB0008F5F8630A9F79F3F09F40895290F311DCF
:102FC00097FD3A95F90162830895FC0132960896BF
:102FD0002191261303C0DF0111971C92E817F9070E
:102FE000B9F708950C94CB170C94E517029626E0D8
:102FF000FC0111922A95E9F70895089508950C941B
:10300000FE170E94FF178091AC02843049F11092A4
:10301000820288E190E020E40FB6F894A8958093AE
:1030200060000FBE2093600080E00E94AE030E940B
:10303000FF1783B7817F846083BF83B7816083BFBD
:103040007894889583B78E7F83BF0FB6F894A89540
:1030500080916000886180936000109260000FBED4
:1030600008950895CF930E94FD170E94B8060E940C
:103070003118C0E08C2F0E94E505811105C0CF5F9B
:10308000C830C1F7CF91089581E0FCCF08950C942A
:1030900046180E94FE100E94C70C0E94AE030C94BA
:1030A00047181F921FB61F9211248F939F93AF93BF
:1030B000BF9380918202811113C08091A2029091EE
:1030C000A302A091A402B091A5024196A11DB11D39
:1030D0008093A2029093A302A093A402B093A502AE
:1030E000BF91AF919F918F911F901FBE1F90189518
:1030F00082E084BD93E095BD9AEF97BD80936E000A
:1031000008952FB7F8948091A2029091A302A09104
:10311000A402B091A5022FBF08959C014FB7F89467
:103120008091A2029091A302A091A402B091A50265
:103130004FBF821B930B089578941F921FB61F9266
:1031400011248F939F93AF93BF938091A20290918C
:10315000A302A091A402B091A5020196A11DB11DE8
:103160008093A2029093A302A093A402B093A5021D
:10317000BF91AF919F918F911F901FBE1F90189587
:1031800087E797E7909301088093000888E19AE029
:103190000FB6F894A895809360000FBE90936000DE
:1031A000FFCF0E940617811102C00E94A3170E9440
:1031B0001117809381020E9419179093A7028093A0
:1031C000A6020E941517682F70E090E080E00E9430
:1031D0005D1460916C0270916D0280916E0290910D
:1031E0006F020C94971480918E02089508950895AB
:1031F0009FB7F894109285029FBF9091AC029430D3
:1032000009F048C02091E9002F703091EC00932F15
:10321000917030FD90E8922B22E02093E9002091FC
:10322000EB0020FF34C02091EE0027FF30C020913A
:103230008302222321F02091E80025FF28C010926C
:10324000830226E03091E80035FF14C08093F1003E
:103250008091E80085FD27C08091E80080FFFCCFC9
:103260008091E8008E778093E8009F709093E9004A
:1032700080E008953091AC02343049F43091EB0095
:1032800035FD05C0215041F481E0809383029F7099
:103290009093E9008FEF0895EFE9FFE03197F1F7A0
:1032A00000C00000CFCF8FB7F89421E020938502B3
:1032B0008FBFDBCFCF93DF93EC0181E08093E900F8
:1032C0008FEF9091E800815095FD06C095ED9A959D
:1032D000F1F700008111F5CF8091E80085FF14C05F
:1032E00050E040E068E070E0CE010E94801B8091D9
:1032F000E8008E778093E80088E0FE01A6E8B2E05F
:1033000001900D928A95E1F7DF91CF91089508958C
:103310008EEF92E00E9448028091AB02811109C0B9
:103320000E94101D0E946D1D8091E20084608093B8
:10333000E20008958AEF92E00E9448021092AB02E8
:10334000089586EF92E00C94480282EF92E00C948C
:1033500048028EEE92E00E9448020C944918209197
:1033600084022F5F822F62E30E941020992319F0BC
:10337000209384020895109284028091850288230C
:10338000F1F08091AC028430C1F49091E9009F701B
:103390002091EC00822F817020FD80E8892B92E043
:1033A0009093E9009091EB0090FF04C09091EE00A3
:1033B00097FD08C08F708093E900109285020895F0
:1033C0001092F1009091E80095FDFACF9091E800FD
:1033D00090FFF0CF9091E8009E779093E800EACFBD
:1033E00042E061EC81E00E948C1C42E261EC82E0F0
:1033F0000C948C1C8091AE02833009F45FC030F4D1
:103400008130C1F1823009F49BC008958A3009F4FB
:1034100087C08B3009F46DC0893009F04EC08091AF
:10342000AD02813209F049C08091B1029091B2029F
:10343000892B09F042C08091E800877F8093E800E3
:103440008091E80082FF35C09091F3008091F200F6
:10345000029729F48091F1008B7F813021F48091D3
:10346000F10080938E028091E8008B778093E800D2
:103470000C94C01C8091AD02813AF9F48091E8006F
:10348000877F8093E8008091B1029091B202892BEE
:1034900061F468E086E892E070E00E94CF1B8091C2
:1034A000E8008B778093E800089560E090E080E08A
:1034B000F3CF8091AC028111C3CF08958091AD020A
:1034C000813AD9F78091B1029091B202892BA9F784
:1034D0008091E800877F8093E8008091E80080FF7A
:1034E000FCCF8091D4018093F1008091E8008E7729
:1034F000BDCF8091AD02813201F78091B1029091F0
:10350000B202892BD1F68091E800877F8093E80092
:103510000E94C01C8091AF028093D4010C94FE10D5
:103520008091AD02813249F68091E800877F8093D7
:10353000E8000E94C01C8091B00280938F02089521
:103540008091AD02813A09F0B8CF8091E800877F81
:103550008093E8008091E80080FFFCCF80918F028B
:10356000C2CF84B7877F84BF0FB6F894A8958091A7
:103570006000886180936000109260000FBE80E858
:1035800090E00FB6F89480936100909361000FBEB5
:103590000E94590D0E94101D0E946D1D8091E20035
:1035A00084608093E20088EF98E10E94E9167894A5
:1035B0000E94F51F0E94610D8AEC91E00E94C20CEE
:1035C0008DED92E00E9448028091AC02853019F0A6
:1035D0000E94910DF9CF89ED92E00E9448020E946D
:1035E00001188091AA02882379F30E943218882357
:1035F00059F30E946A1BE8CF0C94FE1AE92FFF27AB
:10360000E330F105F1F060F4E130F10509F453C065
:10361000329709F455C0F0E0E0E090E080E029C086
:10362000E132F10509F438C0E232F105A1F7611584
:10363000710509F44AC084E893E061307105C9F06E
:10364000EACF992781309105C9F0009761F0823067
:103650009105D9F00397F9F6E2E0F3E0E491F0E0A8
:1036600082E093E006C0ECE2F3E0E491F0E08CE26B
:1036700093E0DA018D939C93CF010895ECE1F3E0A0
:10368000E491F0E08CE193E0F4CFE8E0F3E0E49142
:10369000F0E088E093E0EDCFE9E0F0E082E493E051
:1036A0006115710531F3E9E0F0E08BE593E06130FD
:1036B0007105F9F2B0CFE2E1F0E082E793E0D9CF13
:1036C000E2E4F0E080E393E0D4CFE0E4F0E086EAE7
:1036D00093E0CFCF80E189BD82E189BD09B400FECE
:1036E000FDCF8091D8008F7D8093D8008091E0003D
:1036F00082608093E0008091E00081FDFCCF08951E
:10370000AF92BF92CF92DF92FF920F931F93CF930E
:10371000DF936C01EB018A010E94DF1CF82E8111FE
:1037200023C00115110539F0F80180819181C81B72
:10373000D90BC80ED91EB12CA12C2097A9F08091CD
:10374000E80085FD22C08091E8008E778093E80034
:1037500001151105A1F0F80180819181A80EB91E13
:10376000B182A08285E0F82E8F2DDF91CF911F913D
:103770000F91FF90DF90CF90BF90AF9008950E947F
:10378000DF1C8823D1F2F82EEFCFF60181916F0173
:103790008093F1002197FFEFAF1ABF0ACECFFC0153
:1037A0008091B3029091B40286179707A0F061153B
:1037B000710529F49091E8009E779093E80090E0DD
:1037C0006115710551F4911108C08091E80082FFE4
:1037D00034C080E00895BC01F2CF8091AC02882310
:1037E000C1F18530C1F18091E80083FD30C0809146
:1037F000E80082FDEACF8091E80080FFE1CF809170
:10380000F3002091F200382F6115710519F028306E
:10381000310558F091E02830310509F090E0209111
:10382000E8002E772093E800CBCF81918093F100C0
:10383000615071092F5F3F4FE7CF8091AC02882321
:1038400041F0853041F08091E80083FFBECF81E0F8
:10385000089582E0089583E00895FC018091B30209
:103860009091B40286179707A0F06115710529F4AD
:103870008091E8008E778093E80090E061157105F3
:1038800051F4911108C08091E80082FF35C080E0BA
:103890000895BC01F2CF8091AC028823C9F1853034
:1038A000C9F18091E80083FD31C08091E80082FD7C
:1038B000EACF8091E80080FFE1CF8091F300209172
:1038C000F200382F6115710519F02830310558F0D4
:1038D00091E02830310509F090E08091E8008E7782
:1038E0008093E800CBCF84918093F10031966150B2
:1038F00071092F5F3F4FE6CF8091AC02882341F0E2
:10390000853041F08091E80083FFBDCF81E00895CC
:1039100082E0089583E00895982F973028F08F7003
:103920008093E90081E008959093E900242F762F99
:1039300050E0981731F07091EC002091ED0050911B
:10394000F00021FD02C09F5FE8CF3091EB003E7F89
:103950003093EB003091ED003D7F3093ED003091DE
:10396000EB0031603093EB007093EC002093ED009E
:103970005093F0002091EE0027FDE5CF80E0089500
:103980008091AD0287FF13C08091E80082FF06C0DE
:103990008091E8008B778093E80004C08091AC02AE
:1039A0008111F2CF08958091AC028823D9F38091E0
:1039B000E80080FFF8CF8091E8008E77ECCF20916F
:1039C000E4003091E50095E6A9012091EC00822FFA
:1039D000817020FF06C08091E80080FF06C080E073
:1039E00008952091E80022FD1AC08091AC0288233E
:1039F00089F0853089F08091EB0085FD0FC0209122
:103A0000E4003091E50042175307F9F29150E1F6D6
:103A100084E0089582E0089583E0089581E00895A8
:103A20000E947E1D0E94861DE0EEF0E08081816094
:103A30008083E8EDF0E080818F77808319BCA7ED6B
:103A4000B0E08C918E7F8C9380818F7E80831092EA
:103A5000AB0208950F931F93CF93DF930E947E1DB7
:103A60000E94861DC8EDD0E088818F778883888189
:103A70008068888388818F7D888319BC1092AC020E
:103A80001092A8021092AA021092A90200EE10E071
:103A9000F80180818B7F808388818160888342E008
:103AA00060E080E00E948C1CE1EEF0E080818E7F7F
:103AB0008083E2EEF0E08081816080838081886095
:103AC0008083F80180818E7F8083888180618883F4
:103AD000DF91CF911F910F910895E8EDF0E0808183
:103AE0008F7E8083E7EDF0E080818160808384E0D9
:103AF00082BF81E08093AB020C942A1DE8EDF0E0D8
:103B000080818E7F80831092E20008951092DA0007
:103B10001092E10008951F920F920FB60F92112498
:103B20002F933F934F935F936F937F938F939F93C5
:103B3000AF93BF93EF93FF938091E10082FF0BC09F
:103B40008091E20082FF07C08091E1008B7F80932B
:103B5000E1000E94AF198091DA0080FF19C08091C6
:103B6000D80080FF15C08091DA008E7F8093DA0044
:103B70008091D90080FF96C080E189BD82E189BD36
:103B800009B400FEFDCF81E08093AC020E94881949
:103B90008091E10080FF19C08091E20080FF15C094
:103BA0008091E2008E7F8093E2008091E20080614C
:103BB0008093E2008091D80080628093D80019BC85
:103BC00085E08093AC020E94A5198091E10084FFFA
:103BD0002BC08091E20084FF27C080E189BD82E193
:103BE00089BD89B5982F917080FFFBCF8091D80057
:103BF0008F7D8093D8008091E1008F7E8093E100DB
:103C00008091E2008F7E8093E2008091E2008160EB
:103C10008093E2008091A802882309F449C084E0DF
:103C20008093AC020E94A9198091E10083FF29C012
:103C30008091E20083FF25C08091E100877F80931F
:103C4000E10082E08093AC021092A8028091E10032
:103C50008E7F8093E1008091E2008E7F8093E2006E
:103C60008091E20080618093E20042E060E080E0C9
:103C70000E948C1C8091F00088608093F0000E946C
:103C8000A119FF91EF91BF91AF919F918F917F917A
:103C90006F915F914F913F912F910F900FBE0F90B9
:103CA0001F90189519BC1092AC020E949A1970CFFF
:103CB0008091E30087FD93E09093AC02B3CF1F9215
:103CC0000F920FB60F9211242F933F934F935F9350
:103CD0006F937F938F939F93AF93BF93CF93DF9314
:103CE000EF93FF93D091E900DF708091EC00C82F33
:103CF000C17080FDC0E81092E9008091F000877FDC
:103D00008093F00078940E94A31E1092E9008091A5
:103D1000F00088608093F000CD2BCF70C093E90055
:103D2000FF91EF91DF91CF91BF91AF919F918F91D3
:103D30007F916F915F914F913F912F910F900FBEA7
:103D40000F901F9018951F93CF93DF93CDB7DEB7D9
:103D5000AA970FB6F894DEBF0FBECDBF8DEA92E0F2
:103D60002091F100FC012193CF01F2E0853B9F07F8
:103D7000B9F70E94FA198091E80083FF1EC1809173
:103D8000AD029091AE029A3008F017C1E92FF0E031
:103D9000E058FF4D0C941C20803899F0823809F0CF
:103DA0000CC18091B1028F70873008F006C18093FA
:103DB000E9008091EB0085FB882780F91092E900EB
:103DC00006C08091A9029091AA02911182609091FF
:103DD000E800977F9093E8008093F1001092F10043
:103DE0008091E8008E77E5C0882309F4D3C0823043
:103DF00009F0E3C08091AF028111D6C08091B10279
:103E00008F702FEF280F263008F0D7C08093E9007D
:103E10002091EB0020FFC8C0933031F48091EB007B
:103E200080628093EB00C0C09091EB009061909312
:103E3000EB0021E030E001C0220F8A95EAF72093E1
:103E4000EA001092EA008091EB008860EACF8111CD
:103E5000B4C01091AF021F778091E3008078812B6E
:103E60008093E3008091E800877F8093E8000E94C0
:103E7000C01C8091E80080FFFCCF8091E300806847
:103E80008093E30082E0111183E08093AC0295C03F
:103E90008058823008F091C08091AF029091B002BA
:103EA0008C3D23E09207A1F583E08A838AE289832F
:103EB0004FB7F894DE01139620E03EE051E2E32F85
:103EC000F0E050935700E49120FF03C0E295EF70BB
:103ED0003F5FEF708E2F90E0EA30C0F0C7968D9371
:103EE0009D932F5F243159F74FBF8091E800877F62
:103EF0008093E8006AE270E0CE0101960E94CF1B39
:103F00008091E8008B778093E80057C0C096E7CF98
:103F10006091B1027091B202AE014F5F5F4F0E949B
:103F2000FC1ABC01892B09F448C09091E800977FE6
:103F30009093E80089819A810E942D1CE1CF8038FE
:103F4000E1F58091E800877F8093E8008091A802E6
:103F50008093F10045CF811130C09091AF02923033
:103F600060F58091E800877F8093E8009093A80235
:103F70000E94C01C8091A802882311F084E005C033
:103F80008091E30087FDFACF81E08093AC020E942C
:103F9000F01913C08091AF02813079F481E0933041
:103FA00009F080E08093AA021092E9008091E80075
:103FB000877F8093E8000E94C01C8091E80083FF07
:103FC0000AC08091E800877F8093E8008091EB0031
:103FD00080628093EB00AA960FB6F894DEBF0FBE06
:103FE000CDBFDF91CF911F910895CF938091AC0207
:103FF0008823A1F0C091E900CF709091EC00892F47
:10400000817090FD80E8C82B1092E9008091E80053
:1040100083FD0E94A31ECF70C093E900CF91089545
:10402000991B79E004C0991F961708F0961B881F0A
:104030007A95C9F780950895EE0FFF1F0590F491CA
:10404000E02D0994F999FECF92BD81BDF89A992788
:1040500080B50895A8E1B0E042E050E00C9456200D
:10406000262FF999FECF92BD81BDF89A019700B431
:10407000021639F01FBA20BD0FB6F894FA9AF99AD1
:104080000FBE08950396272F0E9431200E943020F2
:10409000252F0E943120242F0C9431200196272FA8
:1040A0000E9431200C943020DC01CB01FC01F999F5
:1040B000FECF06C0F2BDE1BDF89A319600B40D9274
:1040C00041505040B8F70895F894FFCF030F030F05
:1040D0005A0F5A0F300F300F300F300FA60F32101B
:1040E000411041100D110D11161116111811161154
:1040F000161116110D110D111D11161116111D118C
:10410000CC1EF41EDD1FF41EDD1F271F481FDD1F00
:044110009F1FAB1F23
:104114005E022B0000580238020052022D02004CAD
:104124000231020046024B010040022800003A021C
:104134001A010034024C00002E022B000028023524
:10414400020022022A00001C0238000016022D0080
:104154000010024E01000A02310000040265000052
:10416400FE014C0000F8012B0200F201350000ECC6
:104174000128000000000000000000000000000012
:10418400000000000000000000000000000000002B
:10419400000000000000000000000000000000001B
:1041A400000000000000000000000000000000000B
:1041B40000000000000000000000000000000000FB
:1041C400000000000000000000000000000001E901
:1041D4000100EA0104EA01017602F3185A19F618FB
:1041E400F7188719016697C6343531333236000023
:0241F4000000C9
:00000001FF
