:100000000C9484020C94650E0C94CB020C94CB02DD
:100010000C94CB020C94CB020C94CB020C94CB022C
:100020000C94CB020C94CB020C9439230C940D2429
:100030000C94C41A0C94CB020C94CB020C94CB02FB
:100040000C94CB020C94CB020C94CB020C94CB02FC
:100050000C94CB020C940F1B0C94CB020C94CB028F
:100060000C94CB020C94CB020C94CB020C94CB02DC
:100070000C94CB020C94CB020C94CB020C94CB02CC
:100080000C94CB020C94CB020C94CB020C94CB02BC
:100090000C94CB020C94CB020C94CB020C94CB02AC
:1000A0000C94CB020C94CB020C94CB024B4C3A2018
:1000B0006B633A2025752C20636F6C3A2025752CD4
:1000C00020726F773A2025752C20707265737365E6
:1000D000643A2025750A0014001A0008001500175C
:1000E0000004721671077409680A001D001B0006DF
:1000F000001900050000002A4329432B004A001381
:100100000012000C0018001C0033720F710E740DE9
:10011000680B003800370036001000110000002C7A
:100120004128642C41390035083802F900FA0039B9
:100130000029612B62E200F468F56139001B0806B2
:100140000819081D0800002A4401002A434A002A11
:10015000004E005200F9002A0039004F00520051B1
:100160000050000100F300F000F100F20000002C4C
:100170004428642C414D001E021F02F0002F023063
:1001800002F500F200F100F300F4002F0030002629
:10019000022702240200002A4401002A434A0025C3
:1001A0000226002500240031002700230022002120
:1001B000002E002E0220001F001E00350000002C23
:1001C0004428642C414D001E021F022002210222FD
:1001D0000236022F0026022F0224023702300027A7
:1001E000023002240200002A4401002A434A00256A
:1001F00002260025002400230227002300220021DC
:10020000002E002E0220001F001E00350000002CD2
:100210004428642C414D000100080852004B012B7A
:10022000062903500051004F004B0301003D04011B
:10023000004902005C0000010001002A434A000F4F
:1002400008010001004E012B044C050100E30028C9
:10025000004E030100010001000100010000000147
:100260000001002C414D000A000B00000009000DA8
:100270000000001B00360000001D003800000036A2
:100280000010000000370036000000380037000082
:100290000018000C00000012000C000000120018F2
:1002A0000000001300120000000600190000001BEF
:1002B00000060000001D001B0000000800150000E3
:1002C000001A00150000001A000800000014001AAF
:1002D00000000044454255473A2064697361626CEE
:1002E00065642E0A0044454255473A20656E6162B6
:1002F0006C65642E0A000A0025303862003A20003E
:1003000025303258000A722F6320303132333435B1
:1003100036370A000A002530325820006B657962B2
:100320006F6172645F7265706F72743A20000A00C8
:1003300025303258006B6579626F6172645F736556
:10034000745F6C65643A2000290A002575002F004F
:100350002575005D2800256400200025640020002C
:1003600025640020002564007C0025303258006D93
:100370006F7573656B6579205B62746E7C7820792C
:10038000207620685D287265702F61636C293A20A1
:100390005B005B735D004B6579626F617264207313
:1003A000746172742E0A005B575D005B535D005BE5
:1003B000525D005B445D005B435D00040330000060
:1003C0000012037300710075006900670067006C1C
:1003D00000650000000E03690062006E0075006495
:1003E00000610000000403090409025B000301002E
:1003F000A0FA090400000103010100092111010014
:10040000012240000705810308000A0904010001D8
:1004100003000000092111010001224F000705829D
:100420000320000A09040200020300000009211150
:1004300001000122220007058303200001070503B4
:10044000032000011201100100000008556973200B
:100450000100010203010631FF0974A101097515AC
:100460000026FF009520750881020976150026FFF9
:1004700000952075089102C005010902A1018502BD
:100480000901A10005091901290515002501950596
:10049000750181029501750381010501093009315A
:1004A0001581257F95027508810609381581257FFC
:1004B000950175088106050C0A38021581257F957E
:1004C0000175088106C0C005010906A101050719CB
:1004D000E029E71500250195087501810295017550
:1004E0000881010507190029FF150026FF00950660
:1004F0007508810005081901290595057501910206
:10050000950175039101C00011241FBECFEFDAE001
:10051000DEBFCDBF04B603FE27C080912E049091AC
:100520002F04A0913004B09131048730904BA74044
:10053000B04BD1F410922E0410922F04109230047C
:100540001092310414BE84B7877F84BF0FB6F8942D
:10055000A89580916000886180936000109260008F
:100560000FBEE0E0F8E3099513E0A0E0B1E0E0ECB5
:10057000FCE402C005900D92AA34B107D9F724E03B
:10058000AAE4B3E001C01D92AE32B207E1F70E94C7
:100590006E200C943A260C940000FF93EF93E091A8
:1005A0004A03F0914B03309709F00995EF91FF91C1
:1005B0000895FC018591803011F0EFDFFBCF0895A5
:1005C000FF27E0E230E247FF0CC0419597FF09C0EA
:1005D000EDE26095709580959095611D711D811D6E
:1005E000911D27FF02C0219530E350E2AA27660F34
:1005F000771F881F991FAA1FA41710F0A41B6395CB
:100600005A95A9F7AA3008F0A95FA05DAF93F395BA
:10061000611571058105910541F7ED3211F4EF93F4
:10062000F395F21718F43F93F395FBCF8F91B5DF55
:10063000FA95E1F70895E991F9918591803021F0DB
:10064000853219F0AADFF9CF089520E0E89455919A
:100650005532C1F3503311F4689455915A3348F42C
:10066000505390F3220F022E220F220F200D250F40
:10067000F4CF0EF4219589919991533619F353379C
:1006800029F1533559F1BC0188279927E8945C3644
:1006900021F48991999168945591543639F446EF33
:1006A0007EF077FF0DC08FEF9FEF0AC055374AE00D
:1006B00039F0583540E121F0523642E009F0089512
:1006C000FF93EF937DDFEF91FF91B7CFFF93EF9310
:1006D000FC0181918030B9F360DFFBCFFF93EF9392
:1006E00068DFF1CFDF93CF93CDB7DEB72596A3DFD9
:1006F000CF91DF910895FB0122811F922F932181D9
:100700001F922F9320811F922F939F938F938CEA98
:1007100090E09F938F930E9472038DB79EB70A96C5
:100720000FB6F8949EBF0FBE8DBF81E00895CF93A2
:10073000DF939C013A9521153F4168F5EC01CC27E8
:10074000D170DC01AA27B270AC01442754709C011F
:100750002227387094FF11C080E1CD2B09F480E08E
:10076000AB2B09F08062452B09F08064232B09F044
:100770008068FB01DF91CF91099481E0CD2B09F4D2
:1007800080E0AB2B09F08260452B09F08460232BBD
:1007900081F38860EECFDF91CF910895CF93DF93FF
:1007A000EC01805E9109089720F062E573E12097E3
:1007B00011F46CE171E1CE010E9497038C2FDF915F
:1007C000CF910C94A710CF93DF93EC010E94DA1025
:1007D000CE01805E9109089720F069E573E12097CA
:1007E00011F463E271E1CE01DF91CF910C94970394
:1007F00081E008950C947B0308950C94FC031F93EF
:10080000CF93DF9300D000D00F92CDB7DEB74983EE
:100810005A836B833091840389819A8131111DC081
:100820006623B9F02223A9F00E942218182F682FFE
:1008300089819A810E94CB1769817A81812F0F90DB
:100840000F900F900F900F90DF91CF911F910C940C
:10085000D5040E94F917182FEFCF0E942218698142
:100860007A81EDCFFC01262F408151816281738115
:1008700084810C94FF03CF93DF93EC0160E00E942E
:100880003204BE01DF91CF910C94FD030E947919CF
:10089000811102C00E94161A0C949C060E94600DE1
:1008A0000E94DB0A0C949F0608950C94540481E086
:1008B00008950C945704CF93C82F0E9455048C2F91
:1008C000CF910C94590408950E946E130E94630402
:1008D0002FEF84E39CE0215080409040E1F700C07E
:1008E00000000C94331B0F931F93CF93DF93EC0105
:1008F00061E00E9432048C01BE010E94C00CBE0166
:10090000C8010E94FA03882371F1BE01C8010E9448
:10091000060D882341F1BE01C8010E94070B882300
:1009200011F1BE01C8010E941C098823E1F0BE013B
:10093000C8010E946E098823B1F0BE01C8010E945F
:10094000910A882381F08A81882341F101308CE566
:10095000180779F00E3D8CE51807E9F001151C45E4
:10096000E9F40E94640480E0DF91CF911F910F9120
:1009700008959091EB03892F8E7F90FF8160809383
:10098000EB0380FF05C085EE92E00E94D902EBCF19
:1009900083ED92E0FACF0E94161AE5CFCE01DF91E7
:1009A000CF911F910F910C94F803972F70E025E0E1
:1009B000929F600D711D1124FB0198E2899FE00D4B
:1009C000F11D1124EE0FFF1FE952FF4F8591949105
:1009D0000895CF93DF930E94D5040E94C105EC01D6
:1009E000811522E5920778F5811531E5930708F026
:1009F00098C08F3F910509F0B8F4803F910508F049
:100A00006FC0853A910540F48430910548F4019710
:100A100039F0D0E0C0E004C0805E91090897C8F7C3
:100A2000CE01DF91CF910895811540E5940708F03C
:100A30005CC0C11580E4D80708F054C0C11590E22D
:100A4000D90770F3E6CF811526E5920718F58115D1
:100A500035E5930708F07DC0811544E5940708F05B
:100A600073C0982F969596959E0123703327C115D4
:100A7000D34508F45BC0C1E0D0E002C0CC0FDD1F5D
:100A80002A95E2F730E2939FC0011124C82BD92B9D
:100A9000DA68C6CFC1159AE5D90778F4C11529E5FA
:100AA000D20708F060C0C11538E5D30708F4B1CF0C
:100AB000DC2FCC27C06FD06AB3CFCE019056811502
:100AC000904208F0A6CF8D2F8F710E94580690E0BB
:100AD000982F882788279F719C012C2BE90141C002
:100AE000D0659ECFDF70D06A9BCFE4E09695879566
:100AF000EA95E1F783702C2F26952695237090E2D6
:100B0000299F90011124382B8C2F8370C1E0D0E0F5
:100B100002C0CC0FDD1F8A95E2F7C22BD32BDC6815
:100B20007FCFD82FCC27C16FD06A7ACFC1E0D0E079
:100B300002C0CC0FDD1F2A95E2F720E2929FC00190
:100B40001124C82BD92BEBCFD82FCC27C46FD06A58
:100B500067CF0E945806C82FD0E0DC2FCC27CC27C7
:100B6000DF71D0625DCF8C2F8F700E94580634E009
:100B7000D695C7953A95E1F7CF709C2FEC01D069D7
:100B80004FCF82389105B1F1B0F48133910509F46A
:100B900075C048F48932910509F469C08A3291051B
:100BA00009F473C008958533910509F459C0893358
:100BB000910501F10895833E9105A9F138F4803E35
:100BC0009105F9F0823E910549F10895863E91051F
:100BD000A9F1873E9105C9F1843E910519F520914F
:100BE000200421FF1FC080911F0484FD14C087EEE4
:100BF00090E0089520911F042370A1F080EE90E012
:100C0000089520911F0420FD47C03091200430FF3B
:100C100009C024FF44C090E080E004C020911F047C
:100C200022FDF7CF089520911F0422FD3BC0309193
:100C3000200430FDE3CF24FFF5CFEDCF20911F043A
:100C400023FFF0CF24FDE7CFD2CF20911F0423FD57
:100C50002CC03091200431FFEECF84EE90E0089557
:100C600020911F0425FFDECF89E290E008952091B6
:100C70001F0425FFD7CF85E390E0089520911F043E
:100C800026FFD0CF8AE290E0089520911F0426FF2E
:100C9000C9CF81E390E0089589E390E0089583EE61
:100CA00090E0089582EE90E0089586EE90E0089539
:100CB00090911F0492FF06C0282F28712830F9F464
:100CC000877F846093FF06C0282F28712831F1F4B4
:100CD000877E84612091200420FF06C0382F387160
:100CE0003830D9F4877F816021FF06C0282F287112
:100CF0002831D1F4877E816194FD877E0895282F65
:100D000024712430F9F68B7F8860DCCF282F247182
:100D1000243101F78B7E8861DDCF382F317131307E
:100D200019F78E7F8860E0CF282F2171213121F7BC
:100D30008E7E8861E1CF08950C949B0608950C94F3
:100D40009E06E82FF0E0EF5EFB4F80810895CF9282
:100D5000DF92EF92FF920F931F93CF93DF9385E083
:100D600093E00E94D90281E1E82E84E0F82ED0E0E1
:100D7000C0E090E0C92E93E0D92E08EF12E0DF9397
:100D8000CF93DF92CF920E9472038DEF92E00E9488
:100D9000D902F70181917F010E9461191F928F93FF
:100DA0001F930F930E94720386EF92E00E94D90274
:100DB00021968DB79EB708960FB6F8949EBF0FBECA
:100DC0008DBFC830D105D9F6DF91CF911F910F911A
:100DD000FF90EF90DF90CF90089580EA8A95F1F729
:100DE000089508950E944C0880911003809110038B
:100DF00094E0811190E090931A0484E0891B809321
:100E00001904A3E3B3E061E070E08D91E82FE2956F
:100E1000EF70F0E041A18F709B0101C0220F8A9515
:100E2000EAF7922F9095942391A382A1822B82A31B
:100E300083E0A733B80749F7AEE2B3E061E070E0C2
:100E40008D91E82FE295EF70F0E041A18F709B014A
:100E500001C0220F8A95EAF7922F9095942391A3CF
:100E600082A1822B82A383E0A333B80749F7E9E08C
:100E7000F4E0A1E1B4E081E194E011921D928E17BB
:100E80009F07D9F784E00E94F7070E9446040C945C
:100E900056080E942E088823F1F08091190490E0F2
:100EA0008F5E9B4F0E946908811112C080914C0394
:100EB0008F5F80934C03863048F0E0911904F0E096
:100EC000EF5EFB4F10821182128213820C944E044B
:100ED00010924C03FBCF80911A0490E08F5E9B4FE1
:100EE0000E9482080C94F1068F929F92AF92BF925B
:100EF000CF92DF92EF92FF920F931F93CF93DF93E6
:100F000083E3A82E83E0B82E09E014E0912CCC24D2
:100F1000C394D12CF50181915F01C82FC295CF7088
:100F2000D0E099A18F70760101C0EE0C8A95EAF7A6
:100F3000892F8E2989A38AA18E2C809488218AA347
:100F40000E94ED06EEE2F3E050E040E020E0319157
:100F5000A32FA295AF70B0E090968C9190E03F7077
:100F600002C0959587953A95E2F780FD3CC08C2D9F
:100F7000042E01C0880F0A94EAF7282B4F5F5F4FB9
:100F80004530510521F789A1882289A28AA1E82A42
:100F9000EAA2F8018081281741F1208381E0982A94
:100FA0000F5F1F4FF7E3AF16F3E0BF0609F0B2CFB4
:100FB00060911A0470E06F5E7B4F292D44E089E058
:100FC00094E00E94F8070E944907892DDF91CF9194
:100FD0001F910F91FF90EF90DF90CF90BF90AF9057
:100FE0009F908F90089580E0C8CF80E0D8CF08957B
:100FF000FF920F931F93CF93DF93F82E092F162F95
:10100000D72FC42F222349F081E080934F030E9401
:10101000F41A90934E0380934D0380914F038823DD
:10102000A1F080914D0390914E030E94001B069702
:1010300060F0EF2DF02FA12FBD2FCE0FDF2FD11D90
:10104000EC17FD0741F410924F03DF91CF911F91F0
:101050000F91FF90089581918D93F2CF809150036D
:10106000811111C08091D80080618093D8008AE1FD
:101070008A95F1F700C09091D900892F817090FF77
:1010800082E08093500381E090915003913009F009
:1010900080E008950C942E080E944A088093100363
:1010A0000E942E0881110C945D0808950E942E085C
:1010B000811102C00C946308089561E070E081E141
:1010C00093E00C94160E61E070E081E193E00C94E3
:1010D0001D0ECF93DF93D82FC92F0E94B70E009714
:1010E00079F4ED2FFC2FDC01AE5ABC4F2C912193EB
:1010F000019684309105B9F781E0DF91CF91089591
:1011000080E0FBCF30E020E0FC014191CF01F9010C
:10111000EE5AFC4F40832F5F3F4F24303105A1F73B
:101120000895AF92BF92CF92DF92EF92FF920F930A
:101130001F93CF93DF937C015B01C42FD22FFC015F
:1011400082818823F9F0409358030E94F41A909307
:1011500057038093560380E28C0F883008F061C0FB
:10116000C77081E001C0880FCA95EAF7DF91CF917F
:101170001F910F91FF90EF90DF90CF90BF90AF90B5
:101180000C941C1110915803141340C08091560305
:10119000909157030E94001B6C01B701C5010E948A
:1011A0002016C816D90690F5C0E2CD0F1D17B9F06C
:1011B00080E2810F883040F4177081E001C0880F11
:1011C0001A95EAF70E942311C83048F481E09D2F58
:1011D000977001C0880F9A95EAF70E941C11802F22
:1011E0000E940911C830E8F4D77081E001C0880F6F
:1011F000DA95EAF7DF91CF911F910F91FF90EF9071
:10120000DF90CF90BF90AF900C94231180E28C0FB1
:10121000883038F4C77081E001C0880FCA95EAF7BA
:10122000E9CFDF91CF911F910F91FF90EF90DF9069
:10123000CF90BF90AF9008950F939C01CB01233FB7
:101240004CE5340759F1A8F4283DFCE53F0701F1CE
:10125000293D4CE53407D1F1273D3C4591F406E2A8
:1012600021EE41EE67ED7CE50E94910880E00F9150
:101270000895253FFCE53F07E9F0B0F0263F3C45E7
:10128000F9F0FC018281882339F110925803EFCFE5
:1012900007E225EE45EE68ED7CE5E6CF06E221EEBD
:1012A00040EE63EF7CE5E0CF07E225EE44EE64EF2D
:1012B0007CE5DACF06E221EE42EE65EF7CE5D4CFA5
:1012C00007E225EE46EE66EF7CE5CECF08E221E0B0
:1012D00045EE69ED7CE5C8CF81E0C9CFCF93DF93C0
:1012E000EC01FB018281882309F419C1C230FCE5BD
:1012F000DF07C0F1C6319CE5D90730F09E012A5FB7
:101300003C452930310570F50E948C1990932004DA
:1013100080931F04C031ECE5DE0709F4CFC008F06C
:101320005BC0C8308CE5D80709F4B6C088F5C43076
:10133000ECE5DE0709F4A8C0C0F4C2308CE5D8079C
:1013400009F49CC080911F048260C330DC4509F41D
:1013500098C080911F04909120040E949A190E94C5
:101360006E1380E0DF91CF91089580911F0480611A
:10137000C630ECE5DE0709F484C080911F04886064
:10138000C730DC4508F47DC080911F04806279C0BD
:10139000CC308CE5D80709F489C070F480911F0423
:1013A0008C60CA30ECE5DE0709F46BC008F478C045
:1013B00080911F048E7F65C0CE308CE5D80709F47C
:1013C00079C080911F048B7FCF30DC4508F459C071
:1013D00080911F048F7E55C0CB3FECE5DE0709F4FA
:1013E00057C030F5C3318CE5D80709F46FC078F4E5
:1013F000C131ECE5DE0709F465C0C231DC4509F016
:10140000A8CF0E946E1380911F048F773AC0C53118
:101410008CE5D80709F462C008F476C080912004F6
:101420008160CA3FDC4509F094CF8093200491CFBE
:10143000CF3FFCE5DF0709F44DC088F4809120041C
:101440008D7FCD3F9CE5D90781F3809120048E7F6D
:10145000CE3FDC4550F3809120048360E6CFC1305D
:10146000FDE5DF0709F459C008F444C080E0C2304C
:10147000DD4509F06ECF0E94181A6BCF80911F04D2
:10148000816080931F0465CF80911F048460F9CF31
:10149000809120048260C9CF80911F048064F1CFC5
:1014A0000E946E1380911F048068EBCF80911F040F
:1014B0008D7FE7CF80911F04877FE3CF80911F044A
:1014C0008F7DDFCF80911F048F7BDBCF80911F0446
:1014D000837FD7CF809120048C7FA7CF80911F047A
:1014E00082FB992790F921E0922790FB82F990FBEB
:1014F00083F9C7CF80912004982F909591708E7FAB
:10150000892B90FB81F991CF0E946E1390911F045B
:10151000892F97FB87F98058B4CF81E0ACCF81E069
:1015200021CFCF93DF93EB0186319C4511F50E94CB
:10153000B7189A81992399F08A7A91E009F490E09A
:1015400090935903811109C089E20E9492180E9468
:10155000F91880E0DF91CF91089585E3F6CF80916F
:101560005903811104C089E20E949918F0CF85E3E4
:10157000FBCF81E0EFCFCF9390916A03992321F0C5
:10158000811116C010926A03CF910895EC2FF0E0FC
:10159000EE0FFF1FE65AFC4F808191810E94CE031F
:1015A0000E94F918CF5F80916A03C81778F3EACFD9
:1015B000C0E0F9CF089580911903882399F08091B4
:1015C0006B03882379F080916F03909170030097EB
:1015D00049F00E94001BC39728F010926B0381E032
:1015E0000C94BB0A089510926B0310921903109289
:1015F000700310926F0381E00C94BB0A8091190371
:1016000081110C94F30A81E08093190308955F928D
:101610006F927F928F929F92AF92BF92CF92DF9202
:10162000EF92FF920F931F93CF93DF937C016B0197
:1016300010926C03873F4CE59407C1F4FB01C28113
:10164000CC2349F181E0809319038C2FDF91CF9156
:101650001F910F91FF90EF90DF90CF90BF90AF90D0
:101660009F908F907F906F905F900895883FFCE5EA
:101670009F0739F4FB01C281CC2369F00E94F30A71
:10168000E4CF893F9C4539F4FB01C281CC2319F09A
:101690000E94FE0ADACFD0911903C1E0DD23A9F23E
:1016A00010926E0310926D03C0E055E0752E8824F1
:1016B0008394912C6624639400916D0310916E03C2
:1016C0000632110588F080916C03882309F497C0D5
:1016D0000E94F41A9093700380936F0380E00E943D
:1016E000BB0A81E0C827B1CF709EF001719EF00D5A
:1016F0001124EE5AFD4F808191813FEF20E0E22FCF
:10170000F0E0EE0FFF1FE80FF91F45915491E4162A
:10171000F50609F4322F452B11F02F5FF0CF3F3F34
:10172000D1F4512CC529DD2351F0709EF001719E3A
:10173000F00D1124EE5AFD4FD1E084818111D0E0EB
:10174000D17080916D0390916E03019690936E031A
:1017500080936D03B1CF50906B03F6019281709E20
:10176000F001719EF00D1124EE5AFD4F8481540159
:1017700001C0AA0C3A95EAF79923E1F0A82AA482BD
:10178000552079F2C40102C0880F991F2A95E2F70B
:101790000197A816190631F682819381009729F0E6
:1017A0000E94CE0360926C03BDCF61E0C8010E942D
:1017B000DA0AF8CFA40102C0440F551F2A95E2F7B8
:1017C0009A012150310982171306B9F4828193815D
:1017D000009771F00E94E303709EF001719EF00D7E
:1017E0001124EE5AFD4FA0948481A822A4829ACF9E
:1017F00060E0C8010E94DA0AEFCF512CEDCFC11191
:101800000EC081E00E94BB0ADD2309F46ACF10926A
:10181000700310926F0381E080936B0362CFF60137
:101820008281882309F45DCF80916B03882309F4BA
:1018300058CF0E94F41A9093700380936F03E09145
:101840006A03E83008F04DCF81E08E0F80936A0381
:10185000F0E0EE0FFF1FE65AFC4FF182E08241CF2D
:10186000CF93DF93EC0181E0898B8F810E94BA18BE
:1018700088850E94CD180E94F918EA81FB81309773
:1018800039F06C897D89CE010696DF91CF9109945C
:10189000DF91CF910895CF93DF93EC01888182305F
:1018A00039F4FB01828193810E94CE0381E08B8712
:1018B000DF91CF910895FC018081813029F4FB01F3
:1018C000808191810C94CE03823021F4FB018281CE
:1018D0009381F8CF0895FC018081813029F4FB01C8
:1018E000808191810C94E303823021F4FB01828199
:1018F0009381F8CF0895EF92FF920F931F93CF93A8
:10190000DF93EC018A85811134C0EB80FC8087E590
:10191000F81A26E12E9DC0012F9D900D1124DC01A7
:10192000A050BF4F1496ED91FC911597309731F070
:1019300054966D917C918A5F9E4F099586E18E9DAC
:1019400080018F9D100D112400501F4FF8018781D9
:101950000E94C018F80180850E94D3180E94F918CF
:10196000188219861B861E821D82109272031092A5
:101970007103DF91CF911F910F91FF90EF90089528
:10198000DF92EF92FF920F931F93CF93DF937C012F
:10199000FB018281882391F080911A038F3F71F0BF
:1019A000C0E0D1E010E000E0DD24D39480911A0380
:1019B000082E000C990B8017910744F4DF91CF910A
:1019C0001F910F91FF90EF90DF9008958E818823F3
:1019D000C9F089859A858E159F0539F48091710328
:1019E000909172038E159F0569F0DF86FC86EB8669
:1019F0008989811103C0CE010E94300CCE01069668
:101A00000E947B0C0F5F1F4F6696D0CFEF92FF9224
:101A10000F931F93CF93DF937C0197558F3F9105D1
:101A200009F0D8F520911A03022E000C330B281769
:101A3000390714F480931A03FB01228136E1389FA1
:101A40008001399F100D1124E801C050DF4F288B11
:101A500092818E81992349F1FA86E9868F5F8E8380
:101A60000E94F41A9E878D870E94E0188F830E943F
:101A7000B71888870E94CA189885892B8887E881BB
:101A8000F981309731F06C897D89C8018A5F9E4F5A
:101A90000995F0927203E092710381E0DF91CF919A
:101AA0001F910F91FF90EF9008958823B1F38989DA
:101AB000882399F3C8018A5F9E4F0E947B0CEDCF6B
:101AC000CF92DF92EF92FF920F931F93CF93DF930A
:101AD00080911A0310E006E18F3FF1F5DF91CF917D
:101AE0001F910F91FF90EF90DF90CF9008950E9D82
:101AF000F0010F9DF00D1124E050FF4FC288D388F4
:101B0000C114D10439F470E060E0818592850E94AF
:101B100020166C010E9DE0010F9DD00D1124C050C8
:101B2000DF4F8E818823B9F08D859E850E94001B32
:101B3000C816D90680F4109F70011124898981117B
:101B400005C0C70180509F4F0E94300CC7018A5FBB
:101B50009E4F0E947B0C1F5FE12EF12C80911A0397
:101B6000082E000C990B8E159F050CF6B7CF8EE151
:101B7000489B02C08150E1F7489BFECF08955898DA
:101B800080E28A95F1F7589A0895FC013BE03A9576
:101B9000F1F798E020E080E031E040E14A95F1F78C
:101BA000880F489B02C08160232742E04A95F1F7E5
:101BB000000040E14A95F1F7915079F790E19A954C
:101BC000F1F799B132E03A95F1F7000040E14A951A
:101BD000F1F7917092272081920F90830895EF92F0
:101BE000FF920F931F93CF93DF930F92CDB7DEB782
:101BF00019828C017C01E60EF11C0E151F0561F4A3
:101C000081E09981911180E00F90DF91CF911F9138
:101C10000F91FF90EF9008950E94B70DCE010196AD
:101C20000E94C50DF80181938F01E7CF9093740353
:101C300080937303509A589A0895909374038093F5
:101C400073035098589AE89AE9E6F0E080818C7F17
:101C5000808308956150770B91E001C0990F6A95D8
:101C6000EAF720E031E0911108C0222391F0589A60
:101C700080E28A95F1F758980895492F482339F062
:101C8000589A232740E24A95F1F79695ECCF589859
:101C9000F9CF5898EDCFFF920F931F93CF93DF9317
:101CA000EC018C01060F111DC017D10731F4DF9133
:101CB000CF911F910F91FF900895F9900E94BF0D51
:101CC00068E08F2D0E942A0EEFCF1F920F920FB661
:101CD0000F9211242F933F934F935F936F937F93B2
:101CE0008F939F93AF93BF93CF93DF93EF93FF9324
:101CF0005898509AC0917303D09174036D816623F4
:101D000021F08E819F810E944B0E0E94BF0D80E1C9
:101D10008A95F1F758985098589A80E18A95F1F78A
:101D20006A81662309F18B819C810E94EF0DE88115
:101D3000F981882311F088E001C082E080830E944D
:101D4000B70DFF91EF91DF91CF91BF91AF919F912F
:101D50008F917F916F915F914F913F912F910F9054
:101D60000FBE0F901F901895E881F981E4CFCF93B3
:101D7000DF93C0917303D0917403F894509A5898EC
:101D800085E08A95F1F700005098589A80E28A958C
:101D9000F1F7489B0CC0509A589AE881F98181E08C
:101DA0008083789481E090E0DF91CF9108956D81F8
:101DB000662381F08E819F810E94EF0D81110AC000
:101DC000509A589AE881F98182E08083789482E081
:101DD00090E0EACF0E94B70D80E28A95F1F758981B
:101DE000509A80E18A95F1F76A81662321F08B8110
:101DF0009C810E944B0E0E94BF0DE881F9811082E8
:101E0000789490E080E0D0CF90937A038093790328
:101E10000895E0917903F0917A03309721F00190D1
:101E2000F081E02D099480E00895EF92FF920F93E6
:101E30001F93CF93DF938C01E0917903F0917A03A4
:101E40003097C1F10280F381E02D09958091EB0379
:101E500082FF30C080FF04C08CE193E00E94D90271
:101E6000D0E0C0E086E1E82E83E0F82E8091EB031D
:101E700080FF0EC0F801EC0FFD1F80811F928F9331
:101E8000FF92EF920E9472030F900F900F900F90AD
:101E90002196C830D10551F78091EB0380FF0AC02D
:101EA00084E193E0DF91CF911F910F91FF90EF902C
:101EB0000C94D902DF91CF911F910F91FF90EF9079
:101EC0000895E0917903F0917A03309739F022E098
:101ED000DC012C930480F581E02D09940895209174
:101EE0007703309178032817390771F090937803BE
:101EF00080937703E0917903F0917A03309721F092
:101F00000680F781E02D09940895209175033091A2
:101F100076032817390771F0909376038093750341
:101F2000E0917903F0917A03309721F00084F185F4
:101F3000E02D0994089585B7806885BF85B78068CE
:101F400085BF0895089508950C94A20F08950C94E8
:101F5000A60F0E949B0F0E94A30F0C94A40F0C9439
:101F60002E080E94EB1A0E94F2060E94441B0C9459
:101F7000A70FCF93C82F8091EB0382FF1EC080FF75
:101F80001CC085E393E00E94D9028091EB0380FF9F
:101F900014C01F92CF9380E393E09F938F930E948E
:101FA00072038091EB030F900F900F900F9080FFC2
:101FB00004C08EE293E00E94D9028C2FCF910C9442
:101FC0005B04BF92CF92DF92EF92FF920F931F9329
:101FD000CF93DF93CDB7DEB72A970FB6F894DEBF65
:101FE0000FBECDBF0E9474070E94AF0F882309F473
:101FF0005EC08CE7C82E83E0D82E10E000E0B02E43
:10200000802F0E94A106E82EF601F1906F01F816CC
:1020100009F447C08091EB0381FD0E94A7069F2D24
:102020009E2580E0FF24F394292F2F21B1F18E8388
:10203000BF82EF2081E009F480E088870E94F41AD3
:102040008160782F9A8789874E815F8168858A852C
:102050000E947810F801E458FC4F8081F826F08245
:102060000E94711D0E94090F90917B03891781F1D5
:102070000E94090F80937B032A960FB6F894DEBF67
:102080000FBECDBFDF91CF911F910F91FF90EF90C9
:10209000DF90CF90BF900C94B90F8F5FFF0C85300D
:1020A00019F60F5F1F4F0830110509F0A8CF8FEF09
:1020B00089838A831B820E94F41A8160782F9D8312
:1020C0008C8349815A816B818D810E947810C8CFA1
:1020D0002A960FB6F894DEBF0FBECDBFDF91CF9129
:1020E0001F910F91FF90EF90DF90CF90BF900895D8
:1020F000CF93DF93CDB7DEB72B970FB6F894DEBF43
:102100000FBECDBF4F83588769877A878B871E8222
:102110001D8285E0FE013796DE01119601900D9239
:102120008A95E1F749815A816B817C818D819E81FD
:102130002B960FB6F894DEBF0FBECDBFDF91CF91C7
:102140000C942316FC01808191810C946418CF9328
:10215000C82F882369F18CEF8C0F813AA0F46C2F83
:1021600080911B0390911C030E942F1A882329F051
:102170008C2F0E9499180E94F9188C2F0E94921897
:10218000CF910C94F91880E28C0F883048F4C77016
:1021900081E001C0880FCA95EAF70E94BA18F0CF13
:1021A000C03F30F08C2F0E94E91BCF910C94D41CBF
:1021B000CF910895882361F19CEF980F913A20F414
:1021C0000E9499180C94F91890E2980F983050F4E6
:1021D000877091E001C0990F8A95EAF7892F0E94D4
:1021E000C018F0CF9BE5980F933020F490E080E08A
:1021F0000C946F0F98E5980F973120F490E080E0F1
:102200000C94850F803F20F00E94511C0C94D41C2C
:102210000895CF93C82F0E94A710C93349F42FEF18
:1022200087EE93E0215080409040E1F700C000002D
:102230008C2FCF910C94DA10882321F00E94BA18C9
:102240000C94F9180895882321F00E94C0180C946A
:10225000F9180895BF92CF92DF92EF92FF920F93F9
:102260001F93CF93DF937C01D62FC72FFC010581ED
:1022700002950F70128111110E94DA180E94B01895
:10228000D82E882391F01123E9F08C2F807F8034A1
:1022900021F080E28D0F8830A8F082E00E9444197E
:1022A0000E94B01891E0D82ED926CC2EC2949FE07F
:1022B000C922FBE0FC15A8F1EC2DF0E0E45CF94D3F
:1022C0000C94DE25D12CF1CF0C2F0F70C07F11F0B4
:1022D0000295007F1123A9F0002359F080E28D0FB1
:1022E000883010F0D11109C0802F0E94BA180E94C6
:1022F000F9188D2F0E94A71014C0802F0E94CD18AE
:10230000F6CF8D2F0E94DA10002359F080E28D0F56
:10231000883010F0D1112BC0802F0E94C0180E946D
:10232000F918EC2DE850FF0B349720F40E94090FA8
:102330000E945B04DD2009F46CC10E94AC1880FD92
:1023400068C1F70112820E94A6180E942F17C701C8
:102350000E942A130E94A618DF91CF911F910F911E
:10236000FF90EF90DF90CF90BF900C945017802F8C
:102370000E94D318D4CF2C2F2F70B22EC07FC03222
:1023800019F0B29480EFB822DD2339F0D13019F181
:10239000112361F1002321F1ACCF112381F0011150
:1023A00006C00E94E0188B290E941C11BACF013090
:1023B000C1F70E94E0188B290E94E618B2CF0111E4
:1023C00006C00E94EF188B2D0E942311AACF013066
:1023D00009F4A7CFF6CF112329F0063008F0A1CFDA
:1023E0008B2DE2CF053008F09CCFEDCF002359F3C1
:1023F000D93349F43FEF87EE93E03150804090406D
:10240000E1F700C000008D2F0E94DA108ACF8D2FD7
:10241000112329F00E94E91B0E94D41C82CF0E9444
:10242000511CFACF8C2F837009F041C0111179CF64
:102430004D2F429546954770440F440F0D2F0F7056
:1024400010E030E020E0042E04C0000F111F221F16
:10245000331F0A94D2F760E070E0CB01D4FF0FC0C5
:102460006FE070E080E090E004C0660F771F881F87
:10247000991F4A95D2F76095709580959095C6956D
:10248000C695C370602B712B822B932BC23049F001
:1024900058F4C13019F00E94E11643CF0E94CF16C4
:1024A00040CF0E94F3163DCF0E94CD163ACF8695BD
:1024B000112311F08C2F8170882309F432CF4D2F16
:1024C000429546954770440F440F0D2F0F7010E052
:1024D00030E020E0042E04C0000F111F221F331F24
:1024E0000A94D2F760E070E0CB01D4FF0FC06FE038
:1024F00070E080E090E004C0660F771F881F991F8E
:102500004A95D2F76095709580959095C695C69539
:10251000C370602B712B822B932BC23049F058F47F
:10252000C13019F00E94A617FCCE0E949417F9CE74
:102530000E94B817F6CE0E940917F3CECF70112370
:1025400029F08C2F0E942F178D2F2ECF8D2F0E94B8
:1025500023118C2F0E945017E4CED23F89F160F4F2
:10256000D03FC9F0D13F29F1112309F442C0011134
:10257000C0CE8C2F8F7121C0D33F39F1D43FA1F74A
:10258000112369F1CF718C2F0E942F1763E08C2FDC
:102590000E942F19C6CE112341F0053008F0C1CE9C
:1025A0008C2F8F710E947317BCCE063008F0B9CE05
:1025B000F7CF8C2F8F71112369F20E942F17B1CEA4
:1025C0008C2F8F711123C9F3C5CF112329F08C2FC4
:1025D0008F710E941A17A5CE0E941517A2CE81E016
:1025E0000E944419023008F49CCE82E00E944419F3
:1025F00098CE002359F0D93309F005CFEFEFF7EE6D
:1026000023E0E150F0402040E1F7FBCE8C2F8F71AA
:10261000A1CFDF91CF911F910F91FF90EF90DF90AD
:10262000CF90BF9008950F931F93CF93DF93EC014A
:10263000688179818A810E946E188C010E94CA1774
:102640000E94CC16B801CE01DF91CF911F910F915E
:102650000C942A11CF93DF93EC018B819C81892B01
:1026600029F08881998189238F3F59F4DF91CF9197
:102670000895CE010E941313CE01DF91CF910C94E7
:102680003B04CE010E9473048111F3CF0E94B01865
:10269000882361F38A81882349F382E0DF91CF9117
:1026A0000C944419882321F00E94CD180C94F91839
:1026B0000895882321F00E94D3180C94F9180895E6
:1026C0000E94DA180E94DD180E94F9180E947D1EEF
:1026D0000C94D41C0E94A0180C9460130E94C7187C
:1026E0000C946A13E92FE295EF70E250EE3070F42B
:1026F000F0E0E85BF94D0C94DE25803F19F020F402
:10270000883E20F481E00895843FE1F380E008955D
:10271000883EC0F3813FD1F7F5CF93FB882780F93E
:1027200008950E9464180C947213CF93DF9300D025
:1027300000D00F92CDB7DEB70F900F900F900F9093
:102740000F90DF91CF910895CF93DF9300D000D009
:1027500000D0CDB7DEB726960FB6F894DEBF0FBE19
:10276000CDBFDF91CF9108951F93CF93DF93C09199
:10277000850316E0809186038C1304C0DF91CF910E
:102780001F910895D0E01C9FF0011D9FF00D1124B2
:10279000E957FC4F40815181628173818481958129
:1027A0000E94A4132196C770E5CF4091B7035091C2
:1027B000B8036091B9037091BA038091BB03909103
:1027C000BC030C94A413209185039091860356E0DA
:1027D000291302C080E0089530E0529FF001539F1A
:1027E000F00D1124E957FC4F7181761306C07081FA
:1027F000781303C07281741304C02F5F3F4F27709A
:10280000E7CF81E008951F93CF93DF938091BC03BE
:10281000807FA9F48091B903882389F08091850392
:10282000C09186036091B7037091B803A091BA0379
:10283000B091BB03D62FD72316E0C81304C0DF9195
:10284000CF911F91089590E0109711F0DF3F19F498
:1028500001968770F2CF189F9001199F300D1124B7
:10286000F901E957FC4F41814713F2CF40814613EC
:10287000EFCF42814111ECCF438154814A1B5B0B66
:10288000483C510528F78091BC038F70806180938C
:10289000BC03F901E457FC4F80818F708061808315
:1028A00087EB93E00E942A13DF91CF911F910C9444
:1028B000B4138F929F92AF92BF92CF92DF92EF921A
:1028C000FF920F931F93CF93DF93CDB7DEB761973E
:1028D0000FB6F894DEBF0FBECDBF8C0185E0F801C6
:1028E000DE011D9601900D928A95E1F7D801EC90DA
:1028F0001196FC9011971296CC90129787EBA82E08
:1029000083E0B82E4091BA035091BB0341155105A5
:1029100009F474C19091B7032091B803892F8223E1
:102920008F3F09F46BC113968D909C901497D090B3
:10293000B903F401E41BF50BDD2009F40AC1809111
:10294000BC03382F307FE83CF10508F0C1C03111DD
:1029500089C0DC2C2F1126C09E1124C0C11022C0BA
:102960008F7080618093BC030E94D513C5010E94C3
:102970002A138091BC03D80115968C938D2D6196F6
:102980000FB6F894DEBF0FBECDBFDF91CF911F9180
:102990000F91FF90EF90DF90CF90BF90AF909F90FE
:1029A0008F9008958114910429F08F2D8E218F3FEF
:1029B00009F043C180E080FF15C04C2D6F2D8E2D96
:1029C0000E94E313882371F087EB93E00E942A139F
:1029D00086E0E7EBF3E0DF011D928A95E9F70E94BC
:1029E000D5133EC0892829F08F2D8E218F3F09F005
:1029F00021C180E0B82FB170AB2E80FF29C04C2DD3
:102A00006F2D8E2D0E94E313B82E811121C0ED860B
:102A1000FE868D859E850E946418292F22952F7031
:102A2000223050F0243078F49F7051F0F8019581F5
:102A3000907F31F4DB2CA2CF9F7011F08823D1F36B
:102A4000805E8830B8F3C8010E942A13BA2CF2CFF6
:102A5000CC2009F493CF8091BC0381608093BC03A8
:102A6000D12C8CCF2F1105C09E1103C0CC2009F4AE
:102A70008DC0ED86FE868D859E850E9491138823EC
:102A800019F1CC2009F18091BC03803270F02091C3
:102A9000B7033091B80338872F8319869B868A86BF
:102AA0008C87CE0107960E942A1386E0F801A7EBD7
:102AB000B3E001900D928A95E1F70E9403140E9401
:102AC000D513DD24D3945ACFC8010E942A13F9CF1D
:102AD000311112C0782D998A888AA7016C2D8989B5
:102AE0000E94951387EB93E00E942A1386E0F5017C
:102AF00011928A95E9F773CF2F110FC09E110DC067
:102B0000C1100BC015968C93C8010E942A1386E051
:102B1000F50111928A95E9F731CFED86FE868D8514
:102B20009E850E949113882379F2CC2069F28091CE
:102B3000BC03803208F4B9CF2091B7033091B803B9
:102B40003A8329831B829D828C828E83CE010196DB
:102B5000AACFE83CF10508F043C0DC2CCC2009F4F6
:102B6000B3CF2F112CC09E112AC08091BC0380FDD1
:102B70001DC0982F907FD1F015968C931597903F9C
:102B800039F0982F907F905F8F70892B15968C93DA
:102B9000C8010E942A1386E0F801A7EBB3E0019078
:102BA0000D928A95E1F70E94D513E8CE86E0F801F0
:102BB000A7EBB3E001900D928A95E1F7DFCEED86A9
:102BC000FE868D859E850E94911381116ECF809126
:102BD000BC0381608093BC03C8010E942A13CECE3F
:102BE000782D998A888AA7016C2D89890E9495136E
:102BF00086E0F50111928A95E9F7D5CFCC2009F44A
:102C000063CFED86FE868D859E850E949113D82E1A
:102C1000882309F459CF86E0F801A7EBB3E00190CF
:102C20000D928A95E1F787EB93E00E94A2100E9433
:102C30000314B9CF81E08C25DDCE81E08C25BBCE9D
:102C400088EC90E008951F93CF93DF93CDB7DEB764
:102C50002C970FB6F894DEBF0FBECDBF4F835887B9
:102C600069877A878B879C87CE0107960E945914C3
:102C7000882369F08A859B85892B39F04F81588597
:102C8000842F85238F3F09F071C016E05FC086E076
:102C9000FE013796DE01119601900D928A95E1F7BB
:102CA0008A859B85892B89F38F81988589238F3F1E
:102CB00061F32091860330E0C9010196877099275E
:102CC000409185034817190671F40E946E13109203
:102CD00086031092850386E0E7EBF3E0DF011D92A7
:102CE0008A95E9F7D2CF96E0929FD001939FB00DDD
:102CF0001124A957BC4FFE01319601900D929A956F
:102D0000E1F7809386030E94B413BFCF819FC00177
:102D1000112489579C4F0E9459148823E9F0E091AF
:102D200085031E9FF0011124E957FC4F408151811A
:102D300062817381848195810E94A41380918503AF
:102D400090E0019687709927809385038091850391
:102D5000909186038913DACF2C960FB6F894DEBFD4
:102D60000FBECDBFDF91CF911F91089569857A8500
:102D70008B859C850E94A41388CF08950C94BD1662
:102D80000E94BE166093DA037093DB038093DC032A
:102D90009093DD030C94601308950C94C0160F9368
:102DA0001F930091DA031091DB032091DC03309133
:102DB000DD03602B712B822B932B1F910F910C94B1
:102DC000C0160F931F930091DA031091DB0320913B
:102DD000DC033091DD0360237123822393231F9151
:102DE0000F910C94C0160F931F930091DA0310916A
:102DF000DB032091DC033091DD03602771278227FC
:102E000093271F910F910C94C0160C94BD160C942F
:102E100005170E9407176093D6037093D70380931A
:102E2000D8039093D9030C94601360E070E0CB0159
:102E30000C9409170F931F9341E050E060E070E09D
:102E40008A019B0104C0000F111F221F331F8A95A6
:102E5000D2F7C901B8011F910F910C9409170F9374
:102E60001F9341E050E060E070E004C0440F551F44
:102E7000661F771F8A95D2F78091D6039091D7036A
:102E8000A091D803B091D9038A019B01082B192B7B
:102E90002A2B3B2BC901B8011F910F910C940917E4
:102EA0000F931F9341E050E060E070E004C0440FD6
:102EB000551F661F771F8A95D2F7CB01BA0160951F
:102EC0007095809590950091D6031091D70320912D
:102ED000D8033091D90360237123822393231F9158
:102EE0000F910C9409170F931F9341E050E060E09D
:102EF00070E004C0440F551F661F771F8A95D2F7F4
:102F00008091D6039091D703A091D803B091D903B3
:102F10008A019B01082719272A273B27C901B801E5
:102F20001F910F910C9409170F931F930091D603D3
:102F30001091D7032091D8033091D903602B712BC6
:102F4000822B932B1F910F910C9409170F931F93B2
:102F50000091D6031091D7032091D8033091D90363
:102F600060237123822393231F910F910C940917DF
:102F70000F931F930091D6031091D7032091D8038C
:102F80003091D90360277127822793271F910F91D2
:102F90000C9409170895E92FEE0FEE0F9E0F890F7D
:102FA000982F977041E001C0440F9A95EAF78695F3
:102FB0008695869595E0899FF0011124E354FC4F96
:102FC00030E020E070E05191DF011197CB01022E3B
:102FD00002C0969587950A94E2F7817081958527BE
:102FE000842385278C932F5F3F4F2530310559F778
:102FF0000895E92FEE0FEE0F9E0F890F982F97700F
:1030000086958695869525E0829FF0011124E354EC
:10301000FC4F50E040E080E0219130E0092E02C0FA
:10302000369527950A94E2F721703327042E01C0C4
:10303000220F0A94EAF7822B4F5F5F4F453051050C
:1030400059F70895BF92CF92DF92EF92FF920F93BC
:103050001F93CF93DF938C01C090D603D090D703FA
:10306000E090D803F090D9038091DA039091DB03CC
:10307000A091DC03B091DD03C82AD92AEA2AFB2AF1
:10308000CFE1D0E0BC2ED701C6010C2E04C0B6950E
:10309000A795979587950A94D2F780FD0EC0219742
:1030A00088F7B12C8B2DDF91CF911F910F91FF905D
:1030B000EF90DF90CF90BF900895B8018C2F0E94C1
:1030C000E904019761F3EECFCF93DF93EC010E9407
:1030D0002218BE01DF91CF910C94E9041F93CF9386
:1030E000DF93EB0190918403992331F0CB01DF91C1
:1030F000CF911F910C946418882379F0CB010E9422
:103100002218182F682FCE010E94CB17BE01812FE5
:10311000DF91CF911F910C94E904CB010E94F91724
:10312000182FF4CF682F80911B0390911C030C94EF
:10313000651A682F80911B0390911C030C94671AE9
:1031400080911B0390911C030C94691A8091DE03FB
:1031500085958595859508958091DE0387700895FE
:103160009091DE03977081E009F480E008958091EA
:10317000EA0308959091EA03892B8093EA03089566
:1031800080959091EA0398239093EA030895109212
:10319000EA0308958091E90308959091E903892B4A
:1031A0008093E903089580959091E9039823909383
:1031B000E90308951092E90308951092E803089531
:1031C0008091DF03089508950C94E3189091DF0334
:1031D000981721F08093DF030C94E41808958091F0
:1031E000DF03882329F01092DF0380E00C94E418B9
:1031F0000895E0911B03F0911C038091EA03808302
:10320000E0911B03F0911C0380819091E903892BCD
:103210008083E0911B03F0911C0380819091E8036F
:10322000892B80839091DF03992381F0E0911B0328
:10323000F0911C038081892B808380911B039091E6
:103240001C030E941D1A81110E94EF1880911B031C
:1032500090911C030C94150F08950C942C1998E070
:10326000899F90011124622B6093DE030E942F1727
:103270008091DE038595859585950C942D19109286
:10328000DE0380E00C942D199091DE038095892354
:103290008093DE03282F277071F4282F082E000C4E
:1032A000330B9217130639F08595859585950E9405
:1032B00050170C943F19089590934B0380934A0341
:1032C0000895829590E09C01220F331F220F331F37
:1032D0002C7C95958795959587958373282B30E061
:1032E000C901880F991F8A7A359527952575822BF4
:1032F000089590E080E00E94002621E08C3E9E4FE1
:1033000009F020E0822F089582E090E00C94F825E7
:1033100083E090E00C94F825CF9384E090E00E9445
:10332000F825C82F81E290E00E94F825982F8C2F75
:10333000CF910895CF93C92F682F84E090E00E9429
:1033400006266C2F81E290E0CF910C940626AB010B
:10335000BC018FE090E00C941826AB01BC0183E126
:1033600090E00C94182660E070E0CB010C94AD194D
:1033700060E070E0CB010E94A7190C94B3196CEEC9
:103380007EEF90E080E00E94242660E082E090E002
:103390000E94062660E083E090E00E9406261092DC
:1033A000DA031092DB031092DC031092DD0360E07D
:1033B00084E090E00E94062660E081E290E00E94B6
:1033C000062660E085E090E00E94062660E086E048
:1033D00090E00E9406266FEF87E090E00E940626AC
:1033E00040E050E0BA0188E090E00E94182660E0DA
:1033F0008DE090E00E94062640E050E0BA0188E1AE
:1034000090E00E94182660E087E190E00E94062686
:1034100040E050E0BA018CE190E00E94182660E0A4
:1034200080E290E00E9406260C94B8190C94BF1913
:10343000682F8EE090E00C9406269C012E5F3F4F93
:10344000AC01485F5F4F80E02417350709F4089509
:10345000F90191919F019923B9F38F5FF5CF66230D
:1034600049F0FC01329608962191261729F0E817B9
:10347000F907D1F780E0089581E008959C01FC01EF
:1034800032969FEF80E04191461751F09F3F19F42B
:10349000411101C0982F8F5F8630A9F79F3F09F433
:1034A0000895290F311D97FD3A95F901628308951A
:1034B000FC01329608962191261303C0DF01119773
:1034C0001C92E817F907B9F708950C943E1A0C946A
:1034D000581A029626E0FC0111922A95E9F7089500
:1034E000089508950C94711A0E94721A809125040F
:1034F000843049F11092EC0388E190E020E40FB6AB
:10350000F894A895809360000FBE2093600080E03F
:103510000E945B040E94721A83B7817F846083BF1C
:1035200083B7816083BF7894889583B78E7F83BF8C
:103530000FB6F894A8958091600088618093600030
:10354000109260000FBE08950895CF930E94701AE4
:103550000E9474070E94A41AC0E08C2F0E94A1064A
:10356000811105C0CF5FC830C1F7CF91089581E0C8
:10357000FCCF08950C94B91A0E946E130E94090F93
:103580000E945B040C94BA1A1F921FB61F9211245A
:103590008F939F93AF93BF938091EC03811113C0DE
:1035A00080911B0490911C04A0911D04B0911E04F5
:1035B0004196A11DB11D80931B0490931C04A09300
:1035C0001D04B0931E04BF91AF919F918F911F90E6
:1035D0001FBE1F90189582E084BD93E095BD9AEFC1
:1035E00097BD80936E0008952FB7F89480911B04C7
:1035F00090911C04A0911D04B0911E042FBF08954A
:103600009C014FB7F89480911B0490911C04A091E9
:103610001D04B0911E044FBF821B930B0895789434
:103620001F921FB61F9211248F939F93AF93BF9346
:1036300080911B0490911C04A0911D04B0911E0464
:103640000196A11DB11D80931B0490931C04A093AF
:103650001D04B0931E04BF91AF919F918F911F9055
:103660001FBE1F90189587E797E7909301088093F6
:10367000000888E19AE00FB6F894A895809360005E
:103680000FBE90936000FFCF0E947919811102C094
:103690000E94161A0E9484198093EB030E948C19D1
:1036A0009093200480931F040E948819682F70E073
:1036B00090E080E00E94CD166091D6037091D70310
:1036C0008091D8039091D9030C9407178091F5034A
:1036D00080FF12C06091210385E0689FB001112432
:1036E000759567957595679560387105A8F56115AD
:1036F0007105A1F1862F089581FF09C06091210312
:1037000085E0689FB001112475956795EDCF6091B4
:10371000210382FD0AC08091F4038823D1F09091A7
:10372000200360912103891728F085E0689FB0018C
:103730001124DACF869FB001112485E0869F900185
:10374000879F300D1124692F70E0C9010E94CA259E
:10375000CBCF65E070E0CECF8FE7089581E008958C
:103760008091F50380FF0CC060911E0370E0759599
:103770006795759567956115710549F1862F0895CF
:1037800081FF06C060911E0370E075956795F3CFC9
:1037900060911E0382FD0BC09091F3039923A1F069
:1037A00060911D0380911E03961738F0682F70E01A
:1037B0006038710500F38FE70895899FC0011124D7
:1037C00070E00E94CA25F4CF61E070E0D7CF81E0BD
:1037D0000895803F31F40E94661B81958093F90320
:1037E0000895813F19F40E94661BF8CF823F31F49F
:1037F0000E94661B81958093F8030895833F19F416
:103800000E94661BF8CF893F29F40E94B01B809369
:10381000FA0308958A3F21F40E94B01B8195F7CFE7
:103820008B3F31F40E94B01B81958093FB03089578
:103830008C3F19F40E94B01BF8CF843F31F4809183
:10384000F70381608093F7030895853F21F4809109
:10385000F7038260F7CF863F21F48091F7038460FD
:10386000F1CF873F21F48091F7038860EBCF883F49
:1038700021F48091F7038061E5CF8D3F31F4809191
:10388000F50381608093F50308958E3F21F48091C4
:10389000F5038260F7CF8F3FB9F78091F50384601D
:1038A000F1CF9091F803803F59F48091F90387FF9D
:1038B0000DC01092F90391110BC01092F40308C0CF
:1038C000813F81F48091F90318169CF3992381F0CC
:1038D0008091FA039091FB03892B09F064C0109248
:1038E000F3030895823F49F497FFF0CF1092F80355
:1038F0008091F9038111ECCFE0CF833F19F41916C1
:10390000ACF3E4CF2091FA03893F29F41216F4F6C0
:103910001092FA03DBCF8A3F19F427FFD7CFF8CFF5
:103920002091FB038B3F29F427FFD0CF1092FB039C
:10393000CDCF8C3F19F41216CCF3C8CF843F31F4AD
:103940008091F7038E7F8093F703C0CF853F21F4EA
:103950008091F7038D7FF7CF863F21F48091F703A5
:103960008B7FF1CF873F21F48091F703877FEBCFE7
:10397000883F21F48091F7038F7EE5CF8D3F31F4AE
:103980008091F5038E7F8093F503A0CF8E3F21F4C5
:103990008091F5038D7FF7CF8F3F09F097CF80910E
:1039A000F5038B7FF0CF08958091EB0383FF7EC0FA
:1039B0008FE693E00E94D9028091F7031F928F93C4
:1039C0008AE693E09F938F930E94720388E693E0C8
:1039D0000E94D9028091F803282F082E000C330B87
:1039E0003F938F9385E693E09F938F930E9472039A
:1039F00083E693E00E94D9028091F903282F082ED4
:103A0000000C330B3F938F9380E693E09F938F934B
:103A10000E9472038EE593E00E94D9028091FA031E
:103A2000282F082E000C330B3F938F938BE593E0E8
:103A30009F938F930E94720389E593E00E94D902BD
:103A40008091FB03282F082E000C330B3F938F939C
:103A500086E593E09F938F930E94720383E593E042
:103A60000E94D9028091F4031F928F9380E593E026
:103A70009F938F930E9472038EE493E00E94D90279
:103A80008091F5031F928F938BE493E09F938F9324
:103A90000E94720388E493E00E94D9028DB79EB71A
:103AA0004C960FB6F8949EBF0FBE8DBF0E94F41ABD
:103AB0009C019091F8038091F903982B21F03093A9
:103AC000F2032093F1039091FA038091FB03982B6A
:103AD00021F03093F0032093EF0386EF93E00C94F2
:103AE000610FEF92FF920F931F93CF93DF9300D05C
:103AF00000D000D0CDB7DEB786E0E6EFF3E0DE0120
:103B0000119601900D928A95E1F7E090F803F090FC
:103B1000F9030091FA031091FB031092F80310923D
:103B2000F9031092FA031092FB038E2D8F2991F066
:103B30008091F1039091F2030E94001BAC019091DF
:103B4000F403992309F43FC08091220384171506DA
:103B500008F447C0802F812B91F08091EF03909162
:103B6000F0030E94001BAC019091F303992309F428
:103B700077C080911F038417150608F47FC08091D9
:103B8000F8039091F903892B9091FA03892B909176
:103B9000FB03892B11F00E94D41C86E0FE013196B4
:103BA000A6EFB3E001900D928A95E1F726960FB645
:103BB000F894DEBF0FBECDBFDF91CF911F910F9163
:103BC000FF90EF9008952091EE038AE0289F9001E6
:103BD00011242417350708F0BDCF9F5F9093F4039D
:103BE00002C09F3FD1F7EE2059F00E94661B9FEF65
:103BF0001E140CF491E0899F802D11248093F8030A
:103C0000FF2059F00E94661B9FEF1F140CF491E0F7
:103C1000899F802D11248093F9033091F803332379
:103C200009F498CF2091F903222309F493CF45EBAF
:103C30003403C0011124992359F09093F80345EB04
:103C4000240390011124332339F03093F90382CFF8
:103C500081E08093F803F3CF81E08093F9037ACF7A
:103C60002091ED038AE0289F900111242417350745
:103C700008F085CF9F5F9093F30302C09F3FD1F779
:103C8000002359F00E94B01B9FEF10160CF491E036
:103C9000899F802D11248093FA03112359F00E94EB
:103CA000B01B9FEF11160CF491E0899F802D112419
:103CB0008093FB033091FA03332309F460CF209102
:103CC000FB03222309F45BCF45EB3403C00111242D
:103CD000992359F09093FA0345EB240390011124A2
:103CE000332339F03093FB034ACF81E08093FA030A
:103CF000F3CF81E08093FB0342CF86E0E6EFF3E071
:103D0000DF011D928A95E9F71092F4031092F303F4
:103D10001092F503089580910704089508959FB7C0
:103D2000F8941092FE039FBF90912504943009F0FF
:103D300048C02091E9002F703091EC00932F9170D2
:103D400030FD90E8922B23E02093E9002091EB00D6
:103D500020FF34C02091EE0027FF30C02091FC03EB
:103D6000222321F02091E80025FF28C01092FC03B7
:103D700026E03091E80035FF14C08093F100809177
:103D8000E80085FD27C08091E80080FFFCCF80918E
:103D9000E8008E778093E8009F709093E90080E0C0
:103DA000089530912504343049F43091EB0035FD0D
:103DB00005C0215041F481E08093FC039F709093F3
:103DC000E9008FEF0895EFE9FFE03197F1F700C0C8
:103DD0000000CFCF8FB7F89421E02093FE038FBF70
:103DE000DBCF9C0182E08093E9009FEF8091E800A7
:103DF000915085FD06C085ED8A95F1F7000091117F
:103E0000F5CF8091E80085FF0CC050E040E066E00F
:103E100070E0C9010E942E218091E8008E77809386
:103E2000E8000895CF93DF93EC0181E08093E900EF
:103E30008FEF9091E800815095FD06C095ED9A9521
:103E4000F1F700008111F5CF8091E80085FF14C0E3
:103E500050E040E068E070E0CE010E942E218091A9
:103E6000E8008E778093E80088E0FE01AFEFB3E0D2
:103E700001900D928A95E1F7DF91CF910895089511
:103E800087EB93E00E94D90280912404811109C03C
:103E90000E94BE220E941B238091E20084608093D6
:103EA000E200089583EB93E00E94D902109224046B
:103EB00008958FEA93E00C94D9028BEA93E00C9476
:103EC000D90287EA93E00E94D9020C94BC1A20918F
:103ED000FD032F5F822F62E30E94BE25992319F014
:103EE0002093FD0308951092FD038091FE03882323
:103EF000F1F0809125048430C1F49091E9009F7025
:103F00002091EC00822F817020FD80E8892B93E0C6
:103F10009093E9009091EB0090FF04C09091EE0027
:103F200097FD08C08F708093E9001092FE030895FA
:103F30001092F1009091E80095FDFACF9091E80081
:103F400090FFF0CF9091E8009E779093E800EACF41
:103F500042E061EC81E00E943A2242E261EC82E0C0
:103F60000E943A2242E261EC83E00C943A22809172
:103F70002704833009F45FC030F48130C1F182300E
:103F800009F49BC008958A3009F487C08B3009F486
:103F90006DC0893009F04EC080912604813209F04D
:103FA00049C080912A0490912B04029708F042C0E6
:103FB0008091E800877F8093E8008091E80082FF8D
:103FC00035C09091F3008091F200029729F480911E
:103FD000F1008B7F813021F48091F1008093070400
:103FE0008091E8008B778093E8000C946E2280919A
:103FF0002604813AF9F48091E800877F8093E800F5
:1040000080912A0490912B04892B61F468E08FEF52
:1040100093E070E00E947D218091E8008B7780938F
:10402000E800089560E090E080E0F3CF80912504FF
:104030008111C3CF089580912604813AD9F78091E8
:104040002A0490912B04892BA9F78091E800877F9F
:104050008093E8008091E80080FFFCCF80912D03E1
:104060008093F1008091E8008E77BDCF8091260487
:10407000813201F780912A0490912B04892BD1F68B
:104080008091E800877F8093E8000E946E228091F3
:10409000280480932D030C946E13809126048132A2
:1040A00049F68091E800877F8093E8000E946E22A5
:1040B0008091290480930804089580912604813A10
:1040C00009F0B8CF8091E800877F8093E800809165
:1040D000E80080FFFCCF80910804C2CF84B7877FBF
:1040E00084BF0FB6F894A895809160008861809392
:1040F0006000109260000FBE80E890E00FB6F89468
:1041000080936100909361000FBE0E94A90F0E94EE
:10411000BE220E941B238091E20084608093E20013
:104120008FE89EE10E945C1978940E94A3250E946A
:10413000B10F83E293E00E94040F86E993E00E94AE
:10414000D90280912504853019F00E94E10FF9CF42
:1041500082E993E00E94D9020E94741A809123049C
:10416000882379F30E94A51A882359F30E94182105
:10417000E8CF0C94BB20292F33272330310521F1C0
:1041800068F42130310509F449C02230310509F4C1
:104190004AC090E080E030E020E029C021323105C3
:1041A00081F122323105A9F76330710590F7FB01E7
:1041B000EE0FFF1FE25CFC4F20813181655C7C4F7C
:1041C000FB01808190E013C099278130910599F01F
:1041D000009741F08230910589F00397D1F6EBEB1F
:1041E000F3E002C0E5EEF3E0849190E09F01FA0174
:1041F000318320830895E5EDF3E0F6CFE1ECF3E0C1
:10420000F3CF6330710528F6660F771FFB01EC5B77
:10421000FC4F2081318189E090E0E9CF82E190E09C
:1042200024E434E0E4CF8BE590E029EE33E0DFCF07
:1042300080E189BD82E189BD09B400FEFDCF809196
:10424000D8008F7D8093D8008091E00082608093B9
:10425000E0008091E00081FDFCCF0895AF92BF9215
:10426000CF92DF92FF920F931F93CF93DF936C0156
:10427000EB018A010E948D22F82E811123C00115C5
:10428000110539F0F80180819181C81BD90BC80E46
:10429000D91EB12CA12C2097A9F08091E80085FDB2
:1042A00022C08091E8008E778093E8000115110507
:1042B000A1F0F80180819181A80EB91EB182A0827F
:1042C00085E0F82E8F2DDF91CF911F910F91FF90F8
:1042D000DF90CF90BF90AF9008950E948D228823E9
:1042E000D1F2F82EEFCFF60181916F018093F100AA
:1042F0002197FFEFAF1ABF0ACECFFC0180912C04AB
:1043000090912D0486179707A0F06115710529F487
:104310009091E8009E779093E80090E06115710518
:1043200051F4911108C08091E80082FF34C080E010
:104330000895BC01F2CF809125048823C1F1853016
:10434000C1F18091E80083FD30C08091E80082FDDA
:10435000EACF8091E80080FFE1CF8091F3002091C7
:10436000F200382F6115710519F02830310558F029
:1043700091E02830310509F090E02091E8002E7797
:104380002093E800CBCF81918093F10061507109B7
:104390002F5F3F4FE7CF80912504882341F0853080
:1043A00041F08091E80083FFBECF81E0089582E074
:1043B000089583E00895FC0180912C0490912D04D0
:1043C00086179707A0F06115710529F48091E80020
:1043D0008E778093E80090E06115710551F491119A
:1043E00008C08091E80082FF35C080E00895BC01DC
:1043F000F2CF809125048823C9F18530C9F18091DD
:10440000E80083FD31C08091E80082FDEACF809111
:10441000E80080FFE1CF8091F3002091F200382F77
:104420006115710519F02830310558F091E02830F8
:10443000310509F090E08091E8008E778093E800E4
:10444000CBCF84918093F1003196615071092F5F39
:104450003F4FE6CF80912504882341F0853041F01D
:104460008091E80083FFBDCF81E0089582E0089548
:1044700083E00895982F973028F08F708093E9009B
:1044800081E008959093E900242F762F50E098174B
:1044900031F07091EC002091ED005091F00021FD81
:1044A00002C09F5FE8CF3091EB003E7F3093EB007E
:1044B0003091ED003D7F3093ED003091EB003160A5
:1044C0003093EB007093EC002093ED005093F000DC
:1044D0002091EE0027FDE5CF80E00895809126042D
:1044E00087FF13C08091E80082FF06C08091E8003A
:1044F0008B778093E80004C0809125048111F2CF6E
:104500000895809125048823D9F38091E80080FFE5
:10451000F8CF8091E8008E77ECCF2091E4003091C5
:10452000E50095E6A9012091EC00822F817020FF23
:1045300006C08091E80080FF06C080E008952091C9
:10454000E80022FD1AC080912504882389F0853077
:1045500089F08091EB0085FD0FC02091E40030913F
:10456000E50042175307F9F29150E1F684E008950F
:1045700082E0089583E0089581E008950E942C234D
:104580000E943423E0EEF0E0808181608083E8EDDA
:10459000F0E080818F77808319BCA7EDB0E08C912B
:1045A0008E7F8C9380818F7E808310922404089567
:1045B0000F931F93CF93DF930E942C230E943423E9
:1045C000C8EDD0E088818F77888388818068888370
:1045D00088818F7D888319BC109225041092210454
:1045E000109223041092220400EE10E0F801808162
:1045F0008B7F808388818160888342E060E080E0F7
:104600000E943A22E1EEF0E080818E7F8083E2EE2C
:10461000F0E0808181608083808188608083F80100
:1046200080818E7F8083888180618883DF91CF91B4
:104630001F910F910895E8EDF0E080818F7E8083D7
:10464000E7EDF0E080818160808384E082BF81E0DB
:10465000809324040C94D822E8EDF0E080818E7FD2
:1046600080831092E20008951092DA001092E10027
:1046700008951F920F920FB60F9211242F933F931C
:104680004F935F936F937F938F939F93AF93BF935A
:10469000EF93FF938091E10082FF0BC08091E200D5
:1046A00082FF07C08091E1008B7F8093E1000E9430
:1046B000671F8091DA0080FF19C08091D80080FFC9
:1046C00015C08091DA008E7F8093DA008091D90046
:1046D00080FF96C080E189BD82E189BD09B400FEFA
:1046E000FDCF81E0809325040E94401F8091E1006E
:1046F00080FF19C08091E20080FF15C08091E20028
:104700008E7F8093E2008091E20080618093E200DE
:104710008091D80080628093D80019BC85E0809396
:1047200025040E945D1F8091E10084FF2BC08091D1
:10473000E20084FF27C080E189BD82E189BD89B59F
:10474000982F917080FFFBCF8091D8008F7D809350
:10475000D8008091E1008F7E8093E1008091E2009B
:104760008F7E8093E2008091E20081608093E2007E
:1047700080912104882309F449C084E080932504B2
:104780000E94611F8091E10083FF29C08091E200B7
:1047900083FF25C08091E100877F8093E10082E064
:1047A00080932504109221048091E1008E7F8093F4
:1047B000E1008091E2008E7F8093E2008091E20030
:1047C00080618093E20042E060E080E00E943A2253
:1047D0008091F00088608093F0000E94591FFF9143
:1047E000EF91BF91AF919F918F917F916F915F9169
:1047F0004F913F912F910F900FBE0F901F901895E2
:1048000019BC109225040E94521F70CF8091E300C2
:1048100087FD93E090932504B3CF1F920F920FB6BC
:104820000F9211242F933F934F935F936F937F9336
:104830008F939F93AF93BF93CF93DF93EF93FF93A8
:10484000D091E900DF708091EC00C82FC17080FD2D
:10485000C0E81092E9008091F000877F8093F0001B
:1048600078940E9451241092E9008091F0008860B1
:104870008093F000CD2BCF70C093E900FF91EF91B2
:10488000DF91CF91BF91AF919F918F917F916F9168
:104890005F914F913F912F910F900FBE0F901F90FE
:1048A00018951F93CF93DF93CDB7DEB7AA970FB6B6
:1048B000F894DEBF0FBECDBF86E294E02091F100F8
:1048C000FC012193CF01F4E08E329F07B9F70E94DB
:1048D000B71F8091E80083FF1EC18091260490914C
:1048E00027049A3008F017C1E92FF0E0EA5AF94D91
:1048F0000C94DE25803899F0823809F00CC1809143
:104900002A048F70873008F006C18093E9008091F7
:10491000EB0085FB882780F91092E90006C08091A2
:10492000220490912304911182609091E800977F76
:104930009093E8008093F1001092F1008091E800DC
:104940008E77E5C0882309F4D3C0823009F0E3C034
:10495000809128048111D6C080912A048F702FEF96
:10496000280F263008F0D7C08093E9002091EB0093
:1049700020FFC8C0933031F48091EB0080628093B7
:10498000EB00C0C09091EB0090619093EB0021E0B0
:1049900030E001C0220F8A95EAF72093EA001092D6
:1049A000EA008091EB008860EACF8111B4C01091D9
:1049B00028041F778091E3008078812B8093E300A7
:1049C0008091E800877F8093E8000E946E228091AA
:1049D000E80080FFFCCF8091E30080688093E300D3
:1049E00082E0111183E08093250495C080588230C5
:1049F00008F091C080912804909129048C3D23E017
:104A00009207A1F583E08A838AE289834FB7F894FD
:104A1000DE01139620E03EE051E2E32FF0E05093F8
:104A20005700E49120FF03C0E295EF703F5FEF7005
:104A30008E2F90E0EA30C0F0C7968D939D932F5F44
:104A4000243159F74FBF8091E800877F8093E800B9
:104A50006AE270E0CE0101960E947D218091E8001B
:104A60008B778093E80057C0C096E7CF60912A0407
:104A700070912B04AE014F5F5F4F0E94B920BC01C3
:104A8000892B09F448C09091E800977F9093E80043
:104A900089819A810E94DB21E1CF8038E1F5809104
:104AA000E800877F8093E800809121048093F100E3
:104AB00045CF811130C090912804923060F58091EB
:104AC000E800877F8093E800909321040E946E2283
:104AD00080912104882311F084E005C08091E300D7
:104AE00087FDFACF81E0809325040E94A81F13C0A0
:104AF00080912804813079F481E0933009F080E0DE
:104B0000809323041092E9008091E800877F8093CE
:104B1000E8000E946E228091E80083FF0AC0809125
:104B2000E800877F8093E8008091EB0080628093AB
:104B3000EB00AA960FB6F894DEBF0FBECDBFDF9193
:104B4000CF911F910895CF93809125048823A1F0E0
:104B5000C091E900CF709091EC00892F817090FD99
:104B600080E8C82B1092E9008091E80083FD0E9444
:104B70005124CF70C093E900CF910895991B79E03B
:104B800004C0991F961708F0961B881F7A95C9F7DD
:104B90008095089597FB072E16F4009407D077FDB3
:104BA00009D00E94E42507FC05D03EF4909581953C
:104BB0009F4F0895709561957F4F0895EE0FFF1FE9
:104BC0000590F491E02D0994AA1BBB1B51E107C08D
:104BD000AA1FBB1FA617B70710F0A61BB70B881F8D
:104BE000991F5A95A9F780959095BC01CD0108951C
:104BF000F999FECF92BD81BDF89A992780B50895A5
:104C0000A8E1B0E042E050E00C942C26262FF99960
:104C1000FECF92BD81BDF89A019700B4021639F01B
:104C20001FBA20BD0FB6F894FA9AF99A0FBE0895EC
:104C30000396272F0E9407260E940626252F0E94F2
:104C40000726242F0C9407260196272F0E9407265B
:104C50000C940626DC01CB01FC01F999FECF06C0BD
:104C6000F2BDE1BDF89A319600B40D92415050402A
:104C7000B8F70895F894FFCF64116411BB11BB110C
:104C8000911107129111911112129E12AD12AD12D3
:104C90007D137D138613861388138613861386135C
:104CA0007D137D138D13861386138D137A24A2240E
:104CB0008B25A2248B25D524F6248B254D2559251B
:104CC0004B0C5B0C6B0C00000000000000000000AF
:104CD000000000004E024B0C5B0C6B0C000000004F
:104CE000000000000000000000004A024B0C5B0CBA
:104CF0006B0C00000000000000000000000000003D
:104D000046024B0C5B0C6B0C000000000000000026
:104D100000000000000042024B0C5B0C6B0C00001A
:104D20000000000000000000000000003E024B0CEC
:104D30005B0C6B0C00000000000000000000000095
:104D400000003A024B0C5B0C6B0C000000000000F2
:104D5000000000000000000036024B0C5B0C6B0CE6
:104D6000000000000000000000000000000032020F
:104D70004B0C5B0C6B0C00000000000000000000FE
:104D8000000000002E024B0C5B0C6B0C00000000BE
:104D9000000000000000000000002A024B0C5B0C29
:104DA0006B0C00000000000000000000000000008C
:104DB00026024B0C5B0C6B0C000000000000000096
:104DC00000000000000022024B0C5B0C6B0C00008A
:104DD0000000000000000000000000001E021100A2
:104DE00030020B0027021C00300012002E000C00C5
:104DF000340218002D0205002F020A0026021700B7
:104E00002F0015002D00080034001A001F021400A6
:104E10003502CD02350200C702340200C1022E0065
:104E200000BB022D0200B502280000AF021A0100EB
:104E3000A9024C0000A3022A00009D022E00009748
:104E40000234000091022D00008B02310200850225
:104E50006500007F024C000079024A000073024D99
:104E600000006D0228000067022E00000000000014
:104E70000000000000000000000000000000000032
:104E80000000000000000000000000000000000022
:104E90000000000000000000000000000000000012
:104EA0000000000000000000000000000000000002
:104EB00000000000000000000000000000000000F2
:104EC00000000000000000000000000000000000E2
:104ED00001510300520304520301FFE00328086458
:104EE0003C07108B1E121FF11E8E1E3F1F0166977E
:104EF000C634353133323600000000404F22C7043B
:0A4F000078045604FB0314042D048A
:00000001FF
